:020000040800F2
:1000000000500020212800081D2800081B28000897
:100010001B2800081B2800081B28000800000000FF
:100020000000000000000000000000001D28000883
:100030001D280008000000001D2800087D1600088B
:100040001B2800081B2800081B280008650800085A
:100050001B2800081B2800081B2800081B28000874
:100060001B2800081B2800081B280008CD130008C7
:100070001B2800081B2800081B2800081B28000854
:100080001B2800081B280008111400081B28000862
:10009000C90700081B2800081B2800081B280008A7
:1000A0001B2800081B2800081B2800081B28000824
:1000B0009B13000891080008F10800081B2800089D
:1000C0001B2800081B2800081B2800081B28000804
:1000D0001B2800081B2800081B28000841140008E2
:1000E0001B2800081B280008B10700081B2800086F
:1000F0001B2800081B2800081B2800081B280008D4
:100100001B2800081B2800081B2800081B280008C3
:100110001B2800081B280008211700081B280008BE
:100120001B2800081B2800081B2800081B280008A3
:100130001B2800081B2800081B2800081B28000893
:100140001B2800081B2800081B2800081B28000883
:1001500080B500AFF02300220321054801F086FBA3
:100160000F2300220321024801F080FB00BF80BD65
:100170000014014080B582B000AF0346FB714021FE
:10018000264801F0E1FCFB7903F00803002B04D0C2
:100190000821224801F0D6FC03E008211F4801F0A5
:1001A000D3FCFB7903F00403002B04D004211B488B
:1001B00001F0C8FC03E00421184801F0C5FCFB79FC
:1001C00003F00203002B04D00221144801F0BAFC12
:1001D00003E00221114801F0B7FCFB7903F00103B1
:1001E000002B04D001210D4801F0ACFC03E00121FB
:1001F0000A4801F0A9FC4021084801F0A3FC642052
:1002000001F0CCF94021054801F09EFC642001F08A
:10021000C5F900BF0837BD4680BD00BF00140140CE
:1002200080B582B000AF0346FB711021094801F090
:100230008BFCFB791B09DBB21846FFF79BFFFB79B0
:1002400003F00F03DBB21846FFF794FF00BF083737
:10025000BD4680BD0014014080B582B000AF0346AA
:10026000FB711021094801F06DFCFB791B09DBB221
:100270001846FFF77FFFFB7903F00F03DBB2184648
:10028000FFF778FF00BF0837BD4680BD001401406E
:1002900080B582B000AF03460A46FB711346BB71BE
:1002A000FFF756FF2021334801F04EFC1021314862
:1002B00001F04AFC40212F4801F046FC0F2001F0DC
:1002C00083F92D4ABB79D3702B4AFB7913712A4BE2
:1002D00000225A71284B00229A71274B0022DA71B2
:1002E000254B04225A70BB79012B06D9224B5B782F
:1002F00043F00803DAB2204B5A700320FFF73AFFAD
:100300000A2001F061F90320FFF734FF962001F085
:1003100045F90320FFF72EFF0A2001F055F90220CE
:10032000FFF728FF0A2001F04FF9134B5B7843F0E9
:100330002003DBB21846FFF773FF0F4B04221A703D
:1003400000F01CF800F030F80B4B03229A700A4BB7
:100350009B7843F00403DBB21846FFF761FF64208B
:1003600001F032F98021034801F0EEFB00BF0837AD
:10037000BD4680BD00140140280A002080B500AFB2
:10038000084B1B7843F00403DAB2064B1A70054B96
:100390001B7843F00803DBB21846FFF741FF00BFAC
:1003A00080BD00BF280A002080B500AF0120FFF704
:1003B00037FF00BF80BD000080B584B000AF0346AA
:1003C0000A46FB711346BB71134B1B68FB60134B52
:1003D000DB78BA799A4201D30023BB710F4AFB79CB
:1003E00053710E4ABB799371BB7907F11002134424
:1003F00013F8042CFB791344DBB25BB263F07F0388
:100400005BB2DBB21846FFF70BFF0A2001F0DCF805
:1004100000BF1037BD4680BD88B00008280A002004
:1004200080B582B000AF03463A60FB710B46BB71EA
:10043000BA79FB7911461846FFF7BEFF42E0254B1B
:100440005A79244B1B799A4210D3224B00225A71BD
:10045000204B9B790133DAB21E4B9A711D4B5A79AE
:100460001C4B9B7919461046FFF7A6FF3B681B788B
:100470000A2B0ED1174B9B790133DAB2154B9A71C7
:10048000144B5A79134B9B7919461046FFF794FF8A
:1004900015E03B681B780D2B06D10E4B9B79194656
:1004A0000020FFF789FF0AE03B681B781846FFF73A
:1004B000D3FE084B5B790133DAB2064B5A713B68C5
:1004C00001333B603B681B78002BB8D100BF083775
:1004D000BD4680BD280A002080B582B000AF03462B
:1004E000FB71FB79002B07D08021094801F02AFB22
:1004F000084B0122DA7106E08021054801F024FB57
:10050000044B0022DA7100BF0837BD4680BD00BF32
:1005100000140140280A002080B485B000AFF860C4
:10052000B9607A603B60BB685B78202B03D0222BDC
:1005300009D1012308E03B681B88062B01D8002362
:1005400002E0012300E0002318461437BD4680BCBA
:10055000704780B594B000AF78600B46FB7007F130
:10056000080240230121786801F0FFFC0346BB64C8
:10057000BB6C9BB207F108028221786801F0EEFCA7
:10058000002387F84F300EE097F84F3007F1500204
:10059000134413F8483C184600F0ECF897F84F3035
:1005A000013387F84F3097F84F30BA6C9A42EBDC42
:1005B00000BF5037BD4680BD80B483B000AF7860C7
:1005C0000B46FB7000BF0C37BD4680BC7047000077
:1005D00080B584B002AF78600B467B80124B0093ED
:1005E000402302220121786801F098FC0F4B009310
:1005F000402302228221786801F090FC00230093BE
:10060000102303228321786801F088FC084B7F22A5
:100610002121786801F073FD7B88064AC2F8DC323C
:1006200000BF0837BD4680BD53050008B905000866
:1006300019050008300A002080B586B004AF4FF4D9
:10064000004300220221204801F010F94FF400413C
:100650001D4801F079FA802302931C4B0193032378
:1006600000931B4B1B4A1C491C4801F02BFC024603
:100670001B4B1A611A4B1B691A49184602F00CF8F9
:100680003B464FF4FA61184601F0CEF84FF40041B2
:100690000D4801F057FA4FF400721349104800F06A
:1006A00015FE0F4B0022C3F8DC220D4B0022C3F8CD
:1006B000D422142002F032F92A2002F02FF900BFD0
:1006C0000837BD4680BD00BF00080140440A002035
:1006D0000000002034B100088CB00008B0B1000860
:1006E000300A0020D1050008C40A002080B582B07D
:1006F00000AF1E4BD3F8DC32002B31D00CE01B4B8B
:10070000D3F8D4325A1C1949C1F8D422F979174ABE
:1007100013440A4683F89422144BD3F8D4323F2B67
:1007200007D8FB1D1946114800F0E8FD0346002BD1
:10073000E5D10E4BD3F8D432002B14D00B4B1869F3
:100740000A4BD3F8D4329BB2094A822101F006FC4D
:100750000346002B06D0054B0022C3F8D42202E04A
:1007600000BF00E000BF0837BD4680BD300A002052
:10077000C40C002080B584B000AF0346FB71FB7948
:1007800019460A4800F0E1FD0346002B0AD107F1A3
:100790000F031946054800F0B1FDFB7919460348DF
:1007A00000F0D3FD00BF1037BD4680BD300A0020E9
:1007B00080B500AF034B1B69184601F0ABFB00BFCF
:1007C00080BD00BF300A002080B500AF034B1B691D
:1007D000184601F09FFB00BF80BD00BF300A00201B
:1007E00090B587B000AF786039603B684FF0000487
:1007F000C7E9023407F10803184602F027FB7861C5
:100800007B691B685AB27B68DA717B695B685AB294
:100810007B689A717B699B685AB27B685A717B6965
:10082000DB685AB27B68DA707B699B69DBB20133A3
:10083000DBB25AB27B681A717B691B69DBB2013388
:10084000DBB25AB27B689A707B695B699BB203F238
:100850006C739BB21AB27B681A8000BF1C37BD460E
:1008600090BD000080B582B000AF002001F042F9D9
:1008700001F036F903467B607B6819460348FFF7B1
:10088000AFFF00BF0837BD4680BD00BF100D002080
:1008900080B500AF0121134801F066F90346002B33
:1008A0001ED001210F4801F065F90E4B1A680D4B5F
:1008B0001B681B011340002B14BF01230023DAB275
:1008C000094B1A70094B1B680133084A1360074B28
:1008D0001B684CF24F32934202D9044B00221A603B
:1008E00000BF80BD00040040180D0020300D002026
:1008F00080B500AF0121134801F036F90346002B03
:100900001ED001210F4801F035F90E4B1A680D4B2E
:100910001B681B011340002B14BF01230023DAB214
:10092000094B1A70094B1B680133084A1360074BC7
:100930001B684CF24F32934202D9044B00221A60DA
:1009400000BF80BD00080040240D0020340D0020B1
:1009500080B485B000AF0346FB71FB79032B67D8E9
:1009600001A252F823F000BF79090008A709000886
:10097000D5090008030A00084B4B1B689BB203F41F
:100980000063FB81FB89002B06D1FB79474A9B0062
:10099000134401229A704BE0FB79444A9B001344B4
:1009A00000229A7044E0404B1B689BB203F48063C2
:1009B000FB81FB89002B06D1FB793C4A9B00134449
:1009C00001229A7034E0FB79384A9B0013440022DC
:1009D0009A702DE0344B1B689BB203F48073FB814B
:1009E000FB89002B06D1FB79304A9B00134401227E
:1009F0009A701DE0FB792D4A9B00134400229A70E7
:100A000016E0294B1B689BB203F40073FB81FB8942
:100A1000002B06D1FB79254A9B00134401229A70D2
:100A200005E0FB79214A9B00134400229A7000BF25
:100A3000FB791E4A9B0013449A78FB791B499B0063
:100A40000B445B789A4224D0FA79184993000B44FE
:100A50001B790133D8B2154993000B4402461A7131
:100A6000FB79124A9B0013441B790A2B17D1FB799F
:100A7000FA790E499B000B4498780C4993000B447B
:100A800002465A70FB79094A9B00134400221A71EE
:100A900005E0FB79054A9B00134400221A7100BF50
:100AA0001437BD4680BC704708100140380D002047
:100AB00080B582B000AF0023FB712F4B00221A706B
:100AC00050E02D4B1B781846FFF742FF2A4B1B784E
:100AD000294A9B0013445B78012B2ED1264B1B78AF
:100AE000254A9B001344DB78002B1ED1224B1B7838
:100AF000032B17D801A252F823F000BF0D0B0008FA
:100B0000130B0008190B00081F0B00080123FB71D1
:100B10000CE00223FB7109E00323FB7106E00423D0
:100B2000FB7103E00023FB7100E000BF124B1B7858
:100B3000114A9B0013440122DA700F4B1B780E4AB6
:100B40009B0013445B78002B06D10B4B1B780A4AA1
:100B50009B0013440022DA70074B1B780133DAB292
:100B6000054B1A70044B1B78032BAAD9FB79184646
:100B70000837BD4680BD00BF380D002080B586B067
:100B800000AFF860B9607A60FB68012B02D0FB68A7
:100B9000022B1BD100237B6112E07B69BA681344EE
:100BA0001B780A2B02D10D20FFF7E4FD7B69BA68A0
:100BB00013441B781846FFF7DDFD7B6901337B6129
:100BC0007A697B689A42E8DB7B6906E002F038F9D3
:100BD0000246052313604FF0FF3318461837BD4611
:100BE00080BD000080B586B000AF0123FB7500F02A
:100BF000CBF800F06BFC00F063FD04211420FFF73C
:100C000047FB0120FFF768FC574A00210020FFF74F
:100C100007FC00F069F90021002000F0CFF9322133
:100C2000002000F0F1F9002000F0D4FA00210120AA
:100C300000F0C4F93221012000F0E6F9012000F0B3
:100C4000C9FA0021022000F0B9F93221022000F097
:100C5000DBF9022000F0BEFA0121002000F002FBC7
:100C60000121012000F0FEFA0121022000F0FAFA31
:100C70000221002000F0F6FA0221012000F0F2FA31
:100C80000221022000F0EEFAFFF7D6FC3B1D1846C9
:100C900000F08CFD07F10C03184600F087FD07F10A
:100CA0000C034FF47A71184600F098FD0346002BB0
:100CB0000BD12E4B1B6819462D4802F0B7FA2D4B6D
:100CC0001B6819462C4802F0B1FA3B1D0A21184650
:100CD00000F084FD3B1D0A21184600F07FFD03460D
:100CE000002B3CD1FFF7E4FE0346BB75BB7D012B17
:100CF00010D1224A01210020FFF792FB01210020A0
:100D000000F0B0FA0121012000F0ACFA012102202C
:100D100000F0A8FABB7D022B10D1194A0121002056
:100D2000FFF77EFB0221002000F09CFA0221012047
:100D300000F098FA0221022000F094FABB7D032B08
:100D40000DD1104A01210020FFF76AFB002000F0BE
:100D500041FA012000F03EFA022000F03BFAFFF7D2
:100D6000C5FC00F0F5FE9AE764B10008300D0020E4
:100D700070B10008340D00207CB1000888B1000873
:100D800094B10008A0B1000880B500AF00F062FE89
:100D900040F2023001F07FF840F2033001F07BF8BE
:100DA0004FF4417001F077F840F2053001F073F82C
:100DB0004FF4407001F06FF840F20B3001F06BF827
:100DC00040F2813001F067F800214FF0007000F030
:100DD0007FFD00BF80BD000080B500AF40F20B304A
:100DE00001F059F840F2023001F055F84FF440702C
:100DF00001F051F84FF4E06302220321384800F07B
:100E000035FD002320220021364800F0B6FE1121D6
:100E1000344800F0D7FE07220021324800F0D6FE09
:100E20000021304800F0F1FF01212E4800F0EDFFD5
:100E3000072202212B4800F0C9FE0221294800F0B8
:100E4000E4FF0321274800F0E0FF072204212548A2
:100E500000F0BCFE0421234800F0D7FF0521214803
:100E600000F0D3FF1F4801F005F81E4800F098FE7F
:100E700064211C4800F0A8FE00211A4800F086FFFB
:100E800032220021174800F0E5FF0022002115481A
:100E900000F0E0FF0221134800F078FF3222022127
:100EA000104800F0D7FF002202210E4800F0D2FFC8
:100EB00004210C4800F06AFF32220421094800F0A6
:100EC000C9FF00220421074800F0C4FF01210548A2
:100ED00000F0D5FF034800F068FE00BF80BD00BFF2
:100EE00000080140002C014080B582B000AF304BBB
:100EF000304A1A602E4B304A9A602D4B4FF4807264
:100F00009A802B4B4FF400529A81294B294A5A61FF
:100F1000274B294ADA61264B4FF400721A83244B7F
:100F20004FF480421A84224B224A9A62204B224A72
:100F30001A631F4B4FF480629A851D4B4FF4004299
:100F40009A8640F2033000F0A6FF4FF4604300227F
:100F50000321194800F08AFC154B9B891946164855
:100F600000F0F2FD124B1B8C1946134800F0ECFD0B
:100F70000F4B9B891946104800F0E6FD0023FB71DA
:100F80000CE0FA790A4913469B0013449B000B447A
:100F9000113300221A70FB790133FB71FB793B2B73
:100FA000EFD9FFF719FF00BF0837BD4680BD00BF6E
:100FB000500D002000080140000C014080B483B0B7
:100FC00000AF03460A46FB711346BB71FB79012B48
:100FD00007D0022B0AD0002B0DD10A4ABB795374DB
:100FE0000AE0084ABB7982F8253005E0054ABB795A
:100FF00082F8393000E000BF00BF0C37BD4680BC2E
:10100000704700BF500D002080B483B000AF03468E
:101010000A46FB711346BB71FB79012B07D0022BEB
:101020000AD0002B0DD10A4ABB7993740AE0084A12
:10103000BB7982F8263005E0054ABB7982F83A3060
:1010400000E000BF00BF0C37BD4680BC704700BF4A
:10105000500D002080B582B000AF0346FB71FB79D4
:10106000012B1BD0022B32D0002B49D10021274865
:1010700000F0A6FE0021254800F06EFE244B9B7C6C
:101080001A460021214800F0E5FE214B9A68204BCA
:101090009B891946104600F057FD32E002211B489B
:1010A00000F08EFE0221194800F056FE184B93F80E
:1010B00026301A460221154800F0CCFE144BDA699E
:1010C000134B1B8C1946104600F03EFD19E004211D
:1010D0000E4800F075FE04210C4800F03DFE0C4B5C
:1010E00093F83A301A460421084800F0B3FE084B42
:1010F0001A6B074B9B8E1946104600F025FD00E049
:1011000000BF00BF0837BD4680BD00BF002C0140B6
:10111000500D002080B582B000AF0346FB71FB7913
:10112000012B1BD0022B32D0002B49D100212748A4
:1011300000F046FE0021254800F00EFE244B9B7C6B
:101140001A460021214800F085FE214B9A68204B69
:101150009B891946104600F0F5FC32E002211B483D
:1011600000F02EFE0221194800F0F6FD184B93F80E
:1011700026301A460221154800F06CFE144BDA693D
:10118000134B1B8C1946104600F0DCFC19E00421BF
:101190000E4800F015FE04210C4800F0DDFD0C4B5C
:1011A00093F83A301A460421084800F053FE084BE1
:1011B0001A6B074B9B8E1946104600F0C3FC00E0EB
:1011C00000BF00BF0837BD4680BD00BF002C0140F6
:1011D000500D002080B582B000AF0346FB71FB7953
:1011E000012B14D0022B23D0002B32D100211B481D
:1011F00000F00BFE0021194800F0C8FD184B9A685A
:10120000174B9B891946104600F09EFC22E00221F4
:10121000124800F0FAFD0221104800F0B7FD104B13
:10122000DA690F4B1B8C1946104600F08DFC11E05B
:1012300004210A4800F0E9FD0421084800F0A6FD59
:10124000074B1A6B064B9B8E1946104600F07CFC30
:1012500000E000BF00BF0837BD4680BD002C014044
:10126000500D002080B582B000AF03460A46FB71E6
:101270001346BB71BA79FB7911461846FFF79EFEFB
:10128000FA79114913469B0013449B000B44113318
:101290001B78012B08D0022B0BD0002B0ED1FB7931
:1012A0001846FFF797FF0AE0FB791846FFF7D2FED2
:1012B00005E0FB791846FFF72DFF00E000BF00BFF7
:1012C0000837BD4680BD00BF500D002080B485B0FA
:1012D00000AFF860B9607A60FB68BA681A60FB68B2
:1012E0007A685A60FB6800229A60FB689A68FB681B
:1012F000DA6000BF1437BD4680BC704780B483B04D
:1013000000AF786039607B68DA687B689B689A42D6
:1013100001D1002314E07B681A687B68DB68134402
:101320001A783B681A707B68DB6801337A68526808
:10133000B3FBF2F102FB01F29A1A7B68DA60012337
:1013400018460C37BD4680BC704780B485B000AFEE
:1013500078600B46FB707B689B6801337A68526843
:10136000B3FBF2F102FB01F29B1AFB607B68DB68C6
:10137000FA689A4201D100230AE07B681A687B6808
:101380009B681344FA781A707B68FA689A600123A4
:1013900018461437BD4680BC704780B500AF0121A8
:1013A0004FF0804000F0E0FB0346002B0BD0012102
:1013B0004FF0804000F0DEFB00214FF0804000F055
:1013C00064FD00F033F800BF80BD000080B500AFC1
:1013D000022201210A4800F0ABFB0346002B0DD08E
:1013E000084B00221A7003220121054800F09AFBE5
:1013F000054B01225A70054B01221A7000BF80BDB7
:1014000000000240391000208C0D00203810002010
:1014100080B400AF044B1B780133DAB2024B1A7070
:1014200000BFBD4680BC70473910002080B500AFBA
:10143000024800F013FA00BF80BD00BF0024014045
:1014400080B582B000AF114B1B6803F02003002B66
:1014500017D00F4B1B6803F02003002B11D00C4852
:1014600000F015FD0346FB71FB7919460948FFF7AB
:101470006CFF00F051F80246074B1A60074B01223F
:101480001A7000BF0837BD4680BD00BF0C48004041
:10149000004800403C1000204C100020501000205C
:1014A00080B400AF074B1B68064A43F0807313609B
:1014B000054B1B68044A43F00103136000BFBD469F
:1014C00080BC7047FCED00E0001000E080B500AF8C
:1014D0000E4B00221A6072B6042001F003FA0C4B86
:1014E0001B680C4AA2FB03239B09184601F0E2F992
:1014F00001F004FA01F00AFAFF21FF2001F01CFAC2
:1015000062B6FFF7CDFF00BF80BD00BF54100020C2
:101510000C000020D34D621080B400AF024B1B685A
:101520001846BD4680BC70475410002080B485B07A
:1015300000AF786039603A687B689A4204D93A68AB
:101540007B68D31AFB6004E03A687B68D31A2233C5
:10155000FB60FB6818461437BD4680BC704780B5F9
:1015600084B000AF7860396001F0ACF90346013B0C
:10157000BB603A687B689A4204D93A687B68D31AA0
:10158000FB6006E03A687B68D21ABB6813440133FB
:10159000FB60FB6818461037BD4680BD80B584B03F
:1015A00000AF786001F096F90346FB6000BF07F1D9
:1015B0000C037968184600F03CF80346002BF6D07F
:1015C00000BF1037BD4680BD80B584B000AF7860E5
:1015D000FFF7A2FF0346FB6000BF07F10C03796829
:1015E000184600F007F80346002BF6D000BF10376E
:1015F000BD4680BD80B584B000AF78603960FFF72C
:101600008BFFF8607B681B68F9681846FFF78EFF50
:10161000B860BA683B689A4201D2002305E0FFF740
:101620007BFF02467B681A60012318461037BD46CF
:1016300080BD80B584B000AF786039603A681346E9
:10164000DB001344DB003B6001F044F9F8607B6889
:101650001B681946F868FFF782FFB860BA683B68F4
:101660009A4201D2002305E001F034F902467B687A
:101670001A60012318461037BD4680BD80B400AF04
:101680000C4B1B68002B03D10B4B00221A6008E0A7
:10169000084B1B68B3F57A7F03D1074B1B68074AD9
:1016A0001360044B1B680133024A136000BFBD4640
:1016B00080BC704754100020041000E05810002037
:1016C00080B500AF4FF4617000F0E5FB002300220D
:1016D0000021124800F051FA4FF47A710F4800F0DF
:1016E00073FA47210D4800F06DFA00210B4800F015
:1016F0004DFA2021094800F05DFA084800F055FA3B
:101700000121064800F02CFAFF21362001F014F9DF
:10171000362001F003F900BF80BD00BF001000407B
:1017200080B500AF0121084800F01EFA0346002BE7
:1017300008D00121044800F01DFA044B1B68013356
:10174000024A136000BF80BD0010004060100020FE
:1017500080B487B000AF0346B9607A60FB73FB7B4F
:10176000002B03D14FF47A733B6102E04FF0FF335B
:101770003B617A68BB689A4206D97B689AB2BB68BB
:101780009BB2D31AFB820BE07B689AB2BB689BB218
:10179000D31A9AB23B699BB213449BB20133FB82CA
:1017A000FB8A18461C37BD4680BC704780B582B0A6
:1017B00000AF7860074B1A687B685A60064800F0F3
:1017C00062FB03469AB27B681A8000BF0837BD46A9
:1017D00080BD00BF601000200010004080B582B0C6
:1017E00000AF786039600E4B1B689AB20D4B1A80BF
:1017F0007B6859680B4B1B881A460120FFF7A8FF2E
:1018000002463B68934206D8064B1B881A467B6803
:101810005A60002300E0012318460837BD4680BD0A
:10182000601000205C10002080B582B000AF7860AE
:101830000B467B80084B1A687B685A6000BF7B8828
:1018400019467868FFF7CAFF0346002BF7D100BF9F
:101850000837BD4680BD00BF601000208368DB07ED
:1018600042BF836843F00103836070472DE9F04372
:1018700000264FF00F0E43F6F8789C460368476841
:101880004CFA06F4E4071BD5072E94BF9946B946D7
:10189000B4B28BBF4444A400A400A4B288BFA4B2D5
:1018A0000EFA04F529EA0509A51C02FA05F501FA64
:1018B00004F42C4344EA0904082E2CBF274623468F
:1018C0000136102EDCD103604760BDE8F0830000D4
:1018D000034A136823F0E063194301431160704722
:1018E00004000140024A136843F08073136070479C
:1018F00000100240062822D8DFE800F004090E1389
:10190000181D1F000F4B1868C0F3406070470D4B47
:101910001868C0F3C06070470A4B1868C0F3407085
:101920007047084B1868C0F340407047054B186873
:10193000C0F340007047044BF9E7044BF7E7002081
:10194000704700BF001002402010024024100240E7
:10195000024608B51046FFF7CDFF0028FAD008BDB3
:1019600006280CD8DFE800F004060C11161B1D0039
:10197000FFF7B8BF0C4A136843F0806313607047E9
:10198000094A136843F08053F8E7074A136843F4A1
:101990008033F3E7044A136843F00103EEE7034A98
:1019A000F9E7034AF7E700BF0010024020100240A9
:1019B00024100240034A136823F003031843106005
:1019C000704700BF04100240034A136823F47013E9
:1019D00043EA80401060704704100240034A1368D5
:1019E00023F4803343EA0040106070470410024043
:1019F000034A136823F4003343EA40401060704701
:101A000004100240034A136823F4404343EA803041
:101A10001060704704100240034A136823F46053B7
:101A200043EAC0201060704704100240034A136864
:101A300023F4E06343EA0020106070470410024082
:101A4000034A136823F0F00343EA00101060704764
:101A50000410024008B50420FFF782FF0420FFF7BE
:101A600077FF0020FFF7A6FF0320FFF779FF032091
:101A7000FFF76EFF0120FFF79DFF0020FFF7E0FF5B
:101A80000320FFF7BFFF0420FFF7D0FF0020FFF780
:101A9000C3FF022000F00CFA0720FFF795FF01209A
:101AA000FFF79CFF0020FFF7A3FFFFF71BFF0020BD
:101AB000FFF74EFF0220FFF77DFF044B044A054964
:101AC0001360054A1160054A136008BD00A24A046C
:101AD0000C000020005125021000002014000020FE
:101AE000034B186804331B6843EA0040704700BF8B
:101AF00018280040012809D002D302280BD07047D3
:101B0000074A136823F0010313607047044A1368FF
:101B100023F00203F8E7024A136823F00403F3E713
:101B2000042800400139890002FA01F14160704740
:101B300001390368890002FA01F1194214BF01203A
:101B4000002070470161704709040161704700007F
:101B50004AF6AA22014B1A60704700BF00300040CD
:101B6000C3681943C160704703690B4214BF012069
:101B700000207047C9430161704710B504681343E2
:101B800024F45C740B432343036010BD036801F429
:101B9000407123F440730360036819430160704788
:101BA000036843F0800303607047036843F0010358
:101BB00003607047436823F0700343604368194330
:101BC0004160704781627047C162704706297AD8C8
:101BD000DFE801F00479337963799200836923F0B7
:101BE0000303836183698361836923F070038361E5
:101BF000072A68D8DFE802F03304090D1115191D12
:101C0000836943F0100383617047836943F02003C5
:101C1000F9E7836943F03003F5E7836943F0400354
:101C2000F1E7836943F05003EDE7836943F0600314
:101C3000E9E7836943F07003E5E7836923F44073C0
:101C4000836183698361836923F4E0438361072AA5
:101C500039D8DFE802F004060A0E12161A1E83694C
:101C6000D1E7836943F48053CDE7836943F400539C
:101C7000C9E7836943F44053C5E7836943F480436C
:101C8000C1E7836943F4A043BDE7836943F4C043DC
:101C9000B9E7836943F4E043B5E7C36923F003037D
:101CA000C361C369C361C36923F07003C361072AB9
:101CB00009D8DFE802F03304090D1115191DC369B5
:101CC00043F01003C3617047C36943F02003F9E791
:101CD000C36943F03003F5E7C36943F04003F1E71C
:101CE000C36943F05003EDE7C36943F06003E9E7DC
:101CF000C36943F07003E5E7C36923F44073C3612C
:101D0000C369C361C36923F4E043C361072ADAD816
:101D1000DFE802F004060A0E12161A1EC369D1E7A4
:101D2000C36943F48053CDE7C36943F40053C9E763
:101D3000C36943F44053C5E7C36943F48043C1E733
:101D4000C36943F4A043BDE7C36943F4C043B9E7A3
:101D5000C36943F4E043B5E7062912D8DFE801F090
:101D6000041109110D111200836943F00803836106
:101D70007047836943F40063F9E7C36943F00803DC
:101D8000C3617047C36943F40063F9E7062912D8B9
:101D9000DFE801F0041109110D111200836923F02D
:101DA000080383617047836923F40063F9E7C3691B
:101DB00023F00803C3617047C36923F40063F9E7A4
:101DC000062909D8DFE801F0041509190D1D1100D5
:101DD000036A43F0010303627047036A43F0100390
:101DE000F9E7036A43F48073F5E7036A43F4805329
:101DF000F1E7036A43F00403EDE7036A43F04003AD
:101E0000E9E7036A43F48063E5E7062909D8DFE8D8
:101E100001F0041509190D1D1100036A23F00103D7
:101E200003627047036A23F01003F9E7036A23F49F
:101E30008073F5E7036A23F48053F1E7036A23F024
:101E40000403EDE7036A23F04003E9E7036A23F4A0
:101E50008063E5E706290CD8DFE801F0040B060BE8
:101E6000080B0A004263704782637047C263704781
:101E700002647047436C43F4004343647047436912
:101E8000194341617047406A70474162704740683A
:101E9000C0F308007047430900F01F02012003F15E
:101EA000804303F504331968904008431860704775
:101EB000034A136823F0070318431060704700BFFC
:101EC000002002402DE9F0411E4603680546884681
:101ED00017469847069BC0F8DC50C360079BC0E9D3
:101EE00000870361BDF8203086608382064B03675C
:101EF000064BC366064B83660023C0E93233C0E954
:101F00003433BDE8F08100BF252100088521000899
:101F100007220008D0F8DC305B6A184710B4D0F80C
:101F2000DC40A468A44610BC604737B500250446D1
:101F30000368C582DB792A4629460095FFF7EEFF44
:101F4000D4F8DC3029465B6820469847E3691BB12A
:101F500003B0BDE83040184703B030BD10B4D0F82E
:101F6000DC40E469A44610BC604710B4D0F8DC4003
:101F7000246AA44610BC6047D0F8DC301B691847BF
:101F8000D0F8DC309B691847D0F8DC305B69184723
:101F900010B503680446D979838F826B99420FD2BA
:101FA0000B460021FFF7DAFF022384F82C30236868
:101FB000A26BD979A38F0A445B1AA263A38710BDD1
:101FC0000021FFF7CBFF94F84430002B0CBF032314
:101FD000022384F82C30002384F84430A387A363C1
:101FE000EDE72DE9F74F04460E4600F1480500F1F4
:101FF000680B00F1380700F13C0800F1400AD5F801
:102000000090B9F1000F08D0337869792A790B4034
:102010009A420BD008355D45F1D143463A463146E8
:10202000204603B0BDE8F04F00F0A4BBCDF800A0FF
:1020300043463A4631462046C8470128EAD803B00D
:10204000BDE8F08F10B5012200210446FFF794FF90
:10205000002384F82C3010BD70B50368828FC48EC5
:10206000DB79A41A9C42A8BF1C46816BA6B20A4425
:10207000334600210546FFF778FF864205D0284603
:10208000FFF7E0FF4FF0FF3070BDAB8FA0B21E44F2
:10209000AE87F9E738B50369044683638B79CA795B
:1020A0000D4643EA02238387FFF79BFF10B3EB88BB
:1020B000BBB1A28F21689342C9790ED97AB192FB44
:1020C000F1F301FB1323B3FA83F35B0984F8443083
:1020D0002046BDE83840FFF75BBF0023F6E7134614
:1020E000F4E71A4619462046FFF738FF042384F820
:1020F0002C3038BD2046BDE83840FFF7A3BF70B58F
:10210000002600EBC605AC6C2CB10136042EF8D1CC
:102110004FF0FF3070BD85F84C1085F84D20AB6452
:102120002046F7E770B500250446056401222946DC
:1021300000F13006FFF728FFE38E2BB93146204629
:10214000BDE87040FFF7A6BF94F93020002AF5DB08
:10215000A28A9A4204D22046BDE87040FFF772BFBF
:102160002269A587A26322682046D2799A4234BFA9
:1021700005230623002284F82C301146BDE8704068
:10218000FFF702BF90F82C3010B5062B044612D092
:10219000072B27D0052B21D1FFF75EFF002809DB95
:1021A000A28FE38E9B1A2268D279934202DC062327
:1021B00084F82C3010BDFFF74FFF0028FADB04F144
:1021C00030012046FFF70DFF38B1002320461A46A4
:1021D0001946FFF7C3FE0423EAE72046BDE8104096
:1021E000FFF730BF00231A461946FFF7BEFE002353
:1021F00084F82C30236C1BB104F130012046984741
:1022000000232364D6E790F82C3010B5032B044646
:1022100007D0042B0ED0022B23D1BDE81040FFF7CE
:10222000B7BE0723BDE81040002280F82C301146CD
:10223000FFF7AABE036C13B100F13001984794F880
:10224000303053B994F83130052B06D1618ED4F873
:10225000DC30C9B25B6820469847002384F82C30F4
:1022600010BDBDE81040FFF7EDBEF8B50D4649883A
:10227000044679B103680D26587C0023984201D8A2
:102280000020F8BD626806FB032252798A4203D01F
:102290000133F3E74FF0FF330133DBB2E3754BB9A2
:1022A000D4F8DC302046DB689847D4F8C8309BB9B6
:1022B0000120E6E70D22534362680D3B13440022E0
:1022C000104619799142EBD9D3F8091016017158CB
:1022D00001B108700132F4E7002304F1C806A364D9
:1022E0002365A365236604F1D80756F8043B13B1B0
:1022F000698820469847B742F7D1D9E7198812680C
:10230000012984BF01211980C37D2BB141680D20B3
:1023100000FB031313F8083C13700120704730B51D
:102320000D24C57D40686C430D3C04448D882079A4
:1023300085420CD2012018808B88D4F809001B013B
:102340001B5803B11B7801201268137030BD0020A8
:10235000FCE719880120022984BF0221198000238B
:1023600011680B7012685370704710B514461A88C4
:10237000022A84BF02221A808988C9B2FFF700FEB0
:10238000003018BF01200022236818702368012044
:102390005A7010BD08B589880122C9B2FFF7ECFD5B
:1023A000012008BD08B589880022C9B2FFF7E4FD05
:1023B000012008BD10B50B7873B94C887F2C0BD861
:1023C000D0F8DC30847593F830201AB149885B6806
:1023D000C9B29847012000E0002010BD0D2270B561
:1023E0001C46C37D5A4343680D3A13441D798A88BD
:1023F000954218D9D3F809501201AE184B88367996
:102400009E4210D9AA5852B11370D0F8D83013B1E7
:102410004A888988984700230120238070BD002BBB
:10242000F3D01046FAE70020F8E72DE9F04F4D8889
:102430001F462B0A022B89B0164611D0032B00F041
:10244000E580012B40F01A810268398832601278E9
:102450008A4228BF0A463A80012009B0BDE8F08FC1
:102460000D26EDB26E430369D0F80480136018F8AE
:1024700006503C880193A54228BF254608EB060379
:102480002A4619460198029300F00AFE0022019B99
:10249000641B18F806602B44A4B20492029A1179C6
:1024A000BDF81020914203D8019B5E803D80D3E7A8
:1024B000049A12010792029A0799D2F809200A4455
:1024C000D2F80890B9F1000F14D099F8008018469E
:1024D000A04528BFA0464946424600F0E1FD03461C
:1024E00099F80020A4EB0804454416444344A4B2E0
:1024F000ADB2B6B200220592029A0799D2F809202D
:102500000A441079BDF81410884202D8049A0132A6
:10251000C3E715200599D2F80CA000FB01F91AF8C1
:1025200009800AEB090BA04528BFA0465946424640
:10253000184600F0B5FD03461AF80920DBF80D1027
:10254000A4EB0804454416444344A4B2ADB2B6B269
:10255000A9B1DBF811801846A045A8BFA0461FFA14
:1025600088F94A4600F09CFD0346DBF81120A4EBF5
:1025700009044D4416444B44A4B2ADB2B6B24FF078
:1025800000099BF804101FFA89F2914202D8059ABB
:102590000132B0E7DBF80920C9EB091A0692524470
:1025A0000392069A039912F80A801846A04528BF9C
:1025B000A046424600F074FD0346069AA4EB0804C8
:1025C00012F80A2045441644039A4344D2F80710EF
:1025D000A4B2ADB2B6B2B1B1D2F80B801846A045E4
:1025E000A8BFA0461FFA88FA524600F059FD0346DC
:1025F000039AA4EB0A04D2F80B2055441644534422
:10260000A4B2ADB2B6B209F10109BAE715F0FF05FF
:1026100004690DD10923A3700423E37023703B8860
:10262000042B28BF04233B8003236370346013E72B
:1026300083681BB3C268013DAA421FDD40F2094214
:10264000898891421AD153F82550284600F002FE9D
:1026500001304000C0B220703B882946984228BF14
:10266000184638803B884A1B5B08013B9342DBDD00
:1026700011F8013B04EB42025380F3E70020ECE643
:1026800019880120022984BF0221198000231168C2
:102690000B70126853707047002210B500F1C80427
:1026A00054F8043B3BB18B4208D00132042AF7D1E5
:1026B0004FF0FF3010BD323240F822100020F9E711
:1026C00010B44C78092C12D8DFE804F00D11111168
:1026D000110F0B110905074CA44610BC6047064CAE
:1026E000FAE7064CF8E7064CF6E7064CF4E700205C
:1026F00010BC70476B220008FD2200082B24000844
:1027000053230008B523000810B44C780A2C08D0D5
:102710000B2C02D03CB9054C00E0054CA44610BC83
:102720006047044CFAE7002010BC7047812600087F
:10273000DD2300081F23000810B44C78012C05D0BD
:1027400010D3032C07D0002010BC70474C88002CFD
:10275000F9D1054C03E04C88002CF4D1034CA4467D
:1027600010BC6047024CFAE7A52300089523000837
:102770006B23000810B40C7814F0600F06D104F03D
:102780001F04012C08D004D3022C08D0002010BC58
:10279000704710BCFFF794BF10BCFFF7B5BF10BC6B
:1027A000FFF7CABF08B540F29730FFF774FB00236C
:1027B000054A064913600B6041F80C3C4FF41C437A
:1027C0000348136008BD00BF405C0040505C0040FF
:1027D0006410002001320239521001EB4202914292
:1027E00000D1704731F8023F043040F8043CF6E76E
:1027F000F0B502F0010652080D46044613462BB907
:102800001EB111F8223000F81230F0BD35F8047B0B
:10281000013B24F8027B9BB2F1E7FEE77047000022
:10282000002238B51849194C19485318834217D358
:102830000021184A934217D3174A184C1368184DB1
:1028400043F400731360AC4211D3164C164DAC42E6
:1028500011D3FEF7C7F9154C154DAC420FD338BD57
:10286000135953500432E0E719600433E2E754F897
:10287000043B9847E7E754F8043B9847E7E754F8E8
:10288000043B9847E9E700BF000000204CB5000872
:10289000280A0020F011002014ED00E044B50008E3
:1028A00044B5000844B5000844B5000844B5000824
:1028B00044B50008024B20F07F401860704700BF0D
:1028C00014E000E0024B186820F07F40704700BF22
:1028D00014E000E0024B186820F07F40704700BF12
:1028E00018E000E0044A00F00400136823F0040339
:1028F00003431360704700BF10E000E0024A136812
:1029000043F002031360704710E000E0024A1368CE
:1029100043F001031360704710E000E00122430917
:102920009B0003F1604300F01F0003F5614302FACE
:1029300000F0186070470000432893BF00F160402A
:10294000044B00F00F0000F564408CBFC1540170CF
:10295000704700BF14ED00E0024B41F080011960A8
:10296000704700BF4C5C00403E2A11D9013AC2F3C7
:102970004412501C400142F02002084B92021B6896
:1029800092B29BB203EBC101054B49005A5070470C
:1029900001325208500080B2EFE700BF505C0040A7
:1029A0000C600040F7B505464FF0C060414C01F0A7
:1029B0007F06CDE90040B40004F1804404F5B8443A
:1029C00020680DF1080C20F4E04020F07F00304337
:1029D00080B2206020680CEB420220F4EC4032F818
:1029E000082C20F07000104349B280B20029089FE3
:1029F0002060DFF8C8C04FEAC60E2ADB4EB3DCF811
:102A00000020298B92B296442B4A4FEA4E0E42F890
:102A10000E1028461A463146FFF7A6FF002F43D175
:102A2000236823F4415323F030031B041B0C236061
:102A3000236823F4804323F070039BB283F4405354
:102A400043F4004343F0800323602B8B1844288316
:102A500028E0DCF80020288B92B27244520002F188
:102A6000804202F5C04210601FB10C2202FB0652E8
:102A700097662268184422F4E04222F030021204E1
:102A8000120C22602268002922F4E04222F0400267
:102A900092B282F0200242F4004242F080022260B0
:102AA0002883ACDA03B0F0BD0C2303FB0656F766AF
:102AB000B6E700BF0002000408600040505C004020
:102AC00048F2800170B50B4A0B4E0C4D0C4C13684C
:102AD00033400B439BB2136013682B400B439BB2F4
:102AE00042F8043BA242F2D10368DB7920335B0059
:102AF000038370BD045C0040BF8FFFFF8FBFFFFFEB
:102B0000205C004010B589B9002A0CBF2024102495
:102B10002A48036823F4E04323F0400363401BB2D8
:102B200043F4004343F080039BB203600B0623D5BC
:102B3000002A0CBF2022102201F07F014FEA810100
:102B400001F1804101F5B8410B6823F4E04323F023
:102B5000400383EA02031BB243F4004343F08003C3
:102B60009BB20B6007D10B6823F4E04323F03003E2
:102B70001B041B0C0B6010BD890001F1804101F5A5
:102B8000B8413AB90B6823F4415323F030031B04D6
:102B90001B0C0B60002A0CBF4FF440524FF48052C4
:102BA0000B6823F4804323F0700353401BB243F4BB
:102BB000004343F080039BB2DCE700BF005C0040B1
:102BC0000B060ED501F07F01890001F1804101F56E
:102BD000B841086800F03000102814BF0020012020
:102BE0007047890001F1804101F5B841086800F49F
:102BF0004050B0F5805FF0E70B0612D40B4B0C4849
:102C00005A54890001F1804101F5B8410B68034035
:102C10009BB23AB183F4005343F4004343F0800382
:102C20000B60704783F44053F6E700BF601100204B
:102C30008FBFFFFF01F07F01F8B58C0004F18044E5
:102C400004F5B8441D462368944603F03003302B46
:102C500028D0154FCE003A68614692B232445200F5
:102C600002F1804202F5C04210882A46400000F17D
:102C7000804000F5C040FFF7ADFD39680B4B89B2CD
:102C80000E4476009D51226822F4E04222F0400278
:102C900092B282F0300242F4004242F0800222609E
:102CA0002846F8BD0025FBE7505C0040046000406A
:102CB000F8B58C0004F1804404F5B8441D4623683F
:102CC0000E4603F44053B3F5405F10463AD01E4918
:102CD000F2000B681D4F9BB213445B00FB58C3F31B
:102CE0000903AB4206DA0B689BB213445B00FD5844
:102CF000C5F309050B689BB21A44154B5200995A4B
:102D00002A46490001F1804101F5C041FFF770FDFD
:102D1000236823F0F0031B051B0D43F080032360A1
:102D20000C4B9B5D63B9226822F4804222F0700252
:102D300092B282F4405242F4004242F08002226099
:102D40002846F8BD0025FBE7505C00400C600040C1
:102D50000860004060110020374A2DE9F0411368F7
:102D6000054613F4806F9FB2164608D0BDE8F041C7
:102D70004FF6FF33136040230383FFF7D6B81C04DC
:102D80001FD503F00F084FEA880404F1804413F0C4
:102D9000100304F5B84436D0236819053CD5082340
:102DA00000F130024146FFF783FF022308EB48029F
:102DB00013441A3355F82330002B2FD041462846B0
:102DC00098473A0505D54FF2FF7333602B6A03B17C
:102DD0009847FB0405D54EF6FF7333606B6A03B169
:102DE000984717F4007F154C05D04FF6FF52AB6A99
:102DF0003260E3B19847AB6ACBB1236843F4007308
:102E00002360BDE8F081226822F0F0021205120D65
:102E100042F400422260C9E70123C7E7236823F098
:102E2000F0031B051B0D43F080032360C9E72368F3
:102E300023F40073E4E700BF445C0040405C0040C2
:102E4000014B1868704700BF18000020024B19683A
:102E50007C3100F003B800BF180000202DE9F843D2
:102E60000C46074603F0FEFE21460646384603F0B0
:102E7000FDFE0446406900F26C7818F0030F00F084
:102E8000B5804FEAE8734FF4C872804D85FB081592
:102E9000C3EBE51502FB1585002D0CBF3025002581
:102EA0007B4B1D4400F0C6FA00F0D0FA794B1B684A
:102EB00023B37368434518D1D7E90001D6E90889DF
:102EC0003368002B40F0A180404571EB090380F28C
:102ED000A680D6E91223904271EB0303B4BF01230D
:102EE000002323620BDA326D0AE0404600F0E0F97D
:102EF0000028E1D14FF0FF33236200E02362B26A81
:102F00004FF46166644BD01783FB02131344DB124A
:102F1000191A06FB1121614E1B1A86FB0126CA17DE
:102F20000E44C2EB6616C6EB0610A268A1EB800148
:102F30002068D31A6268411A921B3B2984E80E006C
:102F40004DDD01323C39C4E900123B2A40DD01333A
:102F50003C3AC4E90123172B1DDDD4E906210132D7
:102F6000062AC8BF0022A261E268183B0132013183
:102F7000C4E90232E161216955F821309A4205DD48
:102F80000131D21A0C29E2604CD0216100F058FACC
:102F90002046BDE8F883002BF8DAD4E90621013A8F
:102FA00048BF0622A261E26801391833013AE161A3
:102FB000C4E90232002AE9D12369013B3CD42361F0
:102FC0009B00EB58E36000F03BFA2046BDE8F88335
:102FD000002AC0DA013B3C32C4E90123BBE70029E7
:102FE000B3DA013A3C31C4E90012AEE76421274A62
:102FF0004FEAE87382FB0802C3EB621201FB128204
:10300000002A3FF440AF30254AE7404571EB090301
:103010000FDBD6E91223904271EB030309DA012397
:10302000236260E700226369226101336361E26128
:10303000ACE70023236262E70B2263692261591E19
:1030400003F26B728B07616111D0D3174FF4C87014
:103050000E4981FB0261C3EBE11300FB1323B3FABA
:1030600083F35B0903F5B6722C23E261A9E76420C0
:103070000649D31781FB0261C3EB611100FB1121EB
:103080000029E3D040F26D12EEE700BF1F85EB513F
:10309000E4B1000884110020C5B3A2918988888812
:1030A000844641EA000313F0030349D1403A23D395
:1030B0000B6803604B6843608B688360CB68C360B8
:1030C0000B6903614B6943618B698361CB69C361A0
:1030D0000B6A03624B6A43628B6A8362CB6AC36288
:1030E0000B6B03634B6B43638B6B8363CB6BC36370
:1030F00040304031403ADBD230320BD30B680360B2
:103100004B6843608B688360CB68C36010301031BC
:10311000103AF3D20C3205D351F8043B40F8043B8B
:10312000043AF9D2043208D0D2071CBF11F8013B8F
:1031300000F8013B01D30B8803806046704700BF55
:10314000082A13D38B07B1D010F00303AED0C3F11C
:103150000403D21ADB071CBF11F8013B00F8013B46
:10316000A4D331F8023B20F8023B9FE7043AD9D3BD
:10317000013A11F8013B00F8013BF9D20B780370DA
:103180004B7843708B78837060467047F0B4860745
:1031900046D0541E002A3CD0CAB2034602E014F1C5
:1031A000FF3436D303F8012B9D07F8D1032C29D91E
:1031B000CDB245EA05250F2C45EA054533D9A4F1E2
:1031C0001006360903F1200707EB061703F110027A
:1031D00042E9045542E902551032BA42F8D1721C54
:1031E00014F00C0F03EB021204F00F0613D0331F80
:1031F00023F003030433134442F8045B9342FBD1EE
:1032000006F003042CB1C9B21C4403F8011B9C4214
:10321000FBD1F0BC704734461346002CF3D1F8E7DD
:1032200014460346C2E71A462646E0E70FB410B537
:10323000074B82B004AC54F8042B1868234681680D
:10324000019400F0A5FA02B0BDE8104004B0704748
:103250001800002020F0030110F00300C0F100006E
:1032600051F8043B00F1040C4FEACC0C6FF0000263
:103270001CBF22FA0CF213434FF0010C4CEA0C2C49
:103280004CEA0C4CA3EB0C0222EA030212EACC1229
:1032900004BF51F8043B0430F4D0C2F1000102EA4B
:1032A0000102B2FA82F2C2F11F0200EBD2007047B3
:1032B0002DE9F04F83B0074603F0D4FC40F2B17320
:1032C0009F4240F3A2804FF4C8736FF4F66440F25B
:1032D0006D1A544AFD1782FB0718C5EBE81603FB6D
:1032E000167607EB040C002E0CBF302300234FEAA8
:1032F000AC0EA7F2B27C0AFB0CEC6FF4C86E019323
:10330000A7F26D73C5EB681582FB034807EB0E044B
:10331000A2FB04424FF06409DB17A3EB681363447C
:1033200003EBD2140146A04609FB157507F0030311
:10333000DFF8FCE04760009300F1500C0A7A4B691B
:103340004A2A1DD0442A2BD143448A698C6A0EFB39
:1033500003222244D317C1E9082328318C45EDD13B
:10336000D0E91223D0E90845944275EB0303B4BFBA
:103370000122002201230260184603B0BDE8F08F4D
:10338000009C08EB03022CB925B13B2BC8BF0132CE
:10339000531EDAE7002EFBD13B2BC8BF0132F7E703
:1033A000009ABAB3DDF804A0CA681F4C012AA244EF
:1033B00047460EDD4FEA820BABF10809D144AAF172
:1033C000040252F8044F91452744FAD1ABF1040BA3
:1033D000DA44164C3A1D84FB0249D4179144C4EBDD
:1033E000A904C4EBC404121B9B1A0A6948BF073323
:1033F000013ADAF80040C2EBC2021344A34202DBF6
:10340000073BA342FCDA3B449FE70023184603B086
:10341000BDE8F08F019A002D0CBF92464FF0300AA4
:10342000C2E700BF1F85EB51E4B100089324499225
:1034300080510100014803F009BD00BFE4110020E4
:10344000014803F007BD00BFE4110020014B1868DC
:1034500000F002B8180000202DE9F04F8BB00646AE
:1034600003F000FCBE498046304603F0F3FBBD4D3F
:103470000446002800F00981296829B104F05AFEA9
:10348000002800F0E6802968084603F067FD204622
:10349000FFF7E0FE411C304603F068FD286010B1E4
:1034A000214604F025FF237808AD3A2B08BF0134EC
:1034B0002B46AD4AAD49204604F0C8FD002840F334
:1034C000C880089BE25C1C442D2A00F0C5804FF0A8
:1034D000010A2B2A08BF01344FF0000906AF0DF195
:1034E00016060395019505AA029700962B46A0495A
:1034F0002046ADF81690ADF8189004F0A7FD4845A9
:1035000040F3A7804FF46160BDF81630BDF8181085
:10351000BDF81420C3EB031301EB830300FB02335C
:103520000AFB03F3089ADFF864B21444DFF838C2E8
:10353000DFF848A2C8F8283020465A462B468B4967
:10354000CAF800C004F082FD484540F3F280089BB1
:10355000CAF804B0E25C1C442D2A00F081804FF0D0
:1035600001092B2A08BF01344FF0000CCDE9027588
:10357000CDE900652B4605AA7D492046ADF814C06B
:10358000ADF816C0ADF818C0CDF820C004F05EFD4F
:10359000002840F387804FF46160BDF81620BDF825
:1035A0001810C2EB0212BDF8143001EB820200FBCE
:1035B000032309FB03F3C2464FF0000B089AC8F837
:1035C0005030144494F80090B9F12C0F04BF94F8D3
:1035D00001900134B9F14D0F69D0B9F14A0F08BF1C
:1035E00001344FF00A0209A9204618BF4FF04409E0
:1035F00005F008F8099BADF81E00A34237D080B251
:10360000CAF814008AF808901C4600230222ADF87C
:103610001630ADF81420ADF81830089323782F2B0E
:103620006CD04FF4E153CAF818300AF1280ABBF104
:10363000000F19D0D8F80400FFF73AFED8F8282078
:10364000D8F850304B489B1A18BF01234A490360F1
:103650000A600BB0BDE8F08F01344FF0FF3A3BE752
:1036600001344FF0FF397FE74FF0010BAAE7BBF1C0
:10367000000F6AD04D240B200121002288F8304031
:10368000C8E90D01C8F83C20BEE73B4A39493B4B2D
:1036900014603B4A28680C60C3E9002203F05EFC1A
:1036A0002C60D6E7D8F82830A3F5616383E70DF1E5
:1036B0001E0207ABCDE90152009303952B460DF195
:1036C0001A023049204604F0C1FC0328C1D1BDF8DC
:1036D0001A305A1E0B2ABCD8BDF81C20511E0429D2
:1036E000B7D8BDF81E100629B3D8CAE903328AF844
:1036F0000890CAF81410089B1C4486E72B4605AABC
:1037000021492046CDE90275CDE9006504F09EFC13
:103710004FF4616CBDF81620BDF81800C2EB021220
:10372000BDF81430089900EB82020CFB03230C4413
:1037300079E7D8F828001049DAF800200D4B086026
:10374000CAF80420C3F8009083E74D200321022229
:10375000C8F814B088F80800C8E9031254E700BF9D
:1037600044B2000880110020741100204CB20008FF
:103770005CB2000884110020881100204804002059
:1037800048B2000870B2000884B200086811002036
:103790002DE9F04FD5B01C460991914605460B9096
:1037A00003F04CFB03680D9418461993FFF752FD84
:1037B00017901DB1AB6B002B00F0C383099B596EB2
:1037C000B3F90C20CD0793B202D4980540F12187BC
:1037D000990408D4099842F40053416E838121F47E
:1037E00000519BB241661A0740F1BC80099A1269E8
:1037F000002A00F0B78003F01A020A2A00F0C08005
:1038000000234E46002100221693CDE92933189358
:103810001A93CDE91C331B930A932BAB28939B4639
:103820003378CDE91412002B00F0E481252B01F050
:103830008B80354603E0252B00F0B98025466B7858
:103840006C1C002BF7D1A71B00F0D481DDE92932D5
:1038500001333A44072BCBE90067CDE9293200F365
:10386000AA800BF1080B0A9A6B783A440A92002B53
:1038700000F0C08100234FF0FF392B27202194F85E
:1038800001800C938DF88330079304F1010A0AF14B
:10389000010AA8F120035A2B00F25783DFE813F046
:1038A0001603550355030402550355035503E1015F
:1038B00055035503D401CF01550367016E0155032C
:1038C000880124012401240124012401240124016C
:1038D000240124015503550355035503550355038E
:1038E0005503D00255031202B600D002D002D00216
:1038F00055035503550355030B025503550310019A
:103900005503550355032B035503E2005503550397
:1039100052015503550355035503550355035503EC
:103920005503D00255031202BA00D002D002D002D1
:103930002003BA005B005503B10155038F01140148
:10394000BC015B0055032B035F00E60055035503E4
:10395000330155035F00079B43F0200307939AF858
:10396000008094E7099D0B98294601F0D7FC0028B8
:1039700041F05183AB8903F01A020A2A7FF440AF69
:103980000999B1F90E20002AFFF63AAF4A6ED60720
:1039900002D49D0541F14E8123464A4609990B9870
:1039A00001F078FC0A900A9855B0BDE8F08FA71B8B
:1039B0003FF460AF4AE728AA09990B9805F0DCFFAD
:1039C00080B90DF1AC0B4EE728AA09990B9805F0C8
:1039D000D3FF002800F0E8810E9B1BB119460B981D
:1039E00002F058FE099B5A6E9B89D40706D55906EA
:1039F00001F11D830A9855B0BDE8F08F9805F6D403
:103A0000099CA06D03F028FAA389F0E7079B43F017
:103A100010030793079B980640F1D7850D9C073448
:103A200024F007031946F1E8022314461D460D91C0
:103A3000002A73F10003C0F23F86B9F1FF3F00F0A6
:103A4000D284079B23F0800754EA050340F0CC841E
:103A5000B9F1000F40F0CD8407974FF0000954AE44
:103A60004F46E8E2079B43F010030793079FB80611
:103A700040F1BD850D9C073424F00703F3E80245AF
:103A80000D93012300228DF88320B9F1FF3F00F050
:103A90006A8227F08002079254EA050240F06282AF
:103AA000B9F1000F40F09287002BD6D117F0010733
:103AB00000F0E58530230DF24F168DF84F31BAE254
:103AC000079B43F010030793079B9E0640F16C850C
:103AD0000D9C073424F00703F3E802450D93079B80
:103AE00023F480670023CDE70022A8F130031AF801
:103AF000018B02EB820203EB4202A8F13003092B97
:103B0000F5D90C92C5E6AE4B1893079B9D061ED5C2
:103B10000D9C073424F00703F3E802450D93079A40
:103B2000D1070AD554EA050307D0302342F0020238
:103B30008DF8858007928DF88430079A022322F44D
:103B400080679FE79F4B1893079B9D06E0D40799DA
:103B50000D9ACC0602F1040300F19985079A5006EC
:103B600040F18F850D9A002514880D93D7E79AF8B8
:103B70000080079B43F00403079388E6524612F83F
:103B8000018BB8F12A0F01F05F83A8F13003092BF4
:103B900092464FF000093FF67CAE1AF8018B09EB14
:103BA000890903EB4909A8F13003092BF5D970E61F
:103BB000079B9AF8008043F08003079367E60D9A0D
:103BC00052F8043B0D92079A900600F15986079A25
:103BD000D10600F10087079A520600F14E87079A36
:103BE000970540F1F88656460A9A1A703378002BEA
:103BF0007FF41CAE2A9B002B40F05D8700232993A5
:103C0000F0E69AF80080079BB8F16C0F00F084860C
:103C100043F0100307933AE647F630030D9C0799EB
:103C200054F8042BADF88430654B0D94189341F093
:103C300002071446002502234FF0780822E78DF88A
:103C400083709AF8008022E60D9B9AF8008053F862
:103C5000042B002A0C920D93BFF619AE53420C931D
:103C600087E70B9D284603F0E9F8436818461B9345
:103C7000FFF7F0FA1D900446284603F0DFF883684A
:103C800020211C93002C3FF46AAE1C9B9AF8008004
:103C9000002B3FF4FCAD1B78002B3FF4F8AD079BE5
:103CA00043F480630793F2E5079B9AF8008043F0A2
:103CB00001030793EBE5079B9AF8008043F00803A4
:103CC0000793E4E5002301271A460D9C089754F852
:103CD000041B8DF883308DF8EC100D949146CDE9DE
:103CE00012220E9211923BAE079B13F002030F9328
:103CF00002D0089B02330893079B2A9C13F084038D
:103D0000109304D10C9B08995D1A002D5CDC72B1F4
:103D10000120299A044402440DF18301072ACDE9C8
:103D20002924CBE9001000F3FC820BF1080B0F9B58
:103D30006BB10221299B0C44013321AA072BCDE949
:103D40002934CBE9002100F3F8820BF1080B109B1A
:103D5000802B00F0E381A9EB0705002D00F3218201
:103D6000079BDB0500F17481299B3C440133072B41
:103D70002A94CBE90067299300F3C7820BF1080B63
:103D8000079B5D0705D50C9B089A9D1A002D00F333
:103D9000E0820A9B0C9A08998A42ACBF9B185B1878
:103DA0000A93002C7FF410AE002329930E9B1BB1C5
:103DB0000E990B9802F06EFC0DF1AC0B564615E710
:103DC000BCB20008A8B20008102D299A29DD594676
:103DD0002046B34610231E970B9C099E04E0103D1D
:103DE000102D01F1080118DD0132C64F1030072AED
:103DF000CDE92920C1E90073F1DD28AA314620462A
:103E000005F0BAFD00287FF4E7ADDDE92920103D7B
:103E1000102D2BA94FF01003E6DC5E4604468B46BE
:103E20001E9F0132B74B2C44072ACDE92924CBE948
:103E3000003500F3A5850BF1080B9DF8832066E79C
:103E40000D9C073424F00703F3E8021214460D9387
:103E50000B46CDE9143422F000440D4608464FF0DD
:103E6000FF322146A84B06F0C9FE002840F04484EA
:103E7000284621464FF0FF32A34B06F0A1FE002852
:103E800040F03A84DDE914010022002306F08EFEA2
:103E9000002840F002879DF88320032700219B4ED5
:103EA0009B4B08970E918946B8F1470FC8BF1E4635
:103EB0000798CDE9121120F0800007901191002A97
:103EC0003FF412AF089B013308930DE79DF8833050
:103ED0009AF80080002B7FF4DAAC8DF88310D6E4DA
:103EE0009AF80080079BB8F1680F00F0FF8443F058
:103EF00040030793CBE400250D9C8DF8835054F8C4
:103F0000046B002E00F01185B9F1FF3F00F06885C9
:103F10004A462946304603F0D5FA0E90002801F0B3
:103F20001280A9460E9B9F1B27EAE7730D94089306
:103F3000CDF83890CDF84490CDE912999DF88320C2
:103F4000BDE70B9802F01CFB38E4B8F1000F3FF41A
:103F500051AE002301271A4608978DF8EC808DF8A2
:103F60008330BBE6079F012B00F03E82022B00F05E
:103F7000298254A900E03146E20842EA4572E80885
:103F800004F0070305461446303354EA050201F8ED
:103F9000013C01F1FF36EED1FA0749D5302B47D06D
:103FA0003023023906F8013C54AB07970E465F1ADE
:103FB00041E0002207F48063CDE907B8CDF83890DE
:103FC00054AEB9469346DDF870801F460BE00A22D6
:103FD00000232046294606F09FFE002D08BF0A2C2C
:103FE0001BD304460D460A2200232046294606F02C
:103FF00093FE303206F8012C0BF1010B013E002F2D
:10400000E5D098F800309B45E1D1BBF1FF0FDED041
:10401000002D08BF0A2C80F04787CDF858B04F46D6
:10402000CDF87080DDF81CB0DDF83890DDF8208028
:1040300054AB07979F1B0023B9450E931193CDE90D
:1040400012334B46B8BF3B469DF88320089336E7B2
:10405000B8F1650F40F3E080DDE914010022002390
:1040600006F09AFD002800F0D1810121299B294A00
:104070000B440C44072B2A942993CBE9002100F32D
:104080008E840BF1080B229B169A2A9C934280F295
:10409000C982299B179A013319991444072BCBE93C
:1040A0000012CDE9293400F32A840BF1080B169B8A
:1040B0005D1E002D7FF764AE102D299A41F3BE805E
:1040C000154B10260B9FDDF82480994605E00BF177
:1040D000080B103D102D40F36E8401321034072A76
:1040E000CDE92924CBE90096F1DD28AA41463846DE
:1040F00005F042FC00287FF46FACDDE929240DF1C6
:10410000AC0BE6E7DCB20008FFFFEF7F98B20008D7
:104110009CB20008D8B20008ECB200080C9B089AC8
:104120009D1A002D7FF717AE102D299AB54B28DD6B
:1041300059460F972046B3460B9C099E1F4604E044
:10414000103D102D01F1080116DD10230132103051
:10415000072ACDE929200F604B60F1DD28AA3146FE
:10416000204605F009FC00287FF436ACDDE9292063
:10417000103D102D2BA9E8DC5E4604468B463B46DD
:104180000F9F01322C44072ACDE92924CBE90035C1
:1041900000F37E83A9EB0705002D0BF1080B7FF7D9
:1041A000DFAD102D299A40F35684964B59460F9750
:1041B0002046B3464FF010090B9C099E1F4604E0B1
:1041C000103D102D01F1080115DD01321030072AD4
:1041D000CDE92920C1E90079F2DD28AA314620463F
:1041E00005F0CAFB00287FF4F7ABDDE92920103D7C
:1041F000102D2BA9E9DC5E4604468B463B460F9FFB
:1042000001322C44072ACDE92924CBE9003500F3FB
:10421000BE810BF1080BA3E5169A299B012A04F134
:10422000010403F101050BF1080740F36F8101233D
:10423000072DCBF80060CDE92954CBF8043000F30A
:104240008683179B691C199A1C4407291091CDE994
:104250002914C7E9002300F386830837109A169DB6
:1042600002F101090023DDE914010022CDF83C90A0
:1042700007F1080B05F1FF3806F08EFC002840F02E
:1042800058810F9B01364444072B3E602A94C7F89F
:104290000480299300F31A8307F110035F469B46BD
:1042A000109A02320F921A9A24AB14447A600F9A31
:1042B0002A94072A29923B607FF762AD28AA0999C0
:1042C0000B9805F059FB00287FF486AB0DF1AC0B81
:1042D0002A9C55E5299A1799013219980C44072A06
:1042E0002A94CBE90001299200F395840BF1080B85
:1042F000002BC0F26886169B01321C44072ACDE9C8
:104300002924CBE900637FF739AD28AA09990B98D6
:1043100005F032FB00287FF45FAB2A9C0DF1AC0B5B
:104320002EE528AA09990B9805F026FB00287FF4B2
:1043300053AB0DF1AC0B2A9CF9E428AA09990B9810
:1043400005F01AFB00287FF447AB0DF1AC0B2A9C5B
:10435000FDE4102D299B21DD10260B9FDDF8248024
:1043600004E0103D102D0BF1080B17DD0133264A38
:104370001034072BCDE92934CBE90026F1DD28AA3A
:104380004146384605F0F8FA00287FF425ABDDE910
:104390002934103D102D0DF1AC0BE7DC01331A4A26
:1043A0002C44072BCDE92934CBE900257FF7F1AC6C
:1043B00028AA09990B9805F0DFFA00287FF40CABC6
:1043C0002A9CE6E4189854AE230943EA05732909A8
:1043D00004F00F020D461C46835C06F8013D54EACA
:1043E0000503F1D124E6079F002D08BF0A2CBFF476
:1043F000E0AD303407978DF84F4101270DF24F168D
:1044000019E600BFECB20008DCB20008229B002BCA
:1044100040F30E81129B169A9342A8BF1346002BBD
:104420001D460BDD299B2C440133072B2A94CBE935
:104430000065299300F31D850BF1080B129B002DDD
:10444000A8BF5B1B002B1D4600F3D182129B334497
:104450009946079B580500F12684229B169A9342A1
:1044600003DB079AD10740F1FF82299A179901329D
:1044700019980C44072A2A94CBE90001299200F3E9
:1044800029850BF1080B169AB518A5EB0905D31A67
:104490009D42A8BF1D46002D0BDD299A2C440132F8
:1044A000072A2A94CBE90095299200F36F850BF136
:1044B000080B002DB4BF1D465D1B002D7FF760ACBF
:1044C000102D299A40F3BA86894B10260B9FDDF8F0
:1044D0002480994605E00BF1080B103D102D40F3A8
:1044E0006A8201321034072ACDE92924CBE90096EB
:1044F000F1DD28AA4146384605F03EFA00287FF44F
:104500006BAADDE929240DF1AC0BE6E7079AD20787
:104510003FF58DAE0122072DCBF80060CDE929547F
:10452000CBF8042000F37E8402330F930BF1100BC1
:10453000B9E6B8F1000F7FF7B6AEB8F1100F40F34F
:1045400079866B4B4D461A4610262346DDF824B07B
:10455000DDF82C90144607E00837A8F11008B8F1F0
:10456000100F40F3A28101351033072DCDE92953F7
:10457000C7E90046F0DD28AA5946484605F0FCF98F
:1045800000287FF429AADDE929532BAFE5E728AA03
:1045900009990B9805F0F0F900287FF41DAA0DF198
:1045A000AC0B2A9CFFF7DCBB07990D9ACD0602F1F4
:1045B000040300F19180079A540640F187800D9A18
:1045C000002514880D93FFF78ABA07990D9AC9063A
:1045D00002F1040366D4079A52065DD50D9A0D9335
:1045E000B2F90040E51722462B46FFF721BA079F94
:1045F0000D9B3946C90603F1040272D4079F7E065B
:1046000040F11E820D9B00251C880D920123FFF7AF
:1046100039BA099DA86D02F01BFCB5F90C2093B2C4
:10462000FFF7D6B8079BDD073FF533ADFFF7A8BB13
:104630000120299A2F4902440444072ACDE929245C
:10464000CBE9001000F3E1830BF1080B002B7FF4A2
:1046500041AE079B169A03F0010313433FF490AB5E
:10466000299A179B013219991C44072A2A94CBE9ED
:104670000013299200F3CF820BF1080B3BE654AEF6
:10468000D9E4079A12F4007F0D9A40F0088214686A
:1046900000250D93FFF743BA079A12F4007F0D9A95
:1046A00040F0F08114680D93E51722462B46002A4E
:1046B00073F10003BFF6C1A92D2364428DF8833046
:1046C00065EB4505079F0123FFF7DFB9079A12F451
:1046D000007F0D9A40F0DE81146800250D93FFF7EE
:1046E000FEB91C680D9200250123FFF7CBB900BF6E
:1046F000ECB20008D8B20008DDE9140102460B460E
:1047000006F07CFA002840F03A85B8F1610F00F01D
:104710009E84B8F1410F00F0DF8128F02003B9F149
:10472000FF3F089300F0EC84472B04D1B9F1000F50
:1047300008BF4FF001091599079A0D1E42F48073C6
:10474000C0F28A830021149F1E910F9207930E914D
:10475000089B462B00F0CC83452B3A464FF00200D5
:104760002B4600F0798426A9CDE90009049123A8FD
:1047700022A9CDE902100B9800F0CEFE089B064658
:10478000472B40F07B850F9BDB0700F11984269FA8
:10479000BB1B1693229B1293089B472B00F04F8262
:1047A000089B462B00F0DB830899129B412903F1FB
:1047B000FF325FFA88F303BF0F33DBB20121002120
:1047C000002A8DF89030B4BF129B2B232292BCBFDD
:1047D000C3F101022D23092A8DF8913040F3BB84E7
:1047E0000DF19F042046B94D01E008461A4685FBAD
:1047F0000231D317C3EBA10303EB8301A2EB410109
:104800003031632A00F8011C00F1FF31EDDC303358
:10481000821EDBB2944201F8013C40F22B850DF17F
:10482000920201E011F8013B8C4202F8013BF9D100
:104830000DF1A1030DF192021B1A134424AA9B1A35
:104840001A93169B1A9A012B03EB020740F3DC84A0
:10485000179B1F4400220F9BCDE9122223F4806393
:1048600043F48073079327EAE773119208931E9B22
:10487000002B40F00B8299469DF88320FFF71FBB69
:104880000A9A56461046D117C3E90001FFF7AEB9A0
:1048900028AA09990B9805F06FF800287FF49CA8C6
:1048A0000DF1AC0B2A9CFFF756BA22461C46134664
:1048B0002A4601320F9207F10802C7E900380F9B20
:1048C0004444072B2A94299340F3C88028AA0999C5
:1048D0000B9805F051F800287FF47EA8DDE9293413
:1048E00001330F930DF1B40B2BAFDCE443F40073F1
:1048F0009AF8018007930AF1010AFEF7C8BF28AAB7
:1049000009990B9805F038F800287FF465A80DF197
:10491000AC0B2A9CFFF7CBBB43F020039AF8018035
:1049200007930AF1010AFEF7B2BF4F46062F28BFD0
:104930000627B1461196CDE912660E9632460897C3
:104940000D94634EFFF7BBBA3446FEF793BF28AA17
:1049500009990B9805F010F800287FF43DA8DDE9CF
:1049600029542BAF6DE428AA09990B9805F004F897
:1049700000287FF431A8DDE929342BAF10936DE4D2
:1049800028AA09990B9804F0F7FF00287FF424A8BF
:104990000DF1AC0B9DF883202A9CFFF7B8B928AA2B
:1049A00009990B9804F0E8FF00287FF415A80DF191
:1049B000AC0BFFF768BB4B4601322C44072ACDE90C
:1049C0002924CBE900357FF7D9A99EE4012B079F65
:1049D0007FF4CCAA0DE50A9A56461A60FFF706B98D
:1049E0003046FEF737FCA9460746FFF79DBA102B65
:1049F000299A40F33484374B10271946DDF82C8070
:104A00002346DDF824900C4605E00BF1080B103D21
:104A1000102D40F3EA8101321033072ACDE9292312
:104A2000CBE90047F1DD28AA4946404604F0A4FF3F
:104A300000287EF4D1AFDDE929230DF1AC0BE6E7C8
:104A4000079F0D9B17F4007F2ED01C7800250123B3
:104A50000D92FFF717B81F4BFFF7D2BB01330F932F
:104A600002F1080B17461EE4169AB518A5EB0905C6
:104A7000D31A9D42A8BF1D461BE50A9A56461A80C6
:104A8000FFF7B4B892F900400D93E51722462B4684
:104A9000FEF7CEBF147800250D93FFF720B81478E9
:104AA00000250D93FFF73BB81C68079F0D9200256A
:104AB0000123FEF7E7BF0B9828AA099904F05CFFD1
:104AC00000283FF49BA8FEF78DBF00BF67666666AF
:104AD000D0B20008ECB2000830238DF8843058239F
:104AE0008DF88530079BB9F1630F43F002030F93F4
:104AF00000F3A28200233BAE0E93079B43F4817325
:104B0000079328F020030893159B1D1EC0F2A9816E
:104B10000023149F1E93B8F1610F00F04383B8F196
:104B2000410F7FF415AE294622AA384603F044FA15
:104B300000224FF07F5305F0C7FD002200230446FA
:104B40000D4606F029F808B101232293BE4B1093BD
:104B500009F1FF33CDE911ABCDF858901F96B1465E
:104B6000CDF84C80DDF840A01E4605E00022002371
:104B700006F012F8F8B9B9460022B44B204629468F
:104B800005F0A2FD0D46044606F04EF8804605F0FD
:104B900031FD4F460B4602462946204605F0DCFB18
:104BA0001AF80830B34607F8013B731C04460D465B
:104BB00006F1FF36DAD10022A54B20462946DDF862
:104BC00044A01F9ECDF844B0DDF848B0CDF8488031
:104BD000DDF84C80CDF84C90DDF8589006F004F8E4
:104BE000002840F04982204629460022984B05F0D3
:104BF000D3FF18B1129BD90700F13E82119B002B05
:104C0000FFF6C6AD3022119B01333B4407F8012B60
:104C1000BB42FBD1BCE528AA09990B9804F0ACFE75
:104C200000287EF4D9AEDDE929240DF1AC0B229BDE
:104C3000FFF75EBB886D02F00FF9FEF7ADBE129B69
:104C4000DA1C01DB4B4505DDA8F1020828F0200342
:104C50000893A9E5129B16998B42C0F2A7810F9A7F
:104C6000D50740F18782179A9F180F9B5C0540F18A
:104C70008382129B002B00F347824FF0670827EADC
:104C8000E7730893002311931393F0E52D224FF05F
:104C900000098DF88320FFF715B92D231A468DF8EA
:104CA0008330FFF7FAB8169B5A46F3180F93139BFD
:104CB000CDF840A01296674F4E46DDF87080214631
:104CC000DDF82CA0DDF824B0DDF87490002B31D095
:104CD000119B002B6DD1139B08F1FF38013B1393FF
:104CE000299B1B9801334944072B2A91C2E90009EB
:104CF000299362DC08320F9898F80030851B9D429A
:104D0000A8BF1D46002D0BDD299B29440133072B2D
:104D10002A91C2E9006529935ADC98F800300832DC
:104D2000002DB4BF1D465D1B002D15DC1E44139BDA
:104D3000002BCDD1119B002B3BD1B146169B129E6F
:104D40009346F3189945DDF840A0CDF870800C46E5
:104D500028BF9946FFF781BB102D29981CDD102430
:104D600004E0103D102D02F1080215DD0130103174
:104D70000728CDE92901C2E90074F2DD28AA5946C5
:104D8000504604F0F9FD00287EF426AEDDE9290145
:104D9000103D102D2BAAE9DC013029440728CDE96C
:104DA0002901C2E9007571DC98F8003008321E4410
:104DB000BDE7119B013B119392E728AA5946504643
:104DC00004F0DAFD00287EF407AE2BAA2A9992E7B8
:104DD00028AA5946504604F0CFFD00287EF4FCADC9
:104DE0002BAA98F800302A999AE721461C460B46D0
:104DF00001322C44072ACDE92924CBE9003500F300
:104E000072810BF1080BFFF721BB28AA09990B98B7
:104E100004F0B2FD00287EF4DFAD0DF1AC0B229B57
:104E20002A9C13E428AA09990B9804F0A5FD0028F0
:104E30007EF4D2ADDDE9293401332BAF0F930DF1B0
:104E4000B40BFFF730BA00BFA8B200080000304032
:104E50000000E03FECB20008079A07930F9200228F
:104E60000E92DDE914341F462D2304F100451E93F4
:104E700051E628AA09990B9804F07EFD00287EF4DB
:104E8000ABAD0DF1AC0B2A9CFFF7D8BA28AA594656
:104E9000504604F071FD00287EF49EAD98F8003075
:104EA0002BAA2A991E4442E71D9B1B99F61A1A4603
:104EB000304603F0CBFA98F801300BB108F1010845
:104EC0000A2200232046294605F026FF4FF0000B5A
:104ED000FFF787B828AA09990B9804F04DFD002820
:104EE0007EF47AAD0DF1AC0B229B2A9CFFF7CBBA76
:104EF000032026A9CDE90009049123A822A92B4665
:104F0000CDE902103A460B9800F006FB03780646FE
:104F1000302B00F06C81229B4B44F4183846294614
:104F20000022002305F038FE08B1274630E4269F12
:104F3000A742BFF42DAC30227B1C26933A70269FEB
:104F4000BC42F9D824E44F46CDF820900D94814618
:104F50001190CDE912009DF88320FEF7B0BF0F9BA2
:104F6000129A03F00103002A43EA090340F3528135
:104F7000002B40F02D814FF06608129F0F9B5A05C1
:104F800000F1C48027EAE77308937BE628AA099911
:104F90000B9804F0F1FC00287EF41EAD229B169ABB
:104FA0000DF1AC0B2A9CD31AFFF783BADDE9163258
:104FB0009F18129B002B40F311814FF06708DDE72B
:104FC00006EB0904AAE75D42103380F24A81AD4B3B
:104FD00010271946DDF82C802346DDF824900C4676
:104FE00004E00BF1080B103D102D62DD013210338F
:104FF000072ACDE92923CBE90047F2DD28AA494653
:10500000404604F0B9FC00287EF4E6ACDDE9292333
:105010000DF1AC0BE7E7099B5B6EDB0707D4099B3F
:105020009B899F0503D4099B986D01F015FF4FF0F4
:10503000FF330A93FEF7DEBC09F101010B9801F082
:1050400095FF0646002800F00E810E9055E53023AE
:105050008DF88430782343E526A909F101040090F6
:10506000049123A822A90194CDE902100B9800F025
:1050700053FA0646344451E7139B2693109B17F8C6
:10508000012CD97B3B468A4209D1302003F8010C20
:10509000269B5A1E269213F8012C9142F6D0392AEB
:1050A0000BBF109A0132927AD2B203F8012CFFF7AB
:1050B0006FBB21461C460B4601322C44072ACDE922
:1050C0002924CBE900357FF7D7AA28AA09990B989C
:1050D00004F052FC00287EF47FACDDE929240DF1B8
:1050E000AC0BFFF708B928AA09990B9804F044FC07
:1050F00000287EF471AC0DF1AC0B2A9CFFF7A6B929
:105100004FF00609FFF717BB4FF0670800231C9804
:1051100011931393129A0378FF2B0BD0934209DA61
:105120004178D21A99B1139B0130013313930B4686
:10513000FF2BF3D11292139B119A1C9013441D9ACA
:1051400002FB037727EAE7730893FFF790BB1199F7
:1051500001311191E0E7002973D130238DF89230AD
:105160000DF19303303203F8012B24AA9B1A1A93F2
:10517000FFF767BB129F78E54FF0670802E7159BC2
:105180000327002BB8BF2D234FF00001BABF1A46EA
:105190008DF883309DF8832008970E913A4E3B4B53
:1051A000FEF781BE294622AA384602F005FF0022FA
:1051B0004FF07F5305F088FA0022002304460D4685
:1051C00005F0EAFC08B101232293314B1093BFE4B0
:1051D000179B4FF06608D7184F44CFE6C3F1010381
:1051E0001F4427EAE77308934FF067084AE53846FB
:1051F00029460022002305F0CFFC00287FF48BAE67
:10520000C9F10103229387E60F9BDB077FF522ABF1
:10521000FFF71EBB2BB901234FF0660808931F460A
:1052200030E5179B4FF066085F1C4F4427EAE77391
:10523000089327E55A46134BFFF73FBB114BFFF787
:10524000BBBB0DF192038DE70D9B9AF8018053F8DB
:10525000040B924640EAE0790D93FEF718BB094B28
:10526000C6E5084B28E7099A938943F040039381E8
:10527000FEF7B8BB02231A93FFF7E3BA4C46344457
:105280004CE600BFECB20008A0B20008A4B20008CF
:10529000BCB200082DE9F0410C464FF0000C4FF471
:1052A0008065064617469846626EE3898989ADF5A2
:1052B0008D6D21F002011992ADF80E30E269636A3A
:1052C000ADF80C1016A81AA9CDF818C007920993CA
:1052D000009104910295059501F0B4FD43463A46CC
:1052E00069463046FEF754FA051E07DB304669462C
:1052F00001F0EAF8002818BF4FF0FF35BDF80C3078
:105300005B0603D5A38943F04003A381169801F0FF
:105310009BFD28460DF58D6DBDE8F08138B5314B0C
:10532000054618680C4608B1836B0BB3B4F90C2022
:1053300093B2180723D5206960B313F0010207D098
:1053400000226369A2605B42A36138B1002038BDCE
:10535000990758BF6269A2600028F7D1B4F90C30F0
:105360001A06F4D543F04003A3814FF0FF3038BD57
:1053700001F006F9B4F90C2093B21807DBD4D90672
:1053800028D5580712D4206942F00803A3819BB2A4
:105390000028D2D103F42072B2F5007FCDD0284688
:1053A000214601F089FDA3892069C6E7216B51B12F
:1053B00004F14003994204D0284601F06BF9B4F996
:1053C0000C20002323630023206922F02402C4E977
:1053D0000003D9E7092342F040022B604FF0FF3071
:1053E000A28138BD180000202DE9F04F03690E6935
:1053F00083B0B342C0F28980013E01F1140500F18F
:10540000140955F8263059F8262001338246B00099
:10541000009005EB00089A424844B2FBF3F7019074
:105420003CD30022AE461446CC465EF8043BDCF882
:1054300000001FFA83FB07FB0B221B0C4FEA124BE9
:1054400007FB03BB93B2E31A82B21FFA8BF4134437
:10545000C4EB104404EB23449BB243EA0443F045FD
:105460004CF8043B4FEA24444FEA1B42DDD2009B38
:1054700059F8033093B9019A131F99450CD252F889
:10548000043C4BB9A2F1080302E01A68043B1AB9C4
:10549000994506F1FF36F8D3CAF81060504602F07D
:1054A000DBFA00282DDB48460023013755F8041BA2
:1054B00004688AB29A1A0B0CA1B20A44C3EB1443D3
:1054C00003EB224392B242EA0342A84540F8042B80
:1054D0004FEA2343EAD259F8262009EB860382B922
:1054E0001A1F91450BD253F8042C42B9083B02E035
:1054F0001A68043B1AB9994506F1FF36F8D3CAF881
:105500001060384603B0BDE8F08F002003B0BDE85E
:10551000F08F00BF000000002DE9F04F1F46164637
:10552000036C97B00446CDE902674BB10122456C8C
:105530001946AA40C3E9015202F0A2F800232364ED
:105540003E1EB4BF01230023239AB8BF26F00046B5
:105550001360754BB8BF0396B34300F0AF80DDE92D
:1055600002231046194600220023CDE9080105F068
:1055700013FB074678B10123229A1360249B002B6A
:1055800000F03983694B249A1360013B049304981B
:1055900017B0BDE8F08F14AA15ABCDE90032DDE9F4
:1055A0000889204642464B4602F0F2FA350D834602
:1055B00040F09A80DDE91485454405F23243202B02
:1055C00040F3E983C3F140039E40029B05F2124081
:1055D00023FA00F0304304F0FDFF02460120013DB4
:1055E0000D90A1F1F873104619460022504B04F0BB
:1055F000B3FE47A3D3E9002305F066F846A3D3E939
:10560000002304F0ABFE064628460F4604F0F2FFE6
:1056100043A3D3E9002305F057F802460B46304672
:10562000394604F09BFE06460F4605F0FDFA0022BF
:10563000824600233046394605F0B8FA002840F08B
:10564000CD82A8EB05056B1EBAF1160F059300F28B
:10565000BA82DDE90801374B03EBCA03D3E9002323
:1056600005F0A4FA00286BD000230C93059B0AF1E7
:10567000FF3A002BC0F2AD824FF00009BAF1000FE3
:1056800064DACAF100030B93209BA9EB0A09092BEA
:10569000CDF818A04FF0000A61D8052B40F37983AC
:1056A0000025043B2093209B023B032B00F25286F3
:1056B000DFE813F0A504A2047A04950442F20F7304
:1056C000229AC6F313061360029B334319D1249B1D
:1056D000002B00F03686184B04930833249A049864
:1056E000136017B0BDE8F08FC9F3130141F07F5389
:1056F0004246A5F2FF350D9743F44013DDF8508084
:1057000071E7249B002B40F033840C4B04933EE75D
:1057100061436F63A787D23FB3C8608B288AC63FB7
:10572000FB799F501344D33F0000F07FD9B20008AB
:105730000000F83F38B3000800B30008FCB20008CE
:10574000059B0C90002BC0F244828146059B53447C
:10575000CDE9053A00230B93209B092B9DD900230B
:105760004FF0FF360125209307960A9521930021DB
:1057700010966164204601F05DFF0E2E04902064B7
:1057800000F23481002D00F031810699002940F3A8
:105790007F84AA4B01F00F0203EBC2030D11D3E982
:1057A0000023CDE90E23EA0640F14884DDE9080133
:1057B000A34B0327D3E9082305F0B0F8CDE9020194
:1057C00005F00F057DB1DDE90E019D4EEB0704D517
:1057D000D6E9002304F078FF01376D1006F10806C2
:1057E000F4D1CDE90E01DDE90201DDE90E2305F07A
:1057F00095F8CDE902010C9B43B1DDE902010022DD
:10580000904B05F0D3F9002840F02A85384604F083
:10581000F1FEDDE9022304F057FF8B4B002204F078
:105820009DFDA1F15073CDE90E010F93079B002B55
:1058300000F0BC80069B1293079B1193DDE9026781
:105840003946304605F0F0F9054604F0D3FE02462D
:105850000B463046394604F07FFD119A774B0646D9
:1058600003EBC2030F46DDE90E120A98CDE90212DE
:1058700053E90223049930355FFA85F84D1C00285E
:1058800000F080840020714905F048F8DDE902232A
:1058900004F062FD049B324683F800803B46CDE96C
:1058A000020105F0A1F9002840F0BB8432463B46D6
:1058B0000020644904F050FD02460B46DDE9020178
:1058C00005F092F9002840F03885119B012B00F07B
:1058D0008980049ACDF844901344CDF84CA0CDF8BB
:1058E00038B09946DDE902ABA0460FE032463B46B0
:1058F0000020544904F030FD52465B4605F056F94D
:10590000002840F0F284A94500F0F884504659463A
:1059100000224F4B04F0D8FE00224D4B82468B46AE
:105920003046394604F0D0FE0F46064605F07CF9B5
:10593000044604F05FFE02460B463046394604F04A
:105940000BFD3034E4B205F8014B52465B46064687
:105950000F4605F02BF90028C8D04446129BDDF80D
:1059600038B0013306935946204601F089FE0023E2
:105970002B70229B1A46069B1360249B002B3FF43E
:1059800006AE04981D6017B0BDE8F08F384604F0ED
:1059900031FEDDE9022304F097FE2B4B002204F0D8
:1059A000DDFCA1F15073CDE90E010F930022DDE97A
:1059B0000201284B04F0D0FCDDE90E783A4643465C
:1059C00005460E4605F010F90746002840F0CB8347
:1059D000DDE90E01024601F100432846314605F09B
:1059E000E5F830BBDDE90823CDE90223159B002B48
:1059F000C0F2C780069A0E2A00F3C3800F4B03EB58
:105A0000C203D3E9009A219B002B25DA079F002FC0
:105A100022DC40F05A8400220E4B4846514604F0E6
:105A200053FEDDE9022305F0D5F8002800F09C8341
:105A3000079F3E46219B049DDB436DE238B300087F
:105A400010B300080000F03F00001C400000E03FE1
:105A50000000244000001440DDE902674A46534636
:105A60003046394604F05AFF05F0DEF8804604F06F
:105A7000C1FD4A46534604F027FE024630464646DC
:105A80000B46394604F068FC049D3036069F05F845
:105A9000016B079E0137012E02460B46069744D044
:105AA0000022CA4B04F010FE0022002306460F46D7
:105AB00005F072F800287FF456AFCDF808B04FF02B
:105AC0000108DDF81CB005940CE00022BF4B04F087
:105AD000FBFD0022002306460F4605F05DF8002876
