:020000040800F2
:1000000000000120253D0008390600083B060008D5
:100010003D0600083F0600084106000800000000F9
:10002000000000000000000000000000430600087F
:1000300045060008000000004706000849060008C1
:100040006D3D00086D3D00086D3D00086D3D0008E8
:100050006D3D00086D3D00086D3D00086D3D0008D8
:100060006D3D00086D3D00086D3D00086D3D0008C8
:100070006D3D00086D3D00086D3D00086D3D0008B8
:100080006D3D00086D3D00086D3D00086D3D0008A8
:10009000550600086D3D00086D3D00086D3D0008E7
:1000A0006D3D00086D3D00086D3D00086D3D000888
:1000B0006D3D00086D3D00086D3D00086D3D000878
:1000C0006D3D00086D3D00086D3D00086D3D000868
:1000D0006D3D00086D3D00086D3D00086D3D000858
:1000E0006D3D00086D3D00086D3D00086D3D000848
:1000F0006D3D00086D3D00086D3D00086D3D000838
:100100006D3D00086D3D00086D3D00086D3D000827
:100110006D3D00086D3D00086D3D00086D3D000817
:100120006D3D00086D3D00086D3D00086D3D000807
:1001300000000000000000000000000000000000BF
:1001400000000000000000000000000000000000AF
:10015000000000000000000000000000000000009F
:10016000000000000000000000000000000000008F
:10017000000000000000000000000000000000007F
:10018000000000000000000000000000000000006F
:10019000000000000000000000000000000000005F
:1001A000000000000000000000000000000000004F
:1001B000000000000000000000000000000000003F
:1001C000000000000000000000000000000000002F
:1001D000000000000000000000000000000000001F
:0401E0005FF8E0F1F3
:1001E40010B5054C237833B9044B13B10448AFF36D
:1001F40000800123237010BD0C00002000000000CB
:10020400C83D000808B5034B1BB103490348AFF3CD
:10021400008008BD0000000010000020C83D000858
:1002240070B586B0164B9A6942F020029A619A69B9
:1002340002F020020092009A9A6942F004029A6144
:100244009B6903F004030193019B4FF4004502955D
:10025400012303930026049602230593094C02A963
:10026400204601F09DFD32462946204601F096FEC7
:10027400054A536823F0E063536006B070BD00BFC5
:1002840000100240000801400000014070B586B033
:100294002839262915D8DFE801F0163478391414E2
:1002A400141414141414141414141414141414140A
:1002B40014143C4B141414141414141478691414E2
:1002C4005A00002062E0324B9A6942F004029A61BB
:1002D4009B6903F004030193019BB8260296012451
:1002E400039400230493032305932A4D02A928466B
:1002F40001F056FD22463146284601F04FFE2046C5
:1003040044E0104601F0AEF901203FE000BF0120B7
:100314003CE032B1012220211E4801F03FFE0120C1
:1003240034E0002220211B4801F038FE01202DE09A
:1003340032B101228021174801F030FE012025E06E
:1003440000228021134801F029FE01201EE032B171
:10035400012210210F4801F021FE012016E00022A5
:1003640010210C4801F01AFE01200FE032B10122E5
:100374000821084801F012FE012007E000220821AC
:10038400044801F00BFE012000E0012006B070BD1E
:100394000010024000080140FEE7000000B597B0DD
:1003A40001220C924FF480330D9300210E91109290
:1003B4000222139214934FF4E01315930CA801F046
:1003C4007BF948BB0F23079302210891002309936B
:1003D4004FF480620A920B9307A801F095FBF8B9D9
:1003E400102301930023069301A801F04FFCD8B910
:1003F40001F046FC0E4BA3FB0030800901F018FE0F
:10040400042001F02BFE002211464FF0FF3001F0D2
:10041400DDFD17B05DF804FB5D210648FFF7BCFF66
:100424006B210448FFF7B8FF72210248FFF7B4FFBD
:10043400D34D6210F43D000800B583B001F0EEF82E
:10044400FFF7ACFFFFF7ECFE1A4C1B4B1B4A1C4991
:10045400204602F0B1FA204603F0FFFB00212046BB
:1004640003F002FC4FF47A7001F0FCF8114C2046C2
:1004740002F053FA0121204602F02BFD0021204610
:1004840002F0EAFD0F49204602F0D0FD204602F0BA
:10049400C0FD0D4B00930D4B0D4A0E49204602F052
:1004A4004CFF204602F046FA4FF47A7001F0DAF875
:1004B400DCE700BF28000020910200084137000853
:1004C400383E00087C3E0008183E0008003E000844
:1004D400083E0008103E000808B500F22C41D0F890
:1004E4005C0401F00BFE08BD08B500EB4113D3F822
:1004F4003C22D0F85C0401F02EFE08BD08B500EBE8
:100504004113DA6BD0F85C0401F05AFE08BD08B55B
:10051400D0F85C0401F0DEFE08BD10B504460121EC
:10052400D0F85C0401F0C4FED4F85C0401F0A1FE30
:1005340010BD000010B50446D0F85C0401F0BBFE09
:10054400A36923B1024A136943F00603136110BD82
:1005540000ED00E008B5D0F85C0401F0B5FE08BD7C
:1005640010B51C4613462246D0F8200200F0DCF8F1
:1005740018B1022803D0022010BD002010BD0120B4
:1005840010BD08B5D0F8200200F01DFC18B10228F7
:1005940003D0022008BD002008BD012008BD08B515
:1005A400D0F8200200F03DFC18B1022803D002204C
:1005B40008BD002008BD012008BDD0F8202211F09C
:1005C400800F06D101F07F0102EB411191F82A025C
:1005D400704701F07F0302EB431191F82A00704742
:1005E40008B5D0F8200200F08BF818B1022803D027
:1005F400022008BD002008BD012008BD08B5D0F8C0
:10060400200200F0D9F818B1022803D0022008BD56
:10061400002008BD012008BD08B5D0F8200200F074
:10062400ACF818B1022803D0022008BD002008BD90
:10063400012008BD7047FEE7FEE7FEE7FEE77047CE
:100644007047704708B500F0FBFF01F018FD08BDC6
:1006540008B5024800F005FB08BD00BFBC0400203B
:1006640000B583B0244B9A6942F001029A619A69F9
:1006740002F001020092009ADA6942F08052DA61D3
:10068400DB6903F080530193019B032001F08CFC90
:10069400002211466FF00B0001F098FC0022114675
:1006A4006FF00A0001F092FC002211466FF009007D
:1006B40001F08CFC002211466FF0040001F086FC6E
:1006C400002211466FF0030001F080FC0022114665
:1006D4006FF0010001F07AFC002211464FF0FF3068
:1006E40001F074FC054A536823F0E06343F080632F
:1006F400536003B05DF804FB0010024000000140A9
:1007040090F82834012B01D10220704710B504461B
:10071400012380F8283480F82410006800F0C1FD1B
:10072400002084F8280410BD38B54DB2002D12DB2A
:1007340001F07F04640104F50A74044401F07F01AC
:100744002170ED0F65702261E37090F82834012B5D
:1007540007D1022038BD01F07F0464012834044429
:10076400ECE70546012380F828342146006800F0B0
:100774007FFB002085F8280438BD70B501F07F05A3
:100784006C0104F50A7101440444C4F83C2205F1E7
:1007940012025201861883500023736084F82932B0
:1007A40084F8285225B1006800F09CFD002070BD3B
:1007B400006800F097FDF9E770B501F07F056C0162
:1007C40004F1280101440444E263AA1C520186187E
:1007D400835000237360012384F8293084F828505F
:1007E40025B1006800F07EFD002070BD006800F0B7
:1007F40079FDF9E770B582B005460023ADF80630FF
:10080400ADF8043095E103889BB223F4E14323F06F
:1008140070039BB203802A68B2F850309BB295F8FB
:10082400281003EBC103023302EB4303D3F8003473
:10083400C3F309036B64EA6B1344EB63002128469A
:10084400FFF75CFE95F82430002B00F072812B6CCE
:10085400002B40F06E812A6895F8243043F0800321
:10086400A2F84C30002385F8243062E1B0F850300F
:100874009BB295F8282203EBC203063300EB430333
:10088400D3F80034C3F30903C5F84432B5F82C2275
:1008940005F22C4100F08CFE2A68138823F07003C3
:1008A4001B051B0D13802846FFF716FE41E1B5F822
:1008B4002C22D5F83C1200F07BFED5F84422D5F862
:1008C4003C321344C5F83C3272E1C1F34F0211F0DB
:1008D400010F01D0013292B2920292B2C3F8002405
:1008E40084E130F824309BB2ADF80430BDF8043014
:1008F40013F4004F36D1BDF8043013F0800F00F02C
:1009040018812A6832F824309BB223F4E14323F09F
:1009140070039BB222F8243005EB441393F8323071
:10092400002B40F0B6802868B0F850309BB205EB3D
:10093400441292F8282003EBC203023300EB430372
:10094400D3F80034C3F30903A21C05EB421253602D
:10095400002B00F0CD8005EB44118A8DC96B00F0AB
:10096400ACFCC5E030F8243023F070031B051B0DEC
:1009740020F8243005EB441393F83232DBB92868AD
:10098400B0F850309BB205EB441292F8282203EBE6
:10099400C203063300EB4303B3F80064C6F309064D
:1009A4008EB305EB44113346B1F82C22D1F83C1236
:1009B40000F0FEFD27E0286805EB441393F8282295
:1009C40030F8223013F4804F43D0B0F850309BB24B
:1009D40003EBC203023300EB4303B3F80064C6F332
:1009E400090666BB2A6805EB441393F8281232F80B
:1009F400213023F0F0031B051B0D43F4004343F0A7
:100A0400C00322F8213004F112035B01E9184A689B
:100A140032444A6005EB4411D1F83C223244C1F817
:100A24003C22EB581BB1D1F838128E4229D205EB87
:100A3400441393F828122846FFF756FD5BE705EBAD
:100A440044113346B1F82E22D1F83C1200F0B0FD27
:100A5400C8E7B0F850309BB203EBC203063300EB97
:100A64004303B3F80064C6F30906002EBAD005EBBD
:100A740044113346B1F83022D1F83C1200F098FD0D
:100A8400B0E705EB441191F828122846FFF775FEEC
:100A940031E7286805EB441393F8282030F8223016
:100AA40013F0400F00F0B880B0F850309BB203EB65
:100AB400C203023300EB4303D3F80034C3F3090346
:100AC400A21C05EB42125360002B40F09E802A6862
:100AD40005EB441393F8281032F8213023F0F00387
:100AE4001B051B0D43F4404343F0800322F82130DF
:100AF4002A68B2F850309BB205EB441090F82810E5
:100B040003EBC103023302EB4303D3F80024C2F323
:100B14000902A31C5B01E9184A60C16B0A44C26361
:100B2400EB58002B40F0928090F828102846FFF7ED
:100B3400E5FC2868B0F844309BB2ADF8063013F4F5
:100B4400004F00F08B80BDF8064014F00F047FF4D2
:100B5400C8AEBDF8063013F0100F3FF454AE03884E
:100B64009BB2ADF80430BDF8043013F4006F7FF489
:100B74007DAEBDF8043013F4004FDAD0038823F0BF
:100B840070031B051B0D03802868B0F850309BB21E
:100B940095F8282203EBC203063300EB4303D3F892
:100BA4000034C3F30903C5F84432002B7FF47FAE4D
:100BB40000212846FFF798FC2A68B2F850309BB20F
:100BC400063302EB4303D5F838123E297FF67DAE97
:100BD400C1F34F1211F01F0F01D1013A92B26FEA23
:100BE400C2626FEA524292B2C3F800242A681388A0
:100BF4009BB223F4804323F0700383F4405343F403
:100C0400004343F08003138093E705EB4411CA8D3E
:100C1400C96B00F052FB5AE7B0F850309BB203EBBB
:100C2400C203063300EB4303D3F80034C3F30903D0
:100C3400A21C05EB42125360002B3FF448AF05EBB6
:100C440044110A8EC96B00F038FB40E705EB4414ED
:100C540094F828102846FFF7AFFD6AE7002002B099
:100C640070BD10B50446006800F021FB10F4004F7D
:100C740045D1206800F01BFB10F4806F43D120683D
:100C840000F015FB10F4804F08D02268B2F844300D
:100C94009BB223F480439BB2A2F84430206800F056
:100CA40006FB10F4005F08D02268B2F844309BB20F
:100CB40023F400539BB2A2F84430206800F0F7FA02
:100CC40010F4805F30D1206800F0F1FA10F4006F66
:100CD40049D1206800F0EBFA10F4007F66D1206857
:100CE40000F0E5FA10F4807F08D02268B2F84430AE
:100CF4009BB223F480739BB2A2F8443010BD20460B
:100D0400FFF778FDB5E72268B2F844309BB223F4CC
:100D140080639BB2A2F844302046FFF7FEFB00211B
:100D24002046FFF7EDFCAAE72268B2F840309BB2F8
:100D340023F004039BB2A2F840302268B2F840309A
:100D44009BB223F008039BB2A2F840302046FFF781
:100D540001FC2268B2F844309BB223F480539BB266
:100D6400A2F84430AFE72268B2F840309BB243F0B7
:100D74000803A2F840302268B2F844309BB223F44E
:100D840000639BB2A2F844302268B2F840309BB2B0
:100D940043F00403A2F84030206800F088FA10F40D
:100DA400805F96D12046FFF7C5FB92E72268B2F830
:100DB40044309BB223F400739BB2A2F84430204623
:100DC400FFF7A5FB8BE738B54AB2002A10DB4B01CD
:100DD40003F50A73034401249C7001F07F041C7022
:100DE400D20F5A7090F82824012A07D1022038BD66
:100DF40001F07F035B0128330344ECE7054601223D
:100E040080F828241946006800F0CBF91CB10020B2
:100E140085F8280438BD05F22C41286800F04BFA07
:100E2400F5E710B54AB2002A10DB4B0103F50A734B
:100E3400034400249C7001F07F011970D20F5A7092
:100E440090F82824012A07D1022010BD01F07F0365
:100E54005B0128330344ECE70446012280F828248C
:100E64001946006800F0D4F9002084F8280410BD65
:100E740010B4CB78032B0FD8DFE803F0026E556172
:100E84000A7830F822309BB223F4EC4323F0700349
:100E940043F4007320F822300A7830F8223023F02B
:100EA400F0031B051B0D134343F4004343F080037D
:100EB40020F822308B7A002B40F0B2804B78002B44
:100EC40057D0B0F850309BB20A7803EBC20300EB62
:100ED40043038A8852085200C3F800240A7830F881
:100EE400223013F0400F0BD030F8223023F0F003FF
:100EF4001B051B0D43F4004343F0C00320F82230CC
:100F04000A7830F822309BB223F4E04323F0400304
:100F140083F0200343F4004343F0800320F822309D
:100F2400002010BC70470A7830F822309BB223F4BA
:100F3400EC4323F070039BB220F82230ACE70A782C
:100F440030F822309BB223F4EC4323F0700343F4D3
:100F5400C06320F822309FE70A7830F822309BB231
:100F640023F4EC4323F0700343F4806320F822302D
:100F740092E7B0F850309BB20A7803EBC203043313
:100F840000EB43038A8852085200C3F80024B0F8E7
:100F940050309BB20A7803EBC203063300EB4303E1
:100FA4000C693E2C30D9C4F34F1214F01F0F01D139
:100FB400013A92B26FEAC2626FEA524292B2C3F845
:100FC40000240A7830F8223013F4804F0BD030F824
:100FD400223023F0F0031B051B0D43F4404343F080
:100FE400800320F822300A7830F822309BB223F4B0
:100FF400804323F0700383F4405343F4004343F0ED
:10100400800320F822308BE7C4F34F0214F0010F61
:1010140001D0013292B2920292B2C3F80024D0E716
:101024000A7830F8223023F4F8731B051B0D43F4BF
:10103400014343F0800320F82230B0F850309BB2D3
:101044000A7803EBC20300EB4303CA885208520038
:10105400C3F80024B0F850309BB20A7803EBC20303
:10106400043300EB43030A8952085200C3F80024F6
:101074004B78002B4BD10A7830F8223013F4804F90
:101084000BD030F8223023F0F0031B051B0D43F482
:10109400404343F0800320F822300A7830F82230AD
:1010A40013F0400F0BD030F8223023F0F0031B056F
:1010B4001B0D43F4004343F0C00320F822300A78A8
:1010C40030F8223023F0F0031B051B0D43F40043DA
:1010D40043F0C00320F822300A7830F822309BB263
:1010E40023F4804323F0700383F4405348F28004D4
:1010F400234320F822300A7830F822309BB223F4BC
:10110400E04323F04003234320F8223008E70A7821
:1011140030F8223013F4804F0BD030F8223023F013
:10112400F0031B051B0D43F4404343F0800320F8F8
:1011340022300A7830F8223013F0400F0BD030F808
:10114400223023F0F0031B051B0D43F4004343F04E
:10115400C00320F822300A7830F8223023F0F0035C
:101164001B051B0D43F4404343F0800320F8223059
:101174000B7830F8232092B222F4E04222F04002AD
:1011840048F28004224320F823200A7830F82230E1
:101194009BB223F4804323F07003234320F82230CE
:1011A400BEE60A788AB14B7813BB30F822309BB282
:1011B40023F4804323F0700383F4805343F4004307
:1011C40043F0800320F8223010E030F822309BB244
:1011D40023F4804323F0400383F4805383F010030B
:1011E40043F4004343F0800320F82230002070478A
:1011F40030F822309BB223F4E04323F0400383F021
:10120400100343F4004343F0800320F82230EDE759
:101214004B781BB30A7830F8223013F0400F0BD010
:1012240030F8223023F0F0031B051B0D43F4004378
:1012340043F0C00320F822300A7830F822309BB201
:1012440023F4E04323F0400383F0300343F40043EA
:1012540043F0800320F82230002070470A7830F8E9
:10126400223013F4804F0BD030F8223023F0F003F7
:101274001B051B0D43F4404343F0800320F8223048
:101284000A7830F822309BB223F4804323F07003B1
:1012940083F4405343F4004343F0800320F82230A6
:1012A400DAE711B98023A0F84C3000207047B0F879
:1012B400440080B270470020704701335B1000EB9C
:1012C400420202F5806263B110B40C78487844EAB3
:1012D400002422F8044B0231013B002BF5D110BC51
:1012E40070477047F8B58A694C78012C35D00B6982
:1012F4009A4240F2F080D21A8A618A7A002A40F037
:10130400FA80B0F8502092B20C7802EBC402063294
:1013140000EB42023E2B40F2E280C3F34F1413F081
:101324001F0F01D1013CA4B26FEAC4646FEA5444B4
:10133400A4B2C2F800440A7830F822309BB223F4F5
:10134400804323F0700383F4405343F4004343F099
:10135400800320F822300020F8BD0F69BA4226D954
:10136400D21B8A610E4605468B7A23B30B7830F87C
:10137400232012F0400F6CD0002C39D1B0F850204B
:1013840092B202EBC303063300EB43033E2F23D98F
:10139400C7F34F1217F01F0F01D1013A92B26FEA4F
:1013A400C2626FEA524292B2C3F800242AE00023D8
:1013B4008B611746D6E7BBB28A884969FFF77DFF80
:1013C400B5F850309BB2327803EBC203023305EB1D
:1013D4004303C3F800742BE0C7F34F0217F0010F67
:1013E40001D0013292B2920292B2C3F8002409E011
:1013F400B0F8502092B202EBC303023300EB430374
:10140400C3F800743289BBB271692846FFF755FFEF
:101414007378002B4FD1327835F8223023F0F00363
:101424001B051B0D43F4004343F0C00325F8223091
:10143400327835F822309BB223F4E04323F04003A2
:1014440083F0300343F4004343F0800325F8223053
:1014540081E724BBB0F8502092B202EBC3030233FD
:1014640000EB43033E2F0ED9C7F34F1217F01F0FA3
:1014740001D1013A92B26FEAC2626FEA524292B269
:10148400C3F8002415E0C7F34F0217F0010F01D091
:10149400013292B2920292B2C3F8002409E0B0F889
:1014A400502092B202EBC303023300EB4303C3F8B0
:1014B4000074F288A7E7012BBAD1327835F82230CC
:1014C40023F0F0031B051B0D43F4404343F080035A
:1014D40025F82230ACE700238B6113460DE7C3F3F4
:1014E4004F0413F0010F01D00134A4B2A402A4B23A
:1014F400C2F800441FE7C4B9B0F8502092B20C7887
:1015040002EBC402023200EB42023E2B29D9C3F3A0
:101514004F1413F01F0F01D1013CA4B26FEAC4644D
:101524006FEA5444A4B2C2F800444A788ABBB0F8C3
:10153400502092B20C7802EBC402063200EB420255
:101544003E2B1AD9C3F34F1413F01F0F01D1013CE2
:10155400A4B26FEAC4646FEA5444A4B2C2F800446B
:10156400E9E6C3F34F0413F0010F01D00134A4B230
:10157400A402A4B2C2F80044D7E7C3F34F0413F0A3
:10158400010F01D00134A4B2A402A4B2C2F80044F1
:10159400D1E6012A7FF4CFAEB0F8502092B20C7895
:1015A40002EBC402023200EB4202C2F80034C2E68B
:1015B40001335B1000EB420202F5806204E0106824
:1015C40021F8020B013B0432002BF8D170470000D4
:1015D40010B504460E4B18784FF47A73B3FBF0F34E
:1015E4000C4A1068B0FBF3F000F022FD68B90F2C30
:1015F40001D9012010BD002221464FF0FF3000F038
:10160400E5FC054B1C60002010BD012010BD00BF8F
:1016140000000020080000200400002008B5074A4C
:10162400136843F010031360032000F0BDFC002096
:10163400FFF7CEFFFFF714F8002008BD002002409A
:10164400034A1168034B1B780B441360704700BFB7
:101654001C09002000000020014B1868704700BFDF
:101664001C09002038B50446FFF7F6FF0546B4F11F
:10167400FF3F02D0044B1B781C44FFF7EDFF401BD7
:101684008442FAD838BD00BF0000002082B0084B65
:101694001B68084AA2FB03235B0A00FB03F00190CA
:1016A40000BF019B5A1E0192002BF9D102B0704772
:1016B40008000020D34D621070B582B00446036860
:1016C40013F0010F3DD0AC4B5B6803F00C03042B0B
:1016D4002ED0A94B5B6803F00C03082B23D063685E
:1016E400B3F5803F51D0002B55D103F1804303F56E
:1016F40004331A6822F480321A601A6822F48022B1
:101704001A606368002B60D0FFF7A6FF05469A4B6A
:101714001B6813F4003F14D1FFF79EFF401B64289D
:10172400F5D90320AFE1944B5B6813F4803FD6D026
:10173400914B1B6813F4003F03D06368002B00F047
:101744009F81236813F0020F65D08B4B5B6813F005
:101754000C0F4ED0884B5B6803F00C03082B43D06E
:101764002369002B79D00122844B1A60FFF774FFA0
:101774000546814B1B6813F0020F65D1FFF76CFF20
:10178400401B0228F5D903207DE17B4A136843F40A
:1017940080331360B5E7B3F5A02F09D0764B1A68F0
:1017A40022F480321A601A6822F480221A60A8E7B0
:1017B40003F18043A3F53C331A6842F480221A6093
:1017C4001A6842F480321A609BE7FFF745FF05462A
:1017D400694B1B6813F4003FB3D0FFF73DFF401B78
:1017E4006428F5D903204EE1634B5B6813F4803F12
:1017F400B6D1614B1B6813F0020F04D02369012B8F
:1018040001D001203FE15C4A136823F0F8036169C9
:1018140043EAC1031360236813F0080F32D0A369AD
:10182400002B6ED00122564B1A60FFF715FF0546B8
:10183400514B5B6A13F0020F21D1FFF70DFF401BE0
:101844000228F5D903201EE14B4A136823F0F8035C
:10185400616943EAC1031360DDE70022474B1A6064
:10186400FFF7FAFE0546444B1B6813F0020FD2D073
:10187400FFF7F2FE401B0228F5D9032003E1012003
:10188400FFF704FF236813F0040F00F099803A4B2C
:10189400DB6913F0805F46D1374BDA6942F080523E
:1018A400DA61DB6903F080530193019B0125354B19
:1018B4001B6813F4807F38D0E368012B49D0002BD8
:1018C4004DD103F1804303F504331A6A22F0010277
:1018D4001A621A6A22F004021A62E368002B5DD0CD
:1018E400FFF7BAFE0646244B1B6A13F0020F66D1BB
:1018F400FFF7B2FE801B41F288339842F3D90320EC
:10190400C1E000221E4B1A60FFF7A6FE05461A4BE3
:101914005B6A13F0020FB5D0FFF79EFE401B02284E
:10192400F5D90320AFE00025C1E7164A136843F454
:1019340080731360FFF790FE0646124B1B6813F486
:10194400807FB9D1FFF788FE801B6428F5D9032076
:1019540099E0094A136A43F001031362BDE7052BBA
:1019640012D0054B1A6A22F001021A621A6A22F096
:1019740004021A62B1E700BF0010024000004242B4
:101984008004424200700040414B1A6A42F0040253
:101994001A621A6A42F001021A629EE7FFF75CFEBD
:1019A40006463B4B1B6A13F0020F08D0FFF754FEA8
:1019B400801B41F288339842F3D9032063E0E5B9F0
:1019C400E369002B5ED0324A526802F00C02082A06
:1019D4005BD0022B17D000222E4B1A60FFF73CFE7F
:1019E40004462B4B1B6813F0007F47D0FFF734FEEF
:1019F400001B0228F5D9032045E0254AD36923F0CA
:101A04008053D361DCE70022224B1A60FFF724FEE7
:101A140005461F4B1B6813F0007F06D0FFF71CFE22
:101A2400401B0228F5D903202DE0236AB3F5803F3B
:101A34001AD017494B6823F47413226A606A02436C
:101A440013434B600122134B1A60FFF705FE044653
:101A54000F4B1B6813F0007F0ED1FFF7FDFD001B39
:101A64000228F5D903200EE0094A536823F4003311
:101A7400A1680B435360DCE7002004E0002002E08F
:101A8400012000E0002002B070BD0120FBE700BF90
:101A9400001002406000424230B486B0164D02ACE1
:101AA40028686968AA68EB680FC42B8AADF804300B
:101AB400124B5B6803F00C02082A19D1C3F383426A
:101AC40006A90A4412F8102C13F4803F03D10C48E1
:101AD40000FB02F00DE0094B5B68C3F340430B4489
:101AE40013F8143C074800FB02F0B0FBF3F000E0ED
:101AF400044806B030BC7047E03D000800100240C6
:101B040000093D0000127A00594B1B6803F00703DB
:101B14008B420CD2564A136823F007030B4313601D
:101B2400136803F00703994201D00120704770B590
:101B3400036813F0020F06D04E4A536823F0F003F3
:101B44008468234353600D460446036813F0010F71
:101B540052D04368012B23D0022B28D0454A126867
:101B640012F0020F00F0828042494A6822F0030218
:101B740013434B60FFF770FD06466368012B1DD0CD
:101B8400022B2AD03B4B5B6813F00C0F34D0FFF7C9
:101B940063FD801B41F288339842F3D9032070BD62
:101BA400344A126812F4003FDED1012070BD314A7C
:101BB400126812F0007FD7D1012070BD2D4B5B68F5
:101BC40003F00C03042B17D0FFF746FD801B41F2F2
:101BD40088339842F2D9032070BD264B5B6803F02A
:101BE4000C03082B08D0FFF737FD801B41F2883324
:101BF4009842F2D9032070BD1D4B1B6803F0070304
:101C04009D420CD21A4A136823F007032B43136036
:101C1400136803F007039D4201D0012070BD2368BF
:101C240013F0040F06D0134A536823F4E063E16809
:101C34000B435360236813F0080F07D00D4A536811
:101C440023F46053216943EAC1035360FFF724FF7F
:101C5400084B5B68C3F30313074AD35CD840074BB4
:101C640018600020FFF7B4FC002070BD012070BD97
:101C74000020024000100240283E00080800002016
:101C8400014B1868704700BF0800002070B582B08F
:101C94000446036813F0010F34D03E4BDB6913F0A4
:101CA400805F48D13B4BDA6942F08052DA61DB69EC
:101CB40003F080530193019B0125374B1B6813F4F8
:101CC400807F3AD0334B1B6A13F4407311D062689F
:101CD40002F4407293420CD02E4A136A23F44070EB
:101CE4002E4901260E6000260E60106213F0010FCB
:101CF40037D1284A136A23F4407361680B43136293
:101D0400002D3FD1236813F0020F06D0214A5368F7
:101D140023F44043A1680B435360236813F0100F6E
:101D240035D01C4A536823F4800361690B43536024
:101D3400002002B070BD0025BFE7174A136843F4C2
:101D440080731360FFF788FC0646134B1B6813F47B
:101D5400807FB7D1FFF780FC801B6428F5D903206E
:101D6400E7E7FFF779FC06460A4B1B6A13F0020FFC
:101D7400BFD1FFF771FC801B41F288339842F3D93D
:101D84000320D6E7D36923F08053D361BAE7002058
:101D9400CFE700BF00100240007000404004424200
:101DA400F0B583B00026344679E0002D00F0A98018
:101DB400012D00D1CE68FF2B00F2B7808646FF2BA1
:101DC40000F2B680A500DEF800200F27AF4022EA1B
:101DD400070206FA05F52A43CEF800204A6812F0F5
:101DE400805F5BD0674A956945F00105956192690A
:101DF40002F001020192019AA208971C624D55F863
:101E0400275004F003074FEA870E0F2707FA0EF74F
:101E140025EA07055D4FB84200F0908007F580671A
:101E2400B84200F08D8007F58067B84200F08A80E0
:101E340007F58067B84200F0878007F58067B842ED
:101E440000F0848007F58067B84275D0062707FA4A
:101E54000EF73D4302324C4F47F822504A6812F4C1
:101E6400803F75D04A4D2A681A432A604A6812F4A2
:101E7400003F73D0464D6A681A436A604A6812F498
:101E8400801F71D0424DAA681A43AA604A6812F4AE
:101E9400001F6FD03E4DEA681343EB6001340F2CF2
:101EA4006ED80122A2400B6813409A42F6D14D68C5
:101EB400122D30D00BD8022D2AD07FF676AF032D09
:101EC4002FD0112D7FF477AFCE68043673E7314FEE
:101ED400BD4216D00CD9304FBD4212D007F5803721
:101EE400BD420ED0A7F58017BD427FF464AF08E071
:101EF400A7F58017BD4204D007F58037BD427FF4B3
:101F04005AAF8D687DB1012D08D04261082652E791
:101F1400CE6808364FE7CE680C364CE702610826D7
:101F240049E7002647E7042645E700F1040E46E7A3
:101F3400A4F10805AD0046E7052788E7002786E7F2
:101F4400012784E7022782E7032780E704277EE747
:101F54000F4D2A6822EA03022A6087E70C4D6A685B
:101F640022EA03026A6089E7094DAA6822EA0302A9
:101F7400AA608BE7064DEA6822EA0303EB608DE76B
:101F840003B0F0BD00100240000001400008014011
:101F940000040140000021100000311012B90904AE
:101FA4000161704701617047074AD36823F4E06315
:101FB4001B041B0C000200F4E060184340F0BF60F7
:101FC40040F40030D060704700ED00E030B4164BB0
:101FD400DB68C3F30223C3F10704042C28BF0424E1
:101FE4001D1D062D17D9033B012505FA04F4013CF8
:101FF4002140994005FA03F3013B1340194300289B
:102004000BDB0901C9B200F1604000F5614080F8C2
:10201400001330BC70470023E6E700F00F0009010D
:10202400C9B2024B1954F4E700ED00E014ED00E0EE
:102034000138B0F1807F0AD2064B5860F021064A7D
:1020440082F823100020986007221A60704701204C
:10205400704700BF10E000E000ED00E0042805D068
:10206400054A136823F0040313607047024A136897
:1020740043F004031360704710E000E0704708B5B4
:10208400FFF7FCFF08BD00000F4B1A6842F0010285
:102094001A6059680D4A0A405A601A6822F084721C
:1020A40022F480321A601A6822F480221A605A6874
:1020B40022F4FE025A604FF41F029A604FF000624D
:1020C400034B9A60704700BF001002400000FFF805
:1020D40000ED00E008B5D0F8143223B11B6898472E
:1020E40018B1022008BD022008BD002008BD08B5B3
:1020F400D0F814325B689847002008BD38B5044610
:1021040000F50275284600F003F90123C4F8F43100
:10211400B4F80E32C4F8F83194F8081201F01F0331
:10212400012B0ED03BB1022B10D001F080012046D0
:10213400FEF727FA03E02946204600F063FA002060
:1021440038BD2946204600F081FAF8E729462046A2
:1021540000F098FAF3E710B5044619BB1346D0F81B
:10216400F421032A27D1D0F80C11D0F81021914280
:102174000BD8D0F814321B691BB190F8FC21032A48
:102184000ED0204600F027FB15E0891AC0F80C1188
:102194008A4228BF0A4692B2194600F014FB0AE0AC
:1021A4009847EEE70A46D0F814329B691BB190F8C1
:1021B400FC11032901D0002010BD11469847FAE70D
:1021C40010B50446002947D11346D0F8F421022A59
:1021D40005D094F80032012B3AD0002010BDC1691B
:1021E400026A914217D88169B1FBF2F302FB13131F
:1021F4002BB98A4203D8D0F8F831994218D3D4F8CD
:102204001432DB681BB194F8FC21032A1DD020464C
:1022140000F0ECFADDE78A1AC26192B2194600F0C6
:10222400CAFA00231A4619462046FEF7F5F9D0E704
:102234000022114600F0BFFA0021C4F8F8110B4641
:102244000A462046FEF7E8F9C3E720469847DEE74A
:10225400002384F80032C0E70A46D0F814325B69E0
:10226400002BBAD090F8FC110329B6D11146984737
:10227400B3E738B50446402300221146FEF770F94F
:102284004025C4F810512B46002280212046FEF739
:1022940067F92562012384F8FC31D4F818322BB194
:1022A400D4F814325B68217920469847002038BD61
:1022B40001740020704790F8FC3180F8FD3104234C
:1022C40080F8FC310020704790F8FD3180F8FC3133
:1022D4000020704708B590F8FC31032B01D0002092
:1022E40008BDD0F81432DB69002BF8D09847F6E724
:1022F4004B88012B00D0704710B50446C0F8043257
:10230400D0F814329B689847204600F064FA10BD58
:102314000B7803704B7843708B78CA7803EB0223F5
:1023240043800B794A7903EB022383808B79CA7942
:1023340003EB0223C380704710B504468021FEF7E7
:1023440020F900212046FEF71CF910BD30B583B0FA
:1023540004460D464A88130A013B062B00F281808D
:10236400DFE803F00413277F7F637000D0F8103296
:102374001B680DF10601007C9847BDF8062012B1D8
:10238400EB88002B71D103B030BD037C43B9D0F886
:1023940014329B6A0DF10600984702234370ECE760
:1023A400D0F81432DB6A0DF106009847022343701B
:1023B400E3E7D2B2052A34D8DFE802F0030B131B9B
:1023C400232BD0F810325B680DF10601007C98478E
:1023D400D3E7D0F810329B680DF10601007C9847D2
:1023E400CBE7D0F81032DB680DF10601007C98478A
:1023F400C3E7D0F810321B690DF10601007C984741
:10240400BBE7D0F810325B690DF10601007C9847F8
:10241400B3E7D0F810329B690DF10601007C9847B0
:10242400ABE72946FFF788FFADE7037C33B9D0F863
:1024340014325B6B0DF1060098479EE72946FFF7BF
:102444007BFFA0E7037C43B9D0F814321B6B0DF17A
:1024540006009847072343708FE72946FFF76CFF70
:1024640091E72946FFF768FF8DE79A4228BF1A468D
:10247400ADF806200146204600F090F983E738B510
:1024840004468B88E3B9CB88D3B98D7805F07F05F2
:1024940090F8FC31032B0CD080F8FE512946FEF74E
:1024A4009FF8204600F097F935B1022384F8FC31F7
:1024B40038BDFFF741FF38BD012384F8FC3138BD36
:1024C4002046FFF739FF38BD38B504460D468978F4
:1024D400254B1970012909D890F8FC31022B09D039
:1024E400032B1CD02946FFF727FF38BD2946FFF7E9
:1024F40023FF38BD81B14160032380F8FC31FFF72D
:10250400E9FD022803D0204600F065F938BD2946CC
:102514002046FFF711FF38BD00F05DF938BD89B1E1
:10252400436899421DD0D9B2FFF7E1FD0E4B1978EB
:1025340061602046FFF7CEFD02280DD0204600F052
:102544004AF938BD022380F8FC314160FFF7CFFD22
:10255400204600F040F938BD29462046FFF7ECFE3E
:1025640038BD00F038F938BDA800002008B5CB8884
:10257400012B08D190F8FC31022B07D0032B0DD08E
:10258400FFF7DAFE08BDFFF7D7FE08BD01460023BA
:1025940041F8083F012200F001F908BD0122011DA4
:1025A40000F0FCF808BD08B590F8FC31023B012BA3
:1025B4000CD80123C360D0F804320BB10323C360E9
:1025C400022200F10C0100F0E9F808BDFFF7B4FEA7
:1025D40008BD10B5044690F8FC31023B012B0ED81F
:1025E4004B88012B00D010BD0023C0F80432D0F872
:1025F40014329B689847204600F0EDF810BDFFF7B1
:102604009BFEF0E708B54B78092B1CD8DFE803F0F4
:1026140012181B151B09051B0F0CFFF797FE002052
:1026240008BDFFF72CFFFAE7FFF74EFFF7E7FFF7C8
:102634009DFFF4E7FFF7B7FFF1E7FFF759FEEEE779
:10264400FFF7C7FFEBE7FFF777FEE8E738B5044687
:102654000D4690F8FC31032B11D10B79012B03D9D2
:10266400FFF76AFE002038BDD0F814329B68984703
:10267400EB88002BF6D1204600F0ADF8F2E7FFF727
:102684005BFEEFE738B505460C468A880B7803F005
:102694006003202B11D0D1B26378012B2BD0002BF7
:1026A4004DD0032B0DD190F8FC31022B0BD0032B12
:1026B40010D02146FFF740FE03E0D0F814329B68A7
:1026C4009847002038BD0029FBD08029F9D0FDF7B8
:1026D40058FFF6E7638823B919B1802901D0FDF7C3
:1026E40050FFD5F814329B6821462846984728465F
:1026F40000F071F8E5E790F8FC31022B05D0032BCC
:102704000AD02146FFF718FEDBE70029D9D080293B
:10271400D7D0FDF736FFD4E76388002BD1D111F071
:102724007F0F03D1284600F056F8CAE7FDF737FFBC
:10273400D5F814329B68214628469847F2E790F86A
:10274400FC31022B05D0032B09D02146FFF7F4FD01
:10275400B7E711F07F0FB4D0FDF713FFB1E712F024
:10276400800F11D101F07F04103400EB0414043401
:102774002846FDF722FF70B101232360022221467F
:10278400284600F00BF89CE701F07F04013400EBCD
:1027940004140434ECE700232360EFE710B5134678
:1027A4000222C0F8F4218361C3610A460021FDF7C7
:1027B40025FF002010BD08B513460A460021FDF789
:1027C4001DFF002008BD08B513460A460021FDF789
:1027D40023FF002008BD08B50423C0F8F43100230A
:1027E4001A461946FDF70AFF002008BD08B505235F
:1027F400C0F8F43100231A461946FDF70DFF0020F6
:1028040008BD2DE9F04182B080460F4615461E46AC
:102814009DF8204001EB030E1319DBB200935FFA1D
:102824008EF300F0D6FC60B90DE00023009333462C
:102834002A463946404600F0A2FC0135EDB2013C7F
:10284400E4B2002CF1D102B0BDE8F0812DE9F04FE3
:1028540085B003900E46174698469DF83890CD18DB
:10286400EDB202EB0904E4B200942B4600F0B1FC93
:1028740010B905B0BDE8F08F4FF0000ACDF800A004
:1028840043463A463146039800F079FC4FF0010B79
:10289400CDF800B04B463A463146039800F06FFC41
:1028A400691ECDF800B04B463A46C9B2039800F011
:1028B40066FC621ECDF800A04346D2B231460398AE
:1028C40000F05DFCD5E710B582B003681B7C446B57
:1028D40003FB01F1C90089B221440091002101F0F8
:1028E400A3F902B010BD2DE9F041064690F8387006
:1028F40090F83950036893F8118000242A46214641
:102904003046FFF7E0FF0134E4B20135EDB2A742EF
:1029140001D9A845F2D8BDE8F08108B503681B7C4D
:1029240090F8382002FB03F2D2000021406B01F042
:1029340041FA08BD10B50446FFF7D5FF204601F063
:102944009AF910BD08B580F83910036B1B689847D5
:1029540008BD10B5044690F87E3023B90021204606
:10296400FFF7F0FF10BDFFF7D8FFF7E738B50546CE
:10297400FFF7B9FF95F8394095F838301C44E4B2B4
:102984002B685B7C9C4208D295F87E3053B9214673
:102994002846FFF7D7FF012038BD284601F06BF920
:1029A400002038BD2846FFF7B8FFF0E7082303707E
:1029B40000487047AC00002030B585B004460D4691
:1029C40000931346084A094901F078F90DF10F0004
:1029D400FFF7ECFF9DF80F200095054B01462046BC
:1029E40000F02EFE05B030BDF5380008BD3A0008F1
:1029F40009320008405C70474218435C507800EB91
:102A0400032080B27047012B08D023B1022B08D0D9
:102A1400401AC0B270471044C0B270470844C0B2F4
:102A24007047801AC0B27047012B08D023B1022B23
:102A340008D01044C0B270470844C0B27047801A2E
:102A4400C0B27047401AC0B270470020704738B512
:102A540004460D4600212846FFF7CCFF20700121D3
:102A64002846FFF7C7FF607002212846FFF7C2FF20
:102A7400A07003212846FFF7BDFFE070042128461B
:102A8400FFF7B8FF207105212846FFF7B3FF6071F7
:102A940006212846FFF7AEFFA07107212846FFF75D
:102AA400A9FFE07108212846FFF7A4FF207209213D
:102AB4002846FFF79FFF60720A212846FFF79AFF16
:102AC400A0720B212846FFF795FFE0720C212846DF
:102AD400FFF790FF20730D212846FFF78BFF6073EB
:102AE4000E212846FFF786FFA0730F212846FFF723
:102AF40081FFE07310212846FFF77CFF2074112129
:102B04002846FFF779FF608213212846FFF774FFF8
:102B1400A08215212846FFF76FFFE08238BD70B40C
:102B2400847A0668327842FA04F5EAB26318DBB2B2
:102B3400072B0AD9C4F10804E4B2721C026072784B
:102B4400A2402A43D2B2083BDBB2012404FA01F1C9
:102B54000139837201EA020070BC704738B504463B
:102B640000F150050165002380F85A3090F8641094
:102B74002846FFF7D4FF84F8580094F865102846D7
:102B8400FFF7CDFF84F8590094F87D3084F85C3069
:102B9400B3FA83F35B0984F85D3038BD10B50C4695
:102BA400FFF7BDFF013CE4B20123A340C01A40B2C9
:102BB40010BD2DE9F04F87B006460C46059290F8FB
:102BC40056A090F8578025E0039496F855904FFA54
:102BD4008AF14FFA88FB96F85E703B465A4602919A
:102BE40096F85400FFF720FF04903B465A4602999A
:102BF4004846FFF708FF059BABB996F85B30F3B185
:102C0400AC4228D3641BE4B208F101085FFA88F8E7
:102C14004FF0000A96F85850A5EB0A05EDB2AC4205
:102C2400D2D30395D1E796F85C3086F87D300097CF
:102C3400039B02460499304600F0A1FAE0E796F8B7
:102C44005D3086F87D300097039B02460499304638
:102C540000F095FAD4E7544486F8564086F857B005
:102C640007B0BDE8F08F2DE9F04F85B0044600F1C0
:102C74005005FFF773FF94F9597094F866102846CD
:102C8400FFF78CFF834694F867102846FFF786FF0A
:102C9400064694F868102846FFF780FF029094F9DE
:102CA4005880B8F1000F59DD5FFA87FA5644F6B23E
:102CB400764276B294F85E904B463246CDF80CB02C
:102CC400594694F85400FFF7AFFE834684F8540045
:102CD4004B463246039994F85500FFF794FE02469A
:102CE40084F85500B9F1030F69D8DFE809F0023B15
:102CF400495C5FFA88F35B44DBB25044C0B2009095
:102D04005946204600F065FA40B3002384F8563053
:102D140084F8573094F862102846FFF700FF804685
:102D240094F863102846FFF7FAFE0646002241464F
:102D34002046FFF73EFF012231462046FFF739FFC8
:102D440001212846FFF7EBFE0028EFD194F9573014
:102D54009F42DFDC94F85C3084F87D30029805B043
:102D6400BDE8F08FABEB0A01C9B201310BF10103ED
:102D7400DBB25FFA88F01044C0B25FFA81FBBEE7B1
:102D84005FFA88F1ABEB0101C9B201310BF1010328
:102D9400DBB2A0EB0A06F6B201360132D0B2F2B2CF
:102DA4005FFA81FBABE70AEB0B03DBB25FFA88F156
:102DB400411AC9B201310132D0B2CAB29FE75B46AF
:102DC4009DE7836C1733FF2913D8602909D9B0F81C
:102DD400742013445A78DAB11878814207D0134426
:102DE400F8E74029F6D9B0F872201344F2E7981CAA
:102DF4007047B0F8760018440278437853EA022307
:102E040008D0994202D083781844F5E7033070471C
:102E1400002070470020704710B5044680F8541015
:102E240080F855201946FFF7CCFF28B1014620460B
:102E3400FFF719FFC0B210BD002010BD38B504461D
:102E4400FFF7BFFFB8B101462046FFF787FE04F144
:102E5400500594F866102846FFF7A0FE84F87B001E
:102E640094F867102846FFF799FE94F868102846EE
:102E7400FFF794FE38BD002038BDF8B505460C4672
:102E8400002680F8586000F043FC37466B682178D0
:102E9400284698474FF6FF7398420CD001344FF6FA
:102EA400FE739842F2D001462846FFF7C7FFC7B227
:102EB4003E44F6B2EAE795F9583043B1F61BF6B250
:102EC400DBB21E44F6B295F87B301E44F6B23046AF
:102ED400F8BD80F85B107047F8B504460D461646F9
:102EE4001F4690F85E30032B07D8DFE803F0020D8D
:102EF4001217C36C98470644F6B23B46324629463D
:102F04002046FFF789FFF8BDC36C98472D1AEDB230
:102F1400F3E7C36C9847361AF6B2EEE7C36C9847EA
:102F24000544EDB2E9E700002DE9F04104460F46FF
:102F340016461D4600F0ECFB4FF0000804E0074481
:102F4400FFB240445FFA80F86368297820469847C6
:102F54004FF6FF73984222D001354FF6FE73984224
:102F6400F2D00346324639462046FFF7B5FF94F8BF
:102F74005E30032BE5D801A252F823F0432F00085A
:102F8400912F0008972F00089D2F00080644F6B2E1
:102F9400D7E73F1AFFB2D4E7361AF6B2D1E7404674
:102FA400BDE8F08110B5024C4460FFF7BDFF10BDD1
:102FB4007F360008836CF3B190F96D1080F87910B6
:102FC40090F96E2080F87A2090F878309BB1012B2C
:102FD40012D030B490F96A3090F96C401D19A942AE
:102FE40004DADBB2E1B20B4480F87930A24201DDAD
:102FF40080F87A4030BC704790F96F30994201DA1A
:1030040080F8793090F970309A42F4DD80F87A30A3
:10301400704708B5022380F87830FFF7CBFF08BD6E
:10302400014BC364704700BF4F2A0008836C8B4276
:1030340009D010B5044681646030FFF708FD2046CE
:10304400FFF7B8FF10BD704708B5024B4360FFF7A8
:1030540014FF08BD7F36000880F85E10704710B476
:1030640003780C78A34204D993420AD2541EE4B2E2
:103074000C70934208D254B194420AD90A700120C8
:1030840003E000230370F4E7002010BC7047002025
:10309400FBE70120F9E770B586B004469DF8285097
:1030A4008DF80F108DF80E2090F83B2090F83A0020
:1030B4000DBB9DF80E108A4201D806B070BD9DF874
:1030C4000F20134406A901F8013D02460DF10F003B
:1030D400FFF7C5FF0028F0D09DF817309DF80F20AA
:1030E4009B1ADBB2E66A9DF80E209DF80F1000953E
:1030F4002046B047E1E79DF80F108842DDD99DF8DE
:103104000E100B4406A901F8013D0DF10E00FFF766
:10311400A6FF0028D1D09DF817309DF80E209B1AE9
:10312400DBB2DFE730B583B09DF8185090F8394032
:10313400E400E4B2121BD2B2012B0AD0022D14D047
:10314400032D17D005F001050095FFF7A4FF03B088
:1031540030BD90F83A408C42F9D990F83B40A242F5
:10316400F5D2C46A0095A047F1E7C91AC9B2013182
:10317400C9B2E7E7D21AD2B20132D2B2E2E703B956
:10318400704730B583B0046B64689DF8185000959F
:10319400A04703B030BD80F87D10022902D9012375
:1031A40080F87D3070478A4205D283420BD89A4218
:1031B4000BD901207047834209D99A4201D80020D3
:1031C400704701207047012070470020704700209D
:1031D400704770B504460D461E469DF8103090F8B1
:1031E400441090F84300FFF7DEFF034640B1334636
:1031F4002A4694F8421094F84100FFF7D4FF03469E
:10320400184670BDF0B49DF810600468257C01F088
:10321400070780243C41E4B2C90805FB021189B2C6
:10322400426B0A440EBB07E011782143117007E09A
:10323400013B13F0FF0324D090F87D100129F3D94A
:1032440090F87D10012902D0117861401170640852
:10325400EED101328024EBE711782143117008E0AC
:103264002A44013B13F0FF030BD090F87D10012991
:10327400F2D990F87D100129F2D0117861401170D3
:10328400EEE7F0BC70472DE9F04F85B0074689465C
:1032940014469A460E9E304600F020FD80460025D6
:1032A400AB460CE03146284600F025FD0146384681
:1032B400FFF7CAFE83445FFA8BFB0135EDB2454547
:1032C400F0D308F1FF3303EB4303580083445FFA60
:1032D4008BFBA34505D2A4EB0B04C4F346040025E1
:1032E40020E00024FBE74FF0010B3146284600F0B4
:1032F40002FDCDF808B001230193009000234A4653
:103304002146384600F0B6F83146284600F0F3FC72
:1033140001463846FFF798FE0444E4B20634E4B2AA
:103324000135EDB2454504D25545DCD04FF0000BD4
:10333400DBE7404605B0BDE8F08F2DE9F04F87B0DC
:103344000446894617469A46DDF840B00021FFF747
:1033540083FE2046FFF764FE94F8795094F87A309F
:10336400ED1AEDB2484600F0B9FC461CF6B20FB1B6
:103374000230C6B2504600F0B1FC3318DBB203FB96
:1033840005F3DBB20333DBB294F8402093420CD252
:10339400D61AC6F3460694F879301E44F6B20023D2
:1033A40004932046FFF7D5FA1DE00026F3E794F8CE
:1033B4003F30CDF804A0009542460021204600F09D
:1033C400CAF808EB0001C9B2033194F83F20CDF8E4
:1033D40000B0049BC9B22046FFF755FF8046204643
:1033E400FFF7C4FAE0B194F83F30CDF804900095AB
:1033F40032460021204600F0AEF830445FFA80F8EF
:10340400002FD4D094F83F3000210291019100970D
:103414004246204600F02EF8A8445FFA88F8C6E732
:103424000590204600F082FB502812D0532814D077
:10343400512816D0552814D0522801D05428F0D140
:10344400049B03B1984608F1FF385FFA88F30493AC
:10345400A7E7049B0133DBB20593059807B0BDE8E9
:10346400F08F049B0133DBB20493984599D8059BF4
:10347400049396E72DE9F04F85B081460291924678
:103484001C469DF83C709DF840B00021FFF7E4FD18
:10349400D9F84C304846984782445FFA8AFA0E9924
:1034A4004846FFF7D1FD0546A04217D2251AC5F3B9
:1034B40046030393254699F87940AAEB0406F6B22D
:1034C40099F87A30E41AE4B201214846FFF763FE22
:1034D400BBF1000F05D1DDF808801DE00023039344
:1034E400E9E700942B46324602994846FFF789F9EA
:1034F400F1E708F1FF385FFA88F8013EF6B20235C9
:10350400EDB20234E4B200942B46324641464846BA
:10351400FFF79CF9013FFFB2002FEAD1BBF1000F86
:1035240014D101214846FFF736FE039B029A134447
:1035340019460E9B5246C9B24846FFF733FD012196
:103544004846FFF728FE05B0BDE8F08F0021484645
:10355400FFF721FEE9E72DE9F04F85B083468A465F
:10356400154699469DF838700F9800F0B7FB8046D1
:103574000026344613E00F99204600F0BCFB0023DC
:103584000293019300904B462A4651465846FFF752
:1035940071FF3D44EDB23E44F6B20134E4B2444519
:1035A400E9D3304605B0BDE8F08F70B490F83830F8
:1035B400DA0080F83B2001680A7C1F2A00D91F2208
:1035C400D20080F83A2090F83950EA00D2B280F85C
:1035D4003C205E194C7CA64201DD631BDBB2DB00A0
:1035E400DBB280F83D20134480F83E30F02380F8AD
:1035F4003F308B8AF02B01D880F83F30CB8A80F89B
:10360400403070BC704710B50446FFF7CEFF00236E
:1036140084F8413094F83A3084F8423094F83D30DC
:1036240084F8433094F83E3084F8443010BD10B52B
:1036340082B09DF810400094FFF774FD02B010BDF5
:1036440070B50446049E00258564C362416380F816
:10365400382080F8395080F85B5080F87C50012382
:1036640080F87D3080F87E300663336898472046C2
:10367400FFF7D6FC84F85E5070BD0A4619B94FF6C0
:10368400FF72104670470A293FD090F8233063BB7D
:10369400FB2908D9052380F8233001F00103838333
:1036A4004FF6FE72EDE7F72905D9042380F823309D
:1036B40001F00303F3E7EF2905D9032380F823304E
:1036C40001F00703EBE7DF2905D9022380F8233053
:1036D40001F00F03E3E7BF2905D9012380F8233064
:1036E40001F01F03DBE78AB2CBE7013BD9B280F8D4
:1036F4002310838B9B019BB202F03F021A43828307
:103704000029BED04FF6FE72BBE74FF6FF72B8E752
:10371400002380F82330704710B5046913460A4625
:103724001721A04710BD00B583B002AA02F8011DFD
:103734000121FFF7F1FF03B05DF804FB2DE9F04729
:10374400044691460268177B14390C297BD8DFE8BC
:1037540001F0447A7A315C6B7A7A7A7A7A7A540014
:1037640001224121204600F08DFA7600F6B242464D
:103774004021204600F086FA23689A792C212046BD
:1037840000F080FA3A464021204600F07BFA236894
:10379400DA792C21204600F075FA0135EDB2072DB7
:1037A4000DD816F0800FDBD100224121204600F015
:1037B40069FADAE707F0010787F001089A46B9F1D8
:1037C400000F07D01AF8016B09F1FF395FFA89F984
:1037D4000025E4E70120BDE8F0875278492120461E
:1037E40000F050FA23681A7B02F0010240212046BF
:1037F40000F048FA0120BDE8F0874A464A212046F5
:1038040000F040FA0120BDE8F087127849212046F3
:1038140000F038FA65692268002392782C2120464A
:10382400A8470120BDE8F08765690023D2782C21E0
:103834002046A84723685A784921204600F022FAF6
:103844000120BDE8F0870020BDE8F08710B5C4680A
:1038540000230A461521A04710BD10B5C4681346BD
:103864000A461721A04710BD10B5C46800231A46A4
:103874001821A04710BD10B5C46800231A461921A9
:10388400A04710BD70B582B006460D462C4614F80C
:10389400011B172918D00CD919291FD9FE2924D1A5
:1038A40022788DF807202921304600F0EBF9023503
:1038B400ECE7152919D322788DF80720F468002342
:1038C4003046A0470235E1E76B7802AA02F8013DD1
:1038D40001213046FFF7C1FF0235D7E7F568002321
:1038E4001A463046A8472546D0E702B070BD00000E
:1038F400F8B5064615461F46A1F11403052B74D8E6
:10390400DFE803F06E0322326E6EF821FFF70BFF3F
:1039140001222C21304600F0B5F905F0F0013046C3
:10392400FFF701FF01222C21304600F0ABF92901F9
:1039340001F0F0013046FFF7F6FE01222C2130465B
:1039440000F0A0F90120F8BDF821FFF7ECFE05F026
:10395400F0013046FFF7E7FE290101F0F00130469F
:10396400FFF7E1FE0120F8BDFA21FFF7DCFE01229A
:103974002C21304600F086F917E01D4808227C1CF3
:103984003B7803F0F007014601F8027B1B0143700A
:10399400013A2746084612F0FF02F0D1083DEDB285
:1039A400134A10213046FFF7B7FE072DE5D80EE085
:1039B40017F8014B04F0F0013046FFF7B4FE210183
:1039C40001F0F0013046FFF7AEFE013DEDB2002DEF
:1039D400EED101222C21304600F054F90120F8BD2B
:1039E40004693B462A46A047F8BD0020F8BD00BF45
:1039F400AC0400202DE9F04705460B2910D0984669
:103A04000F291AD00A2902D00020BDE8F08700F05F
:103A1400DCF826492846FFF735FF0120BDE8F0878A
:103A24002AB92349FFF72EFF0120BDE8F087214979
:103A3400FFF728FF0120BDE8F0879F79FF00FFB260
:103A440093F805904FEA59091F2F03D9203FFFB27D
:103A540009F108092846FFF707FFD8F800603E215E
:103A64002846FFF7F3FE002417E0391949B261F044
:103A74007F01C9B22846FFF7E9FE69F07F01C9B2A8
:103A84002846FFF7E3FE98F804A03246514628463C
:103A9400FFF7E3FE56440134E4B2072CE5D9284687
:103AA400FFF7E9FE0120BDE8F08700BF403E0008B3
:103AB400543E00085C3E000808B5092902D0FFF70F
:103AC40099FF08BD024900F07CF8012008BD00BF41
:103AD400643E000810B406230122013BDBB280EAF5
:103AE4000104224204D15200D2B2002BF5D10623A4
:103AF400184610BC704770B50646FF20002412E03B
:103B04004000C5B2012386F8243004F1500100229C
:103B1400C9B2304600F0B6F896F9240000F001006E
:103B240028430134E4B2052CEAD970BD10B504462B
:103B3400FFF7E1FF94F82730102B14D009D9202B7C
:103B440020D0302B36D194F82530984227D000204D
:103B540010BD7BBB94F82530984230D0122384F8F2
:103B64002730002010BD94F82530984206D084F800
:103B74002600222384F82730002010BD002084F87A
:103B8400270010BD94F82630984203D0002084F812
:103B9400270010BD302384F82730002010BD0022F8
:103BA40084F8272094F826101846FFF793FF503026
:103BB400C0B210BD013B84F82730002010BD0020A6
:103BC40010BD01608B7C8377704738B50446456926
:103BD40000231A462821A847E56800231A46142121
:103BE4002046A84701224B21204600F04BF82368C9
:103BF4001A792921204600F045F800224B2120465D
:103C040000F040F823681A792921204600F03AF898
:103C140001224B21204600F035F823685A792921E6
:103C2400204600F02FF838BD10B582B08DF805108D
:103C34008DF806208DF8043002AB049A43F8082D61
:103C4400846801220F21A04702B010BD10B584681A
:103C540000231A460921A04710BD10B5846800232B
:103C64001A460A21A04710BD10B5846800230A46ED
:103C74000B21A04710BD10B5846800231A461021FB
:103C8400A04710BD10B544690023A04710BD002013
:103C94007047000000230360074A8260C26002612B
:103CA4004261C37780F8223080F82330FF2380F804
:103CB400203080F825307047933C0008F8B504465E
:103CC4000F4616461D46FFF7E5FFA760E66025612F
:103CD400069B63612046FFF7B9FFF8BD034640B178
:103CE40001201A7832B101330A2AFAD10130C0B264
:103CF400F7E70020704760B110B4044601220B7846
:103D04004BB101310A2BFAD1A24207D00132D2B20F
:103D1400F5E708467047002010BC70470846FBE7EB
:103D2400002103E00B4B5B58435004310A480B4B12
:103D340042189A42F6D30A4A02E0002342F8043BAE
:103D4400084B9A42F9D3FEF79FF900F00FF8FCF7FD
:103D540073FB704764460008000000200C0000203C
:103D64000C00002020090020FEE7000070B50026AA
:103D74000C4D0D4C641BA410A64209D100F022F88E
:103D840000260A4D0A4C641BA410A64205D170BD3E
:103D940055F8043B98470136EEE755F8043B98473D
:103DA4000136F2E759460008594600085C46000807
:103DB4006046000803460244934200D1704703F86A
:103DC400011BF9E7F8B500BFF8BC08BC9E46704774
:0C3DD400F8B500BFF8BC08BC9E46704764
:103DE00002030405060708090A0B0C0D0E0F10103C
:103DF000010200005372632F6D61696E2E63000033
:103E00005469746C653300005469746C6532000049
:103E10005469746C65310000204F6B200A204361A7
:103E20006E63656C200000000000000000000000D0
:103E300001020304060708090B36000833360008A0
:103E4000FE6418FE0A15381508150615021501FE40
:103E50000419FF00181538150C19FF00181538152E
:103E60000819FF00010005050106148C40420F00EF
:0C3E700003041E28100800008000400021
:103E7C00BF0003020304030504060A00FE07FE0745
:103E8C00000142028807C42005006207210739435C
:103E9C00C7A00422079B52476209230E3D424F29BB
:103EAC004906A53228A52401240C3D4257B6D4B6A8
:103EBC0024D92200250C3D424FA474ABB448090010
:103ECC00260D3D424F9644495649A44809270619E8
:103EDC0053C7002808BB425752AA152909BB4247B1
:103EEC0056AA94002A0A2D4647965406A52D2B0A4D
:103EFC002D4657180D5218012C079B3E8F52022D40
:103F0C00060D4EC7202E089B3E4FB224002F083DB5
:103F1C004267AD6308300B3D425796D46C492D0275
:103F2C00310A3D4257262561D320320C3D42CF92B7
:103F3C00859194858300330C3D42C7206699AA2550
:103F4C000B00340C3D425F2625A564D0C204350B12
:103F5C003D42C73131855AB200360C3D42979485AB
:103F6C0089494B1600370B3D42C720666156CC0081
:103F7C00380C3D42CF9269C99269C902390C3D4255
:103F8C00CF92498A126691043A0ABB3E4FB2A4C939
:103F9C0092003B09BB3E4FB2A44A093C08BC425FAD
:103FAC00D4D8003D081D4AC7A00E023E08BC4247AB
:103FBC00D8D4063F0A3D42CF9235E65004400C3D22
:103FCC0042CF92494B62491700410C3D425796D45F
:103FDC00B461C8B400420D3D42C71055A264AA4456
:103FEC008302430A3D42CF92896DC902440F3D4280
:103FFC00C71055A2244AA2241A1400450B3D42C7EF
:10400C00311C92301C04460A3D42C7311C92B00848
:10401C00470B3D42CF9289A52D5900480A3D424796
:10402C00661B86CC164908BB42C71275194A0A3D55
:10403C0042D716B64491044B0D3D42472625252DFB
:10404C00892A59004C083D4247D8E3204D0B3D428C
:10405C0047A62D4BA2D9024E0C3D4247A64D4A22F3
:10406C006D5A004F0A3D42CF92794B1600500C3DD1
:10407C0042C79064DAA0844500510A453ECF92793C
:10408C00A9AC01520D3D42C79064DAA0942A5900A4
:10409C00530B3D42CF92A9AB962C0054093D42C71D
:1040AC0020853D0155093D4247E65BB200560D3D6A
:1040BC004247664B4A4994641100570A3D4247E611
:1040CC009228C92D580B3D4247A625B54A4D0B5990
:1040DC000A3D4247A625B5B0095A0A3D42C720669B
:1040EC001D07015B08BB42C710751A5C083D4247AF
:1040FC0098760C5D08BB42C7D469085E081D525700
:10410C0096D4025F060D3EC7206006125B47146111
:10411C000A2D42CF9A0C5A3204620B3D4247583159
:10412C006993A200630A2D42CF928959B200640AA6
:10413C003D4267C5B4498A12650A2D42CF920D43A0
:10414C00BA00660B3D429754C98628AC01670C3DFA
:10415C003ACFA069C9106AC902680A3D4247583172
:10416C0069B6006908BB424F28B50C6A0BCC3A5FA4
:10417C00ACD5242951006B0B3D4247589392A99220
:10418C00056C08BB4287D4CB006D0B2D4287D2A2A5
:10419C00244AA2056E092D424762D26C016F092D8B
:1041AC0042CF92D99205700C3D3A4762D22645090E
:1041BC004300710A3D3A8F699314252C72092D42E4
:1041CC004762128B0073092D42CF921E1400740C9F
:1041DC003D424F980D51588A140075092D4247E6FF
:1041EC00A42801760B2D4247A625A5248B00770A1F
:1041FC002D42476649942E00780A2D424796D42AC0
:10420C00B500790C3D3A47665294504B16007A092A
:10421C002D42C7A0B50D027B0ABC42971226621430
:10422C000A7C063943C7217D0BBC428718854A9806
:10423C0048007E091D524FA4245202A005006207BB
:10424C00A1073943473208A20E3D3E57362851127A
:10425C0025D9104500A30C3D429754C9B6305214D1
:10426C0000A40B2D4247964C49B46401A50D453E64
:10427C0047A625B56890C21200A6063943C732A7D7
:10428C000B453ECF124E9DC66401A8068B5E4712AD
:10429C00A90D3D42CF9229C9A4245AB200AA0AB44E
:1042AC0046CF10294A7108AB0C2E4257254AA22C36
:1042BC00CAA200AC07944AC79005AD068C4EC71035
:1042CC00AE0C3D42CF920DC93469C902AF060D5EEA
:1042DC00C720B0079B524F1700B10B354257180D32
:1042EC0052180D02B209AC4E8F12350D01B309AC48
:1042FC004EC798884302B406125B8F02B50A353E4E
:10430C0047669B142504B60F3D42CF3024439228B8
:10431C005112255112B706094F4700B806123B8FB0
:10432C0002B908AB4E4F225506BA0AB4468F124951
:10433C00893A04BB0D2E42479445599444491401C3
:10434C00BC0D4E3E4FA816A7504BA2210DBD0C4ED6
:10435C003E4FA816973049C370BE0E4D3E879AA5A6
:10436C0091944949328401BF0A3D42570E8559CB7D
:10437C0002C00C45424F9A2D99360C9916C10C452A
:10438C00425F6DC9B461C8B400C20D454257964432
:10439C004BA60D43A605C30D45424FA4484BA60D95
:1043AC0043A605C40C45424F1D58326D18322DC51D
:1043BC000D45425796444BA60D43A605C60C3E42EE
:1043CC00D790949A86216A1AC70B4D3ACF92896D71
:1043DC00C95603C80C45424F368CE19084E120C984
:1043EC000C45425F328CE19084E120CA0C45425767
:1043FC00348CE19084E120CB0C45424F6518C321ED
:10440C0009C341CC0AC34247962C51CB00CD0AC3F9
:10441C004257922C51CB00CE0AC3424F6548A2960C
:10442C0001CF0AC34247922D51CB00D00E3D42C75B
:10443C001055A2212925D1A000D10C454257D26D8F
:10444C00521269D302D20B45424F9A2D995BB2009E
:10445C00D30A45425F6DC9DC9205D40C4542579690
:10446C00444BE6962C00D50B454257D2B4646EC92A
:10447C0002D60B45424F1D5832B76401D70A2D4264
:10448C004796D42AB500D80C3D42CF125D92694AAA
:10449C001600D90A45424F1A65DE9205DA0A4542E2
:1044AC005F29F3962C00DB0B45425796C4995BB2FF
:1044BC0000DC0A45424F39F3962C00DD0B45425F78
:1044CC0029D3925A5802DE0C3D42473824D9A08495
:1044DC004500DF0D3D42CF924949A992290A00E0DF
:1044EC000C45424F9A236B3268C910E10C45425F70
:1044FC001D5993414B8600E20D45425796E4C09AF4
:10450C000C5A3204E30D454257D20EACC9A02543D8
:10451C0000E40C3D424F1D5893414B8600E50D4580
:10452C0042579664D99A0C5A3204E60C2E42CF109C
:10453C0026C930658300E70B3D3ACF928959B2D535
:10454C0000E80C45424F9A234B360CE902E90C4526
:10455C00425F1D59B261481700EA0D45425796E477
:10456C00C0920D43BA00EB0C3D424F1D58B261484E
:10457C001700EC09C34247164A2D03ED08C3424FFE
:10458C00556A19EE08C3424F9BD432EF09BB424720
:10459C0092492D03F00B3D42872A2D992D5900F19C
:1045AC000B454257D29C98345B00F20C45424F9A13
:1045BC00234B664B1600F30B45425F1D59325BB221
:1045CC0000F40C45425796E4C092D99205F50C457F
:1045DC004257D20E2C992D5900F60B3D424F1D58C7
:1045EC00325BB200F70A2D46570E0C3A1001F80B4D
:1045FC002D42CF202DC9342800F90B45424F9A0388
:10460C009993A204FA0A45425F1DC89C1425FB0B22
:10461C0045425796C49993A204FC0A3D424F397304
:10462C00529400FD0D4D3A5F2933294AA8250B0001
:10463C00FE0C453A473824996D50C210FF0D4D3A87
:0D464C004F3933294AA8250B00000000005B
:04465C000902000847
:04466000E501000868
:0C466400010000001000000000A24A0449
:0400000508003D258D
:00000001FF
