:020000040800F2
:1000000000000120D9750008D5750008D3750008D7
:10001000D3750008D3750008D375000800000000F0
:10002000000000000000000000000000D57500087E
:10003000D575000800000000D57500089D5900081E
:10004000D3750008D3750008D3750008C1080008EF
:10005000D3750008D3750008D3750008D375000860
:10006000D3750008D3750008D375000899490008B6
:10007000D3750008D3750008D3750008D375000840
:10008000D3750008D3750008DD490008D375000852
:1000900011070008D3750008D3750008D375000850
:1000A000D3750008D3750008D3750008D375000810
:1000B000694900082512000869120008D375000874
:1000C000D3750008D3750008D3750008D3750008F0
:1000D000D3750008D3750008D3750008054F0008D4
:1000E000D3750008D3750008F9060008D375000819
:1000F000D3750008D3750008D3750008D3750008C0
:10010000D3750008D3750008AD120008D375000838
:10011000D3750008D3750008415A0008D37500084C
:10012000D3750008D3750008D3750008D37500088F
:10013000D3750008D3750008D3750008D37500087F
:10014000D3750008D3750008D3750008D37500086F
:1001500080B500AFF02300220321054806F06AF8BD
:100160000F2300220321024806F064F800BF80BD7F
:100170000014014080B582B000AF0346FB714021FE
:10018000264806F095F8FB7903F00803002B04D00D
:100190000821224806F08AF803E008211F4806F0EB
:1001A00087F8FB7903F00403002B04D004211B48DB
:1001B00006F07CF803E00421184806F079F8FB7992
:1001C00003F00203002B04D00221144806F06EF85D
:1001D00003E00221114806F06BF8FB7903F00103FC
:1001E000002B04D001210D4806F060F803E0012146
:1001F0000A4806F05DF84021084806F057F86420E8
:1002000005F05CFB4021054806F052F8642005F03B
:1002100055FB00BF0837BD4680BD00BF001401403C
:1002200080B582B000AF0346FB711021094806F08B
:100230003FF8FB791B09DBB21846FFF79BFFFB7900
:1002400003F00F03DBB21846FFF794FF00BF083737
:10025000BD4680BD0014014080B582B000AF0346AA
:10026000FB711021094806F021F8FB791B09DBB26C
:100270001846FFF77FFFFB7903F00F03DBB2184648
:10028000FFF778FF00BF0837BD4680BD001401406E
:1002900080B582B000AF03460A46FB711346BB71BE
:1002A000FFF756FF2021334806F002F810213148AD
:1002B00005F0FEFF40212F4805F0FAFF0F2005F062
:1002C00013FB2D4ABB79D3702B4AFB7913712A4B50
:1002D00000225A71284B00229A71274B0022DA71B2
:1002E000254B04225A70BB79012B06D9224B5B782F
:1002F00043F00803DAB2204B5A700320FFF73AFFAD
:100300000A2005F0F1FA0320FFF734FF962005F0EC
:10031000D5FA0320FFF72EFF0A2005F0E5FA0220A8
:10032000FFF728FF0A2005F0DFFA134B5B7843F054
:100330002003DBB21846FFF773FF0F4B04221A703D
:1003400000F01CF800F030F80B4B03229A700A4BB7
:100350009B7843F00403DBB21846FFF761FF64208B
:1003600005F0C2FA8021034805F0A2FF00BF08375C
:10037000BD4680BD00140140E00B002080B500AFF9
:10038000084B1B7843F00403DAB2064B1A70054B96
:100390001B7843F00803DBB21846FFF741FF00BFAC
:1003A00080BD00BFE00B002080B500AF0120FFF74B
:1003B00037FF00BF80BD000080B584B000AF0346AA
:1003C0000A46FB711346BB71134B1B68FB60134B52
:1003D000DB78BA799A4201D30023BB710F4AFB79CB
:1003E00053710E4ABB799371BB7907F11002134424
:1003F00013F8042CFB791344DBB25BB263F07F0388
:100400005BB2DBB21846FFF70BFF0A2005F06CFA6F
:1004100000BF1037BD4680BDF4280108E00B002066
:1004200080B582B000AF0346FB71FB79002B07D08B
:100430008021094805F03AFF084B0122DA7106E0F5
:100440008021054805F034FF044B0022DA7100BF1B
:100450000837BD4680BD00BF00140140E00B0020FE
:1004600080B485B000AFF860B9607A603B60BB686B
:100470005B78202B03D0222B09D1012308E03B68B5
:100480001B88062B01D8002302E0012300E0002393
:1004900018461437BD4680BC704780B594B000AF95
:1004A00078600B46FB7007F1080240230121786851
:1004B00006F037FC0346BB64BB6C9BB207F1080235
:1004C0008221786806F026FC002387F84F300EE082
:1004D00097F84F3007F15002134413F8483C184680
:1004E00000F0ECF897F84F30013387F84F3097F869
:1004F0004F30BA6C9A42EBDC00BF5037BD4680BD2E
:1005000080B483B000AF78600B46FB7000BF0C373F
:10051000BD4680BC7047000080B584B002AF7860F3
:100520000B467B80124B0093402302220121786806
:1005300006F0D0FB0F4B0093402302228221786803
:1005400006F0C8FB00230093102303228321786860
:1005500006F0C0FB084B7F222121786806F0ABFC37
:100560007B88064AC2F8DC3200BF0837BD4680BD32
:100570009B0400080105000861040008E80B002046
:1005800080B586B004AF4FF400430022022120481A
:1005900005F050FE4FF400411D4805F089FE802310
:1005A00002931C4B0193032300931B4B1B4A1C49D2
:1005B0001C4806F063FB02461B4B1A611A4B1B6971
:1005C0001A49184606F044FF3B464FF4FA611846B4
:1005D00005F0BAFA4FF400410D4805F067FE4FF4FC
:1005E00000721349104804F05FF80F4B0022C3F863
:1005F000DC220D4B0022C3F8D422142007F06AF845
:100600002A2007F067F800BF0837BD4680BD00BF4D
:1006100000080140FC0B002000000020A029010878
:10062000F8280108E42D0108E80B0020190500084E
:100630007C0C002080B582B000AF1E4BD3F8DC32BA
:10064000002B31D00CE01B4BD3F8D4325A1C194983
:10065000C1F8D422F979174A13440A4683F8942240
:10066000144BD3F8D4323F2B07D8FB1D1946114841
:1006700004F032F80346002BE5D10E4BD3F8D43208
:10068000002B14D00B4B18690A4BD3F8D4329BB211
:10069000094A822106F03EFB0346002B06D0054B9B
:1006A0000022C3F8D42202E000BF00E000BF0837F8
:1006B000BD4680BDE80B00207C0E002080B584B0D4
:1006C00000AF0346FB71FB7919460A4804F02BF88A
:1006D0000346002B0AD107F10F031946054803F022
:1006E000FBFFFB791946034804F01DF800BF1037E3
:1006F000BD4680BDE80B002080B500AF034B1B69F1
:10070000184606F0E3FA00BF80BD00BFE80B0020EA
:1007100080B500AF034B1B69184606F0D7FA00BF3F
:1007200080BD00BFE80B002080B500AF47F6FF7129
:10073000052006F07BF8032006F0CCFF0121032002
:1007400006F0D6FF002006F003F805F009FE124B74
:100750001B684AF2A65293421AD00F4B4AF2A65295
:100760001A600E4B40F2E2721A800C4B08229A700B
:100770000A4B1622DA70094B01225A71074B0222EA
:100780009A71064B0022DA710721044800F037F80D
:1007900005F0EEFD00BF80BD046C0040C80E0020D7
:1007A00080B58EB000AF78607B68B3F900301BB2C3
:1007B000A3F26C733B627B6893F90230013BFB61EF
:1007C0007B6893F90330BB617B6893F905307B61EB
:1007D0007B6893F906303B617B6893F90730FB60D7
:1007E0004FF0FF33FB6207F10C03184607F02EFDB4
:1007F000C7E90C013B6B18463837BD4680BD80B554
:1008000084B000AF78600B46FB70002005F0BEFF9F
:100810007868FFF7C5FFF860FB784FF4616202FB70
:1008200003F31A46FB681344FB60F86805F082FF87
:10083000002005F08DFF00BF1037BD4680BD90B58C
:1008400087B000AF786039603B684FF00004C7E9BB
:10085000023407F10803184607F0FEF978617B6956
:100860001B685AB27B68DA717B695B685AB27B6835
:100870009A717B699B685AB27B685A717B69DB68A5
:100880005AB27B68DA707B699B69DBB20133DBB2F9
:100890005AB27B681A717B691B69DBB20133DBB228
:1008A0005AB27B689A707B695B699BB203F26C7386
:1008B0009BB21AB27B681A8000BF1C37BD4690BD40
:1008C00080B582B000AF002005F07EFF05F028FF64
:1008D00003467B607B6819460348FFF7B0FF00BF03
:1008E0000837BD4680BD00BFC80E002080B582B06D
:1008F00000AF214B3B6005F077FC00237B600AE0F2
:100900007B6803F500337C339B02184605F030FC0E
:100910007B6801337B607B68002BF1D000237B6018
:100920001FE07B6803F1006303F5F8337A6822F077
:10093000030239680A4412681146184605F06EFC35
:100940007B6823F003033A6813441A687B6803F159
:10095000006303F5F8331B689A4208D17B680433BF
:100960007B607B680D2BDCD905F04AFC00E000BF02
:100970000837BD4680BD00BFD00E002098B500AF3F
:10098000124A134B14460FCB07C423800F4B1B682E
:10099000104A934218D00E2200210C4807F0FCFAAE
:1009A0000A4B0C4A1A60094B01221A71074B0122AB
:1009B0005A71064B084AC3F80620044B4FF0804298
:1009C000C3F80A20FFF792FF00BF98BDD00E0020A9
:1009D00000F00108A155FF000000C04080B485B0C0
:1009E00000AF78600B467B800023FB730023BB8144
:1009F0002AE0BB897A6813441B78BB720823FB7218
:100A0000FA7BBB7A5340DBB203F001037B727B7A43
:100A1000012B03D1FB7B83F01803FB73FB7B5B088B
:100A2000FB737B7A012B03D1FB7B63F07F03FB73AA
:100A3000BB7A5B08BB72FB7A013BFB72FB7A002B33
:100A4000DED1BB890133BB81BA897B889A42D0D180
:100A5000FB7B18461437BD4680BC704780B582B01A
:100A600000AF78607B6818687B689B880222002151
:100A700005F0E0FB00BF0837BD4680BD80B582B001
:100A800000AF78607B6818687B689B880022032130
:100A900005F0D0FB00BF0837BD4680BD80B582B0F1
:100AA00000AF78607B681A687B689B88194610469F
:100AB00005F0FEFB00BF0837BD4680BD80B483B0A3
:100AC00000AF786000BF0C37BD4680BC704780B572
:100AD00082B000AF78607B681A687B689B88194693
:100AE000104605F0E8FB03461A467B689B889A424D
:100AF00001D1012300E0002318460837BD4680BD20
:100B000080B584B000AF78600023FB737868FFF78E
:100B1000C5FF7868FFF7B2FF012004F0CFFE7868C8
:100B2000FFF79CFF0A2004F0C9FE7868FFF7CFFFAB
:100B30000346002B01D00123FB73282004F0BEFEE6
:100B4000FB7B18461037BD4680BD80B582B000AF34
:100B500078600B46FB707868FFF7A0FF7868FFF7B6
:100B60008DFFFB78002B05D0022004F0A7FE7868EB
:100B7000FFF774FF3A2004F0A1FE7868FFF76EFFDC
:100B800000BF0837BD4680BD80B584B000AF786037
:100B90000B46FB70FB78FB730023BB730DE0FB7B04
:100BA00003F00103DBB219467868FFF7CEFFFB7B49
:100BB0005B08FB73BB7B0133BB73BB7B072BEED99D
:100BC00000BF1037BD4680BD80B584B000AF7860EF
:100BD0000023FB730023BB730FE07868FFF790FFDF
:100BE0000346002B03D0FB7B63F07F03FB73FB7B8F
:100BF0005B08FB73BB7B0133BB73BB7B062BECD960
:100C00007868FFF77DFF0346002B03D0FB7B63F082
:100C10007F03FB73FB7B18461037BD4680BD80B554
:100C200084B000AF78607868FFF738FF7868FFF726
:100C300025FF4FF4F07004F041FE7868FFF70EFFD7
:100C4000402004F03BFE7868FFF741FF0346FB734A
:100C50004FF4D07004F032FE7868FFF738FF034697
:100C6000BB73FB7B5B005AB297F90E3013435BB248
:100C7000DBB218461037BD4680BD80B584B000AFEA
:100C8000F860B9601346FB80FB8802220021B86837
:100C900005F0D0FAFB68FA889A80FB68BA681A6097
:100CA000FB6800221A75FB6800225A75FB680C333A
:100CB00008220021184607F06FF9F868FFF7CEFE0A
:100CC000F868FFF7FBFE00BF1037BD4680BD00008F
:100CD00090B587B000AF78600B46FB707868FFF77F
:100CE0009EFF0346012B05D03D4807F0E1FC4FF085
:100CF0007E5371E0FB78002B04D1CC217868FFF79C
:100D000043FF18E055217868FFF73EFF0023FB758D
:100D10000EE0FB785A1EFB7D3249D2000A44134490
:100D20001B7819467868FFF72FFFFB7D0133FB75B1
:100D3000FB7D072BEDD9BE217868FFF725FF002347
:100D4000FB750DE0FC7D7868FFF73EFF03461A4611
:100D500007F11803234403F8102CFB7D0133FB75C6
:100D6000FB7D092BEED907F1080308211846FFF790
:100D700035FE0346BB753B7A7B757B7A3B753B7CC6
:100D8000BA7D9A4223D13B7C002B20D07B7D502B17
:100D90001DD03B7D052B1AD07A7D3B7D1B02134372
:100DA000184611F03FF902467B689A607B689B68A1
:100DB0004FF07651184611F089F903461A467B68C0
:100DC0009A607B6800225A754FF0000304E07B684C
:100DD00001225A754FF07E5318461C37BD4690BD10
:100DE000D0290108E00E002080B584B000AF786003
:100DF0000B46FB707868FFF712FFFB78002B04D1DD
:100E0000CC217868FFF7C0FE18E055217868FFF71D
:100E1000BBFE0023FB730EE0FB785A1EFB7B0B49E5
:100E2000D2000A4413441B7819467868FFF7ACFED9
:100E3000FB7B0133FB73FB7B072BEDD944217868E7
:100E4000FFF7A2FE00BF1037BD4680BDE00E0020B8
:100E500080B586B000AFF8600B467A60FB72F86828
:100E6000FFF7DDFE0346012B01D0FF2359E0F021FF
:100E7000F868FFF789FE00237B754023FB75082384
:100E8000BB75F868FFF73CFE03463B75F868FFF753
:100E900037FE0346002B0AD03B7D002B1CD0FB7D88
:100EA000BA7D1946214807F003FCFE2339E03B7D5B
:100EB000002B11D1FA7AFB7D9A4209D87B681B7806
:100EC00003F00103002B07D0FA7AFB7D9A4203D08E
:100ED00001233B75FB7D7B753B7D1946F868FFF769
:100EE00034FE7B681B785B08DAB27B681A703B7D46
:100EF000002B06D07B681B7863F07F03DAB27B6837
:100F00001A70FB7D013BFB75BB7D013BBB75BB7D57
:100F1000002BB6D17B6801337B60FB7D002BAED10B
:100F20007B7D18461837BD4680BD00BFEC290108FF
:100F300080B584B000AFF860B9607A60BB681B7898
:100F40007A681946F868FFF783FF03461A46BB68BC
:100F50001A70BB681B78FF2B07D0BB681B78FE2B71
:100F600003D0BB681B78002B00E000BF1037BD46E4
:100F700080BD000080B487B000AFF8600B467A6097
:100F8000FB72124B1B78DBB2FA7A9A4218D8FB7AC2
:100F9000002B15D00023FB750EE0FB7A591EFA7D5D
:100FA000FB7D786803440A48C90001440A4412786A
:100FB0001A70FB7D0133FB75FB7D072BEDD900E03B
:100FC00000BF1C37BD4680BC704700BF300F0020FB
:100FD000E00E002090B587B000AF7860214B002272
:100FE0001A70FF23FB722EE007F10C0207F10B03CE
:100FF00019467868FFF79CFFFB7AFF2B2BD0FB7A12
:10100000FE2B28D00023FB7513E0FA7D154B1B78CF
:10101000DBB21C46FB7D07F118010A4412F80C0CE8
:101020001149E2000A44134402461A70FB7D013361
:10103000FB75FB7D072BE8D90A4B1B78DBB201332C
:10104000DAB2084B1A70FB7A002B04D0054B1B78E0
:10105000DBB2092BC8D9034B1B78DBB218461C370F
:10106000BD4690BD300F0020E00E002080B500AFDF
:1010700040F2813005F0DAFA40F2023005F0D6FA9B
:101080004FF4407005F0D2FAC02301220021184825
:1010900005F0D0F84FF4FA71164805F024FC03214E
:1010A000144805F0DEFD01220021124805F0A6FDDE
:1010B000022201210F4805F0A1FD022200210D4866
:1010C00005F074FD022201210A4805F06FFD0021A0
:1010D000084805F069FD1D2006F0FCFA054805F0FA
:1010E000F3FB0121034805F0BBFB00BF80BD00BF3F
:1010F000000801400004004080B500AF40F282309B
:1011000005F094FA40F2033005F090FA4FF4407085
:1011100005F08CFAC02301220021184805F08AF856
:101120004FF4FA71164805F0DEFB0321144805F070
:1011300098FD01220021124805F060FD02220021E5
:101140000F4805F05BFD022200210D4805F02EFD41
:10115000022201210A4805F029FD0021084805F076
:1011600023FD1E2006F0B6FA054805F0ADFB01216F
:10117000034805F075FB00BF80BD00BF000C0140B7
:101180000008004080B500AF40F2833005F04EFA11
:1011900040F2023005F04AFA4FF4407005F046FA8A
:1011A000032301220021184805F044F84FF4FA7196
:1011B000164805F098FB0321144805F052FD012262
:1011C0000021124805F01AFD022200210F4805F007
:1011D00015FD022200210D4805F0E8FC0222012144
:1011E0000A4805F0E3FC0021084805F0DDFC322048
:1011F00006F070FA054805F067FB0121034805F089
:101200002FFB00BF80BD00BF00080140000C004064
:1012100080B500AFFFF72AFFFFF76EFFFFF7B2FFC1
:1012200000BF80BD80B500AF01210D4805F01CFB5B
:101230000346002B11D00121094805F01BFB094B87
:101240001B889BB201339BB2064A19461180B3F545
:10125000AF6F02D3034B00221A8000BF80BD00BFD6
:1012600000040040320F002080B500AF01210D487E
:1012700005F0FAFA0346002B11D00121094805F0C8
:10128000F9FA094B1B889BB201339BB2064A1946F7
:101290001180B3F5AF6F02D3034B00221A8000BF59
:1012A00080BD00BF00080040340F002080B500AFB3
:1012B00001210D4805F0D8FA0346002B11D0012179
:1012C000094805F0D7FA094B1B889BB201339BB242
:1012D000064A19461180B3F5AF6F02D3034B0022C3
:1012E0001A8000BF80BD00BF000C0040360F0020F8
:1012F00080B500AF40F2063005F098F903230122D3
:1013000000211C4804F096FF1B4B00221A702AE0B3
:10131000194B1B781A46184993000B440021597049
:10132000154B1B781846144993000B445978124A00
:10133000830013440A469A700F4B1B780E4A9B0099
:1013400013440022DA700C4B1B780B4A9B001344A9
:1013500000221A71084B0022DA60074B1B78013318
:10136000DAB2054B1A70044B1B78012BD0D900BFA1
:1013700080BD00BF00180140380F002080B485B048
:1013800000AF0346FB71FB79002B02D0012B17D075
:101390002DE0354B1B689BB203F00103FB81FB89F9
:1013A000002B06D1FB79314A9B00134401229A702D
:1013B0001DE0FB792D4A9B00134400229A7016E031
:1013C000294B1B689BB203F00203FB81FB89002BB6
:1013D00006D1FB79254A9B00134401229A7005E04F
:1013E000FB79224A9B00134400229A7000BFFB79CC
:1013F0001E4A9B0013449A78FB791C499B000B44BE
:101400005B789A4224D0FA79184993000B441B79EF
:101410000133D8B2154993000B4402461A71FB7987
:10142000124A9B0013441B790F2B17D1FB79FA79D1
:101430000E499B000B4498780C4993000B440246DC
:101440005A70FB79094A9B00134400221A7105E087
:10145000FB79064A9B00134400221A7100BF14371F
:10146000BD4680BC704700BF08180140380F0020FF
:1014700080B582B000AF0023FB71374B00221A7099
:1014800060E0354B1B781846FFF778FF324B1B782E
:10149000314A9B0013445B78012B25D12E4B1B78DE
:1014A0002D4A9B001344DB78002B15D12A4B1B7867
:1014B000002B02D0012B06D00BE00123FB71274843
:1014C00007F058F909E00323FB71254807F052F9AA
:1014D00003E00023FB7100E000BF1F4B1B781E4A96
:1014E0009B0013440122DA701B4B1B781A4A9B00A5
:1014F00013445B78002B1FD1174B1B78164A9B00B7
:101500001344DB78012B0FD1134B1B78002B02D037
:10151000012B03D005E00223FB7106E00423FB71DD
:1015200003E00023FB7100E000BF0B4B1B780A4A6D
:101530009B0013440022DA70074B1B780133DAB2A8
:10154000054B1A70044B1B78012B9AD9FB7918466E
:101550000837BD4680BD00BF380F0020142A01089F
:101560001C2A010880B500AF4FF4417005F05EF809
:101570004FF47063012200211B4804F05BFE1B4BFB
:1015800000221A702AE0194B1B781A46174993005B
:101590000B4400215970154B1B78184613499300D2
:1015A0000B445978114A830013440A469A700F4B32
:1015B0001B780E4A9B0013440022DA700B4B1B78F9
:1015C0000A4A9B00134400221A71084B00225A61F8
:1015D000064B1B780133DAB2044B1A70034B1B78AD
:1015E000032BD0D900BF80BD00100140480F002060
:1015F00080B485B000AF0346FB71FB79032B67D83D
:1016000001A252F823F000BF19160008471600087F
:1016100075160008A31600084B4B1B689BB203F419
:101620000063FB81FB89002B06D1FB79474A9B00B5
:10163000134401229A704BE0FB79444A9B00134407
:1016400000229A7044E0404B1B689BB203F4806315
:10165000FB81FB89002B06D1FB793C4A9B0013449C
:1016600001229A7034E0FB79384A9B00134400222F
:101670009A702DE0344B1B689BB203F48073FB819E
:10168000FB89002B06D1FB79304A9B0013440122D1
:101690009A701DE0FB792D4A9B00134400229A703A
:1016A00016E0294B1B689BB203F40073FB81FB8996
:1016B000002B06D1FB79254A9B00134401229A7026
:1016C00005E0FB79214A9B00134400229A7000BF79
:1016D000FB791E4A9B0013449A78FB791B499B00B7
:1016E0000B445B789A4224D0FA79184993000B4452
:1016F0001B790133D8B2154993000B4402461A7185
:10170000FB79124A9B0013441B790A2B17D1FB79F2
:10171000FA790E499B000B4498780C4993000B44CE
:1017200002465A70FB79094A9B00134400221A7141
:1017300005E0FB79054A9B00134400221A7100BFA3
:101740001437BD4680BC704708100140480F002088
:1017500080B582B000AF0023FB712F4B00221A70BE
:1017600050E02D4B1B781846FFF742FF2A4B1B78A1
:10177000294A9B0013445B78012B2ED1264B1B7802
:10178000254A9B001344DB78002B1ED1224B1B788B
:10179000032B17D801A252F823F000BFAD170008A1
:1017A000B3170008B9170008BF1700080123FB7121
:1017B0000CE00223FB7109E00323FB7106E0042324
:1017C000FB7103E00023FB7100E000BF124B1B78AC
:1017D000114A9B0013440122DA700F4B1B780E4A0A
:1017E0009B0013445B78002B06D10B4B1B780A4AF5
:1017F0009B0013440022DA70074B1B780133DAB2E6
:10180000054B1A70044B1B78032BAAD9FB79184699
:101810000837BD4680BD00BF480F002080B483B0AC
:1018200000AF03460A46FB711346BB71054AFB79BC
:101830001370054ABB79137000BF0C37BD4680BCDE
:10184000704700BF001000200110002080B483B05A
:1018500000AF0346FB711B4B1B78132B2CD81A4B84
:101860001B78032B28D8184B1B781946154B1B786F
:101870001846164A0B469B000B449B001344034436
:10188000FA791A700F4B1B780133DAB20D4B1A70CC
:101890000C4B1B78142B0FD10A4B00221A700A4BE9
:1018A0001B780133DAB2084B1A70074B1B78042BF4
:1018B00002D1054B00221A7000BF0C37BD4680BC18
:1018C000704700BF0010002001100020600F0020B2
:1018D00080B483B000AF0123FB7116E00023BB711D
:1018E0000DE0FA79B979104813469B0013449B0028
:1018F00003440B4420221A70BB790133BB71BB79BE
:10190000132BEED9FB790133FB71FB79032BE5D95E
:10191000064B00221A70064B00221A7000BF0C37CB
:10192000BD4680BC704700BF600F00200010002043
:1019300001100020B0B582B000AF0023FB7159E068
:10194000FB7919460020FEF737FD0023BB714BE001
:10195000FA79B9792B4813469B0013449B00034442
:101960000B441978FA79B879274C13469B00134435
:101970009B00234403441B7899422FD0234B1B78B0
:10198000002B05D1FA79BB7911461846FEF714FDF4
:10199000FA79B9791B4813469B0013449B00034412
:1019A0000B441B781846FEF757FCF979BC79FA7995
:1019B000B879144D0B469B000B449B002B442344E9
:1019C0001C78114913469B0013449B000B440344AD
:1019D00022461A700D4B01221A7002E00B4B0022B6
:1019E0001A70BB790133BB71BB79132BB0D9FB796A
:1019F0000133FB71FB79032BA2D900BF0837BD4629
:101A0000B0BD00BF600F0020B00F0020021000200A
:101A100080B582B000AF786006E07B685A1C7A60BF
:101A20001B781846FFF712FF7B681B78002BF4D158
:101A300000BF0837BD4680BD80B582B000AF034609
:101A40003A60FB710B46BB71BA79FB7911461846B7
:101A5000FFF7E4FE06E03B685A1C3A601B78184624
:101A6000FFF7F4FE3B681B78002BF4D100BF08376A
:101A7000BD4680BD80B584B000AF0346FB71FB79E5
:101A800007F108010A22184606F0E4F807F10803F6
:101A90001846FFF7BDFF00BF1037BD4680BD0000F0
:101AA00090B583B000AF40F2063004F0BFFD0C23C8
:101AB00001220021104804F0BDFB0023FB7114E05B
:101AC000FC79FB79184600F01FF803461A460B4BC9
:101AD0001A55FB790A4A002142F82310FB79094A7A
:101AE0000021D154FB790133FB71FB79032BE7D93A
:101AF00000BF0C37BD4690BD0018014014100020F7
:101B0000041000201810002080B485B000AF0346F8
:101B1000FB71FB79002B02D0012B07D00DE00D4BA0
:101B20001B68DBB203F00403FB7308E0094B1B687E
:101B3000DBB203F00803FB7301E0002305E0FB7B4D
:101B4000002B0CBF01230023DBB218461437BD461F
:101B500080BC70470818014080B584B000AF03F026
:101B60006BFEB8600023FB7333E0FB7B1846FFF786
:101B7000CBFF0346FB71FB7B194AD35CFA799A428F
:101B80000DD0FB7B1749BA6841F82320FB7B144931
:101B9000FA79CA54FB7B144A0021D15416E0FB7930
:101BA000002B13D0FB7B104AD35C83F00103DBB224
:101BB000002B0BD0FB7B0B4A52F82330BA68D31AA8
:101BC000312B03D9FB7B084A0121D154FB7B013324
:101BD000FB73FB7B032BC8D900BF1037BD4680BD0C
:101BE00014100020041000201810002080B586B0CA
:101BF00000AFF860B9607A60FB68012B02D0FB6827
:101C0000022B1BD100237B6112E07B69BA6813446D
:101C10001B780A2B02D10D20FEF750FD7B69BA68B4
:101C200013441B781846FEF749FD7B6901337B613D
:101C30007A697B689A42E8DB7B6906E005F0E6FF9B
:101C40000246052313604FF0FF3318461837BD4690
:101C500080BD000080B584B000AF00F05FF803F0F5
:101C6000C5FDFEF78BFE03F0BBFE03F08DFAFEF719
:101C700087FC00F047F83B46184603F027FF07F1C2
:101C80000803184603F022FF3B464FF4FA7118464A
:101C900003F034FF0346002B01D1FFF74BFE03F0A6
:101CA000C9FA07F108034FF47A71184603F026FFCA
:101CB0000346002B14D10D4B1B889BB219460C48D0
:101CC00006F0F6FC0B4B1B889BB219460A4806F03F
:101CD000EFFC0A4B1B889BB21946094806F0E8FC4A
:101CE000FEF7A8FC04F034FBCEE700BF320F002063
:101CF0004C2A0108340F0020582A0108360F002012
:101D0000642A010880B500AF04F022FB41F288305C
:101D100004F0ECFA04F0D2FA00BF80BD80B500AF49
:101D200004F03EFC40F2023004F080FC40F203304C
:101D300004F07CFC4FF4417004F078FC40F2053074
:101D400004F074FC4FF4407004F070FC40F20B306F
:101D500004F06CFC40F2813004F068FC00214FF08C
:101D6000007004F099FA00BF80BD000080B582B019
:101D700000AF14222D213E4806F00EF93D4B1B68A2
:101D80001B69002B22D03B4B1B681B69DB687B6007
:101D90007B681B691B68184606F016FD0346C3F1F5
:101DA00014035B08BB70BB78013B00211846FFF7AA
:101DB00035FD2020FFF74AFD7B681B691B6818462C
:101DC000FFF726FE2020FFF741FD0AE02A4B7B604B
:101DD0000823BB70BB78013B284A00211846FFF757
:101DE0002BFE0023FB7005E07B685B687B60FB7863
:101DF0000133FB70FA78224B1B781946214B1B7874
:101E0000CB1A9A42F0D1FFF763FD0123FB7023E068
:101E1000FB7819460020FFF701FD164B1B687A6816
:101E20009A4203D13E20FFF711FD02E02020FFF788
:101E30000DFDFB7819460220FFF7F0FC7B681B685C
:101E40001846FFF7E5FD7B685B687B607B68002BCD
:101E500006D0FB780133FB70FB78032BD8D900E068
:101E600000BFFFF767FD00BF0837BD4680BD00BF5C
:101E7000600F0020A40100200C0000203C2B010872
:101E80001C1000201D10002080B485B000AF7860C9
:101E90000023FB727B681B69002B04D07B681B69E5
:101EA000DB68FB6008E0094BFB6005E0FB685B68F2
:101EB000FB60FB7A0133FB72FA687B689A42F5D1CA
:101EC000FB7A18461437BD4680BC70470C000020D2
:101ED00080B485B000AF78607B68FB600023FB7244
:101EE0007B681B69002B07D100230AE0FB681B6994
:101EF000FB60FB7A0133FB72FB681B69002BF5D199
:101F0000FB7A18461437BD4680BC704780B500AFD9
:101F10001B4B1B685B68002B18D0194B1B685B6858
:101F2000174A1360174B1B780133DAB2154B1A703E
:101F3000154B1B780133DAB2134B1A70124B1B7816
:101F4000022B18D9104B02221A7014E00D4B0022FC
:101F50001A700D4B00221A70094B1B681B69002B6D
:101F600006D0074B1B681B69DB68054A136002E05B
:101F7000034B064A1A60FFF7F9FE00BF80BD00BFA1
:101F8000A40100201C1000201D1000200C000020C7
:101F900080B500AF194B1B689B68184A1360184B3B
:101FA0001B78002B10D0164B1B78013BDAB2144B78
:101FB0001A70144B1B78002B1BD0124B1B78013B63
:101FC000DAB2104B1A7014E00C4B1B681846FFF77E
:101FD0005BFF03461A460A4B1A70094B1B78012B0C
:101FE00003D9084B02221A7003E0054B1A78054BFF
:101FF0001A70FFF7BBFE00BF80BD00BFA401002028
:102000001C1000201D10002080B500AF184B1B686D
:102010005B69002B03D0164B1B685B699847144B18
:102020001B68DB68002B21D0114B1B681846FFF79B
:102030004FFF0346002B02D0012B05D009E00D4BCA
:102040001A780D4B1A7004E00A4B1A780B4B1A7071
:1020500000BF0B4B00221A70064B00221A70044B73
:102060001B68DB68024A1360FFF780FE00BF80BD7B
:10207000A40100201D1000201E1000201F100020B1
:102080001C10002080B500AF154B1B681B69002B8E
:1020900024D0134B1B681846FFF71AFF0346012B89
:1020A00002D0022B05D009E00E4B1A780E4B1A70A5
:1020B00004E00E4B1A780C4B1A7000BF084B1B68DB
:1020C0001B69074A1360064B1B681846FFF7DCFEC6
:1020D00003461A46064B1A70FFF748FE00BF80BD44
:1020E000A40100201E1000201D1000201F10002041
:1020F0001C10002090B587B000AF78600523FB75F9
:1021000014222D211D4805F047FFFB7D1C4A0021AC
:102110001846FFF791FCFFF7DBFB78680FF028FB10
:1021200003460C4607F10C001A462346154906F0F3
:1021300029FBFB7D0233DBB201211846FFF76EFB62
:1021400007F10C031846FFF763FC0F4A0321062032
:10215000FFF772FC0D4A03210D20FFF76DFC0C4ABE
:1021600003210020FFF768FC0A4A03211020FFF733
:1021700063FC00BF1C37BD4690BD00BF600F002050
:10218000442B0108502B01085C2B0108602B01082F
:10219000642B01086C2B010880B400AF064BD3F808
:1021A0000630064A1360044BD3F80A30044A136021
:1021B00000BFBD4680BC7047D00E00202C10002010
:1021C0003010002080B500AF194B1B684FF00001A4
:1021D000184610F019F90346002B08D0144B1B6861
:1021E0001449184610F02EF90346002B1ED1104B4F
:1021F0001B681049184610F007F90346002B0BD056
:102200000B4B1B684FF07C5118460FF057FE0346EE
:102210001A46074B1A6003E0054B4FF000021A60A4
:10222000034B1B681846FFF765FF00E000BF80BD49
:102230002C1000200000A04180B500AF194B1B6896
:102240004FF00001184610F0DFF80346002B08D0CD
:10225000144B1B681449184610F0F4F80346002B81
:102260001ED1104B1B684FF00001184610F0EAF821
:102270000346002B0BD00B4B1B684FF07C511846CC
:102280000FF01AFE03461A46064B1A6002E0054B91
:10229000054A1A60034B1B681846FFF72BFF00E046
:1022A00000BF80BD2C1000200000A04180B500AF11
:1022B000194B1B684FF00001184610F0A5F80346B3
:1022C000002B08D0144B1B681449184610F0BAF8BC
:1022D0000346002B1ED1104B1B681049184610F006
:1022E00093F80346002B0BD00B4B1B684FF07C512F
:1022F00018460FF0E3FD03461A46074B1A6003E049
:10230000054B4FF000021A60034B1B681846FFF79D
:10231000F1FE00E000BF80BD301000200000A041B1
:1023200080B500AF194B1B684FF00001184610F044
:102330006BF80346002B08D0144B1B681449184651
:1023400010F080F80346002B1ED1104B1B684FF095
:102350000001184610F076F80346002B0BD00B4B0B
:102360001B684FF07C5118460FF0A6FD03461A4635
:10237000064B1A6002E0054B054A1A60034B1B68C6
:102380001846FFF7B7FE00E000BF80BD3010002008
:102390000000A04180B500AF0D4B1A680D4BC3F88B
:1023A00006200D4B01221A700C4A02210720FFF76C
:1023B00043FB0B4A03210020FFF73EFB054BD3F8FC
:1023C0000630084A1360FEF791FA00BF80BD00BFD7
:1023D0002C100020D00E002034100020742B010897
:1023E0007C2B0108DC14002080B500AF0D4B1A686F
:1023F0000D4BC3F80A200D4B01221A700C4A022122
:102400000720FFF719FB0B4A03210020FFF714FBFD
:10241000054BD3F80A30084A1360FEF767FA00BF8D
:1024200080BD00BF30100020D00E002034100020EE
:10243000742B01087C2B0108E014002080B500AF4C
:10244000074B084A1A60084B084A1A60084B094AA9
:102450001A60094B094A1A60FFF788FC00BF80BD6B
:10246000B40100200D1F0008B8010020911F0008D2
:10247000BC01002009200008C001002085200008C0
:1024800080B500AF094B0A4A1A600A4B0A4A1A6023
:102490000A4B0B4A1A600B4B0B4A1A600B4B1B681A
:1024A0001846FFF727FE00BF80BD00BFB401002023
:1024B000C5210008B801002039220008BC01002015
:1024C00095230008C00100203D2400082C100020A6
:1024D00080B500AF094B0A4A1A600A4B0A4A1A60D3
:1024E0000A4B0B4A1A600B4B0B4A1A600B4B1B68CA
:1024F0001846FFF7FFFD00BF80BD00BFB4010020FC
:10250000AD220008B801002021230008BC010020F2
:10251000E9230008C00100203D24000830100020FD
:1025200080B400AF074B084A1068516803C3074BDB
:1025300000221A70064B00221A7000BFBD4680BCF4
:10254000704700BF20100020C80E00203610002069
:102550003710002080B586B002AF0523FB7314222C
:102560002D214C4805F018FDFB7B4B4A00211846F5
:10257000FFF762FAFFF7ACF9484B93F905301A46BA
:10258000464B93F906301946444B93F90730381DF2
:1025900000930B46424906F0F5F83A1DFB7B0121FA
:1025A0001846FFF749FA3F4B1B78052B6DD801A25F
:1025B00052F823F08B260008CD250008FF250008DF
:1025C000312600086326000879260008FB7B0233C9
:1025D000DBB2354A02211846FFF72EFAFB7B0133A6
:1025E000DBB2324A03211846FFF726FAFB7B083399
:1025F000DBB22F4A03211846FFF71EFA46E0FB7BA9
:102600000533DBB2284A02211846FFF715FAFB7B97
:102610000133DBB2254A03211846FFF70DFAFB7B95
:102620000833DBB2224A03211846FFF705FA2DE0F2
:10263000FB7B0833DBB21C4A02211846FFF7FCF98A
:10264000FB7B0133DBB2194A03211846FFF7F4F98B
:10265000FB7B0833DBB2164A03211846FFF7ECF97F
:1026600014E0144A03210020FFF7E6F9124A03217F
:102670001020FFF7E1F909E0FB7B0233DBB20F4AE0
:1026800002211846FFF7D8F900E000BF00BF10375D
:10269000BD4680BD600F0020842B01082010002063
:1026A000902B010836100020A42B01085C2B010898
:1026B000602B0108642B01086C2B0108742B0108A6
:1026C00080B500AF154B1B78052B24D8134B1B7816
:1026D0000133DAB2114B1A70104B1B78052B02D95B
:1026E0000E4B00221A700D4B1B78052B10D103F0F6
:1026F00037FE0B4B93F90530DBB2073BDBB25AB226
:10270000074B5A7107210648FEF779F803F030FEAF
:10271000FFF720FF00E000BF80BD00BF36100020A3
:102720002010002080B500AF2B4B1B78022B1AD055
:10273000032B2FD0012B44D1284B93F90530172BB5
:1027400041DC264B93F90530DBB20133DBB25AB2E0
:10275000224B5A71214B93F90530172B33DD1F4B58
:1027600000225A712FE01D4B93F906303B2B2CDCD5
:102770001A4B93F90630DBB20133DBB25AB2174B76
:102780009A71164B93F906303B2B1EDD134B00223A
:102790009A711AE0114B93F907303B2B17DC0F4B62
:1027A00093F90730DBB20133DBB25AB20B4BDA716B
:1027B0000A4B93F907303B2B09DD084B0022DA71F5
:1027C00005E000BF04E000BF02E000BF00E000BF82
:1027D000FFF7C0FE00BF80BD361000202010002093
:1027E00080B500AF2B4B1B78022B1AD0032B2FD0B8
:1027F000012B44D1284B93F90530002B41DB264BAC
:1028000093F90530DBB2013BDBB25AB2224B5A716D
:10281000214B93F90530002B33DA1F4B17225A71E5
:102820002FE01D4B93F90630002B2CDB1A4B93F94C
:102830000630DBB2013BDBB25AB2174B9A71164B32
:1028400093F90630002B1EDA134B3B229A711AE0E3
:10285000114B93F90730002B17DB0F4B93F907301F
:10286000DBB2013BDBB25AB20B4BDA710A4B93F984
:102870000730002B09DA084B3B22DA7105E000BF74
:1028800004E000BF02E000BF00E000BFFFF762FE0F
:1028900000BF80BD361000202010002080B500AFA2
:1028A000074B084A1A60084B084A1A60084B094A45
:1028B0001A60094B094A1A60FFF758FA00BF80BD39
:1028C000B40100200D1F0008B8010020911F00086E
:1028D000BC01002009200008C0010020852000085C
:1028E00080B500AF074B084A1A60084B084A1A60C7
:1028F000084B094A1A60094B094A1A60FFF72AFE79
:1029000000BF80BDBC010020C1260008B40100202A
:1029100025270008B8010020E1270008C001002099
:102920009D28000880B586B002AF0523FB731422F2
:102930002D214C4805F030FBFB7B4B4A002118460B
:10294000FFF77AF8FEF7C4FF484B93F903301A46B5
:10295000464B93F902301946444BB3F900303846E0
:1029600000930B46424905F00DFF3A46FB7B0121DF
:102970001846FFF761F83F4B1B78052B6DD801A275
:1029800052F823F05B2A00089D290008CF2900088F
:10299000012A0008332A0008492A0008FB7B01337A
:1029A000DBB2354A02211846FFF746F8FB7B0133BC
:1029B000DBB2324A03211846FFF73EF8FB7B0833AF
:1029C000DBB22F4A03211846FFF736F846E0FB7BBF
:1029D0000433DBB2284A02211846FFF72DF8FB7BAF
:1029E0000133DBB2254A03211846FFF725F8FB7BAC
:1029F0000833DBB2224A03211846FFF71DF82DE009
:102A0000FB7B0933DBB21C4A02211846FFF714F89E
:102A1000FB7B0133DBB2194A03211846FFF70CF8A0
:102A2000FB7B0833DBB2164A03211846FFF704F894
:102A300014E0144A03210020FEF7FEFF124A03218E
:102A40001020FEF7F9FF09E0FB7B0233DBB20F4AEF
:102A500002211846FEF7F0FF00E000BF00BF10376C
:102A6000BD4680BD600F0020A82B0108201000206B
:102A7000B42B010837100020A42B01085C2B01089F
:102A8000602B0108642B01086C2B0108742B0108D2
:102A900080B500AF154B1B78052B24D8134B1B7842
:102AA0000133DAB2114B1A70104B1B78052B02D987
:102AB0000E4B00221A700D4B1B78052B10D103F022
:102AC0004FFC0B4B93F90530DBB2073BDBB25AB23C
:102AD000074B5A7107210648FDF791FE03F048FCA9
:102AE000FFF720FF00E000BF80BD00BF37100020CF
:102AF0002010002080B582B000AF5B4B1B78022B0A
:102B000071D0032B00F08680012B40F09F80574B43
:102B100093F903301F2B00F39B80544B93F9023041
:102B2000022B01D11C23FB71504B93F90230022B75
:102B30000AD14E4BB3F900309BB203F003039BB2B2
:102B4000002B01D11D23FB71484B93F90230042B5C
:102B50000ED0464B93F90230062B09D0434B93F924
:102B60000230092B04D0414B93F902300B2B01D1D9
:102B70001E23FB713D4B93F90230012B1DD03B4BC3
:102B800093F90230032B18D0384B93F90230052B00
:102B900013D0364B93F90230072B0ED0334B93F9F9
:102BA0000230082B09D0314B93F902300A2B04D0A4
:102BB0002E4B93F902300C2B01D11F23FB712B4BB1
:102BC00093F90330DBB20133DBB25AB2274BDA7030
:102BD000264B93F903301A46FB799A4238DD234B92
:102BE0000122DA7034E0214B93F902300C2B31DCF6
:102BF0001E4B93F90230DBB20133DBB25AB21B4BEE
:102C00009A701A4B93F902300C2B23DD174B0122DB
:102C10009A701FE0154BB3F9003040F60202934260
:102C20001ADC124BB3F900309BB201339BB21AB2DB
:102C30000E4B1A800D4BB3F9003040F6020293425E
:102C40000ADD0A4B40F2E2721A8005E000BF04E0A0
:102C500000BF02E000BF00E000BFFFF763FE00BF5F
:102C60000837BD4680BD00BF37100020201000206F
:102C700080B582B000AF5A4B1B78022B6FD0032B6C
:102C800000F08480012B40F09D80564B93F9023078
:102C9000022B01D11C23FB71524B93F90230022B02
:102CA0000AD1504BB3F900309BB203F003039BB23F
:102CB000002B01D11D23FB714A4B93F90230042BE9
:102CC0000ED0484B93F90230062B09D0454B93F9AF
:102CD0000230092B04D0434B93F902300B2B01D166
:102CE0001E23FB713F4B93F90230012B1DD03D4B4E
:102CF00093F90230032B18D03A4B93F90230052B8D
:102D000013D0384B93F90230072B0ED0354B93F983
:102D10000230082B09D0334B93F902300A2B04D030
:102D2000304B93F902300C2B01D11F23FB712D4B3B
:102D300093F90330002B47DD2A4B93F90330DBB2C4
:102D4000013BDBB25AB2274BDA70264B93F90330C2
:102D5000002B39DC97F90720224BDA7034E0214B45
:102D600093F90230002B31DD1E4B93F90230DBB2B8
:102D7000013BDBB25AB21B4B9A701A4B93F90230EB
:102D8000002B23DC174B0C229A701FE0154BB3F974
:102D9000003040F2E17293421ADD124BB3F9003079
:102DA0009BB2013B9BB21AB20E4B1A800D4BB3F98A
:102DB000003040F2E17293420ADC0A4B40F6020214
:102DC0001A8005E000BF04E000BF02E000BF00E0A1
:102DD00000BFFFF7A7FD00BF0837BD4680BD00BF9D
:102DE000371000202010002080B500AF074B084AA4
:102DF0001A60084B084A1A60084B094A1A60094BC6
:102E0000094A1A60FEF7B2FF00BF80BDB40100207E
:102E10000D1F0008B8010020911F0008BC01002010
:102E200009200008C00100208520000880B500AFFF
:102E3000074B084A1A60084B084A1A60084B094AAF
:102E40001A60094B094A1A60FFF76CFD00BF80BD8C
:102E5000BC010020912A0008B4010020F52A0008D6
:102E6000B8010020712C0008C0010020E92D0008E5
:102E700080B500AF0120FDF7D3FA00BF80BD80B55B
:102E800000AF0020FDF7CCFA00BF80BD80B500AFD9
:102E9000084B1B684DF2D762934206D8054B1B685E
:102EA00003F5AB531C33034A136000F03DF800BF39
:102EB00080BD00BF2810002080B500AF084B1B6804
:102EC00041F27B52934206D9054B1B68A3F5AB53E5
:102ED0001C3B034A136000F027F800BF80BD00BF11
:102EE0002810002080B500AF074B084A1A60084B35
:102EF000084A1A60084B094A1A60094B094A1A60C5
:102F0000FEF734FF00BF80BDB40100200D1F000894
:102F1000B8010020911F0008BC0100200920000812
:102F2000C00100208520000880B582B000AF214B91
:102F30001B685B08204AA2FB0323DB09FB711F4AC5
:102F400000210020FEF778FDFEF7C2FCFB791C4A49
:102F5000A2FB0323DB08DBB21A46FF21194805F068
:102F60001BF8FB79164AA2FB0323DB08DBB208330C
:102F70002833154A9818FB79114AA2FB0323DB0872
:102F8000DBB2C3F10A031A462D2105F005F8022130
:102F90000220FEF743FCFB791846FEF76BFD022189
:102FA0000520FEF73BFC2520FEF750FC00BF08374C
:102FB000BD4680BD2810002073072877C42B010868
:102FC000CDCCCCCC900F0020600F002080B500AF9E
:102FD000074B084A1A60084B084A1A60084B00223F
:102FE0001A60084B084A1A60FFF79EFF00BF80BDB9
:102FF000B40100208D2E0008B8010020B92E000871
:10300000BC010020C0010020E52E000880B586B07C
:1030100000AF0346FB710523FB7514222D211B48CD
:1030200004F0BAFFFB7D1A4A00211846FEF704FDA2
:10303000FEF74EFCFA7907F10C031649184605F025
:10304000A1FBFB7D0533DBB201211846FEF7E6FB51
:1030500007F10C031846FEF7DBFC0F4A032106209C
:10306000FEF7EAFC0D4A03210D20FEF7E5FC0C4AB1
:1030700003210020FEF7E0FC0A4A03211020FEF79E
:10308000DBFC00BF1837BD4680BD00BF600F0020CD
:10309000DC2B0108EC2B01085C2B0108602B0108DC
:1030A000642B01086C2B010880B400AF054B1A7922
:1030B000054B1A70034B5A79044B1A7000BFBD467A
:1030C00080BC7047D00E002035100020A8010020E1
:1030D00080B500AF0E4B1B78002B03D10C4B1B7837
:1030E000022B13D80A4B1B78012B06D8084B1B78F0
:1030F0000133DAB2064B1A7002E0054B01221A7056
:10310000034B1B781846FFF781FF00E000BF80BD2E
:10311000A801002080B500AF0E4B1B78002B03D117
:103120000C4B1B78022B13D80A4B1B78012B06D9AA
:10313000084B1B78013BDAB2064B1A7002E0054BD4
:1031400002221A70034B1B781846FFF75FFF00E05E
:1031500000BF80BDA801002080B500AF084B1A78E1
:10316000084B5A71084A02210720FEF765FC074AFE
:1031700003210020FEF760FCFDF7B8FB00BF80BD17
:10318000A8010020D00E0020742B01087C2B010820
:1031900080B500AF074B084A1A60084B084A1A600E
:1031A000084B094A1A60094B094A1A60FEF7DEFD0E
:1031B00000BF80BDB40100200D1F0008B801002031
:1031C000911F0008BC01002009200008C001002058
:1031D0008520000880B500AF094B0A4A1A600A4BE7
:1031E0000A4A1A600A4B0B4A1A600B4B0B4A1A60C8
:1031F0000B4B1B781846FFF709FF00BF80BD00BFCF
:10320000B4010020D1300008B801002015310008B9
:10321000BC01002059310008C00100209131000894
:10322000A801002080B586B000AF0346FB710523DE
:10323000FB7514222D21164804F0AEFEFB7D154AC5
:1032400000211846FEF7F8FBFEF742FBFA7907F17A
:103250000C031149184605F095FAFB7D0533DBB2E6
:1032600001211846FEF7DAFA07F10C031846FEF7BB
:10327000CFFB0A4A03210020FEF7DEFB084A0321A8
:103280001020FEF7D9FB00BF1837BD4680BD00BF38
:10329000600F0020F02B0108EC2B0108FC2B01082B
:1032A0006C2B010880B500AF074B00221A70064B4B
:1032B0001A78064B1A71044B1B781846FFF7B2FFB9
:1032C000FDF714FB00BF80BD35100020D00E00209C
:1032D00080B500AF074B084A1A60084B084A1A60CD
:1032E000084B094A1A60094B094A1A60FEF73EFD6D
:1032F00000BF80BDB40100200D1F0008B8010020F0
:10330000911F0008BC01002009200008C001002016
:103310008520000880B500AF064B074A1A60074BAE
:10332000074A1A60074B1B781846FFF77BFF00BF60
:1033300080BD00BFBC010020A5320008C0010020F4
:10334000D13200083510002080B500AF40F20B30BC
:1033500003F06CF940F2023003F068F94FF440706A
:1033600003F064F94FF4E06302220321384802F0CD
:1033700061FF002320220021364803F07EFA11214C
:10338000344803F0AEFA07220021324803F0ADFAC8
:103390000021304803F0C8FB01212E4803F0C4FB94
:1033A000072202212B4803F0A0FA0221294803F04A
:1033B000BBFB0321274803F0B7FB07220421254864
:1033C00003F093FA0421234803F0AEFB05212148C2
:1033D00003F0AAFB1F4803F0DCFB1E4803F060FA71
:1033E00064211C4803F07FFA00211A4803F05DFBBA
:1033F00032220021174803F0BCFB002200211548AF
:1034000003F0B7FB0221134803F04FFB32220221E5
:10341000104803F0AEFB002202210E4803F0A9FB86
:1034200004210C4803F041FB32220421094803F037
:10343000A0FB00220421074803F09BFB0121054863
:1034400003F0ACFB034803F03FFA00BF80BD00BFB0
:1034500000080140002C014080B582B000AF304B25
:10346000304A1A602E4B304A9A602D4B4FF48072CE
:103470009A802B4B4FF400529A81294B294A5A616A
:10348000274B294ADA61264B4FF400721A83244BEA
:103490004FF480421A84224B224A9A62204B224ADD
:1034A0001A631F4B4FF480629A851D4B4FF4004204
:1034B0009A8640F2033003F0B9F84FF460430022DB
:1034C0000321194802F0B6FE154B9B891946164890
:1034D00002F0EEFE124B1B8C1946134802F0E8FE78
:1034E0000F4B9B891946104802F0E2FE0023FB7146
:1034F0000CE0FA790A4913469B0013449B000B44E5
:10350000113300221A70FB790133FB71FB793B2BDD
:10351000EFD9FFF719FF00BF0837BD4680BD00BFD8
:103520003810002000080140000C014080B483B036
:1035300000AF03460A46FB711346BB71FB79012BB2
:1035400007D0022B0AD0002B0DD10A4ABB79537445
:103550000AE0084ABB7982F8253005E0054ABB79C4
:1035600082F8393000E000BF00BF0C37BD4680BC98
:10357000704700BF3810002080B483B000AF03460E
:103580000A46FB711346BB71FB79012B07D0022B56
:103590000AD0002B0DD10A4ABB7993740AE0084A7D
:1035A000BB7982F8263005E0054ABB7982F83A30CB
:1035B00000E000BF00BF0C37BD4680BC704700BFB5
:1035C0003810002080B582B000AF0346FB71FB7954
:1035D000012B1BD0022B32D0002B49D100212748D0
:1035E00003F07DFA0021254803F045FA244B9B7C2B
:1035F0001A460021214803F0BCFA214B9A68204B5F
:103600009B891946104602F053FE32E002211B4806
:1036100003F065FA0221194803F02DFA184B93F8CC
:1036200026301A460221154803F0A3FA144BDA6932
:10363000134B1B8C1946104602F03AFE19E0042188
:103640000E4803F04CFA04210C4803F014FA0C4B1A
:1036500093F83A301A460421084803F08AFA084BD6
:103660001A6B074B9B8E1946104602F021FE00E0B4
:1036700000BF00BF0837BD4680BD00BF002C014021
:103680003810002080B582B000AF0346FB71FB7993
:10369000012B1BD0022B32D0002B49D1002127480F
:1036A00003F01DFA0021254803F0E5F9244B9B7C2B
:1036B0001A460021214803F05CFA214B9A68204BFE
:1036C0009B891946104602F0F1FD32E002211B48A9
:1036D00003F005FA0221194803F0CDF9184B93F8CD
:1036E00026301A460221154803F043FA144BDA69D2
:1036F000134B1B8C1946104602F0D8FD19E004212B
:103700000E4803F0ECF904210C4803F0B4F90C4B1B
:1037100093F83A301A460421084803F02AFA084B75
:103720001A6B074B9B8E1946104602F0BFFD00E056
:1037300000BF00BF0837BD4680BD00BF002C014060
:103740003810002080B582B000AF0346FB71FB79D2
:10375000012B0CD0022B13D0002B1AD100210F48C3
:1037600003F0E2F900210D4803F09FF912E0022175
:103770000A4803F0D9F90221084803F096F909E054
:103780000421064803F0D0F90421044803F08DF920
:1037900000E000BF00BF0837BD4680BD002C0140DF
:1037A00080B582B000AF0346FB71FB79012B14D0CA
:1037B000022B23D0002B32D100211B4803F0B4F997
:1037C0000021194803F071F9184B9A68174B9B892F
:1037D0001946104602F06CFD22E00221124803F067
:1037E000A3F90221104803F060F9104BDA690F4B7E
:1037F0001B8C1946104602F05BFD11E004210A48BB
:1038000003F092F90421084803F04FF9074B1A6BB3
:10381000064B9B8E1946104602F04AFD00E000BFA1
:1038200000BF0837BD4680BD002C01403810002085
:1038300080B582B000AF03460A46FB711346BB71E8
:10384000BA79FB7911461846FFF770FEFA791149EB
:1038500013469B0013449B000B4411331B78012B30
:1038600008D0022B0BD0002B0ED1FB791846FFF7A6
:1038700097FF0AE0FB791846FFF7A4FE05E0FB7905
:103880001846FFF7FFFE00E000BF00BF0837BD4647
:1038900080BD00BF3810002090B589B008AFFFF799
:1038A000DBFDFDF7B5FCFDF723FD00F0ADFEFEF7F7
:1038B000F7F800210020FFF739FE32210020FFF742
:1038C0005BFE0020FFF76CFF00210120FFF72EFEBA
:1038D00032210120FFF750FE0120FFF761FF01F0C8
:1038E0008BF801F09DF83C4B00221A723A4B0022F3
:1038F000DA60394B00225A72384B00221A72374B69
:103900000022DA60354B00225A72334802F0DEF8AA
:10391000002306932EA4D4E90034CDE904344FF0FB
:1039200000032F4CCDE902344FF000032C4CCDE9BD
:1039300000342C4B2C4A2D492D4800F0CBFA0121A4
:103940002B4800F009FE6421294800F026FE4FF0C4
:103950000003284CCDE900344FF000024FF0000383
:10396000234800F003FB1D4802F0B0F80023069343
:1039700017A4D4E90034CDE904344FF00003184C07
:10398000CDE902344FF00003154CCDE900341A4B59
:103990001A4A1B491B4800F09DFA0121194800F002
:1039A000DBFD6421174800F0F8FD4FF00003114CD7
:1039B000CDE900344FF000024FF00003114800F051
:1039C000D5FA00BF0437BD4690BD00BFAFF30080FD
:1039D000333333333333D33F74100020841000204B
:1039E0000000F03F201100201811002010110020CD
:1039F0009810002000004940B0110020A8110020BC
:103A0000A01100202811002080B582B000AF03462D
:103A1000FB71FB79012B12D1164B1B7A002B01D0C5
:103A2000002322E0134B02221A722D210020FFF7FF
:103A3000A3FD01210020FFF7FBFE012315E0FB7928
:103A4000022B12D10C4B1B7A002B01D000230CE06F
:103A5000094B02221A722D210120FFF78DFD012151
:103A60000120FFF7E5FE0123FFE718460837BD46B2
:103A700080BD00BF741000208410002080B582B08B
:103A800000AF0346FB71FEF767F8FB79012B35D1D8
:103A90002F4B1B7A022B31D12E4B1B78002B2DD0B4
:103AA0002D4804F067FE4FF400412C4802F0FEFB65
:103AB00000210020FFF760FD01210020FFF7B8FE84
:103AC000234B00229A72224B0022DA60204B002204
:103AD0001A72234B00221A80224801F0F7FF1C4B78
:103AE0005B7A012B0AD11E4B1B889BB205339BB21C
:103AF0001BB201220121012000F03CF8FB79022BCE
:103B000021D1194B1B7A022B1DD1124B5B78002B54
:103B100019D0164804F02EFE0120FFF713FE124BB9
:103B200000229A72104B0022DA60114B00221A8098
:103B30000D4B00221A724FF40041084802F0B6FB08
:103B4000084801F0C3FF00BF0837BD4680BD00BF75
:103B50007410002018100020142C010800140140DB
:103B6000320F0020BC11002084100020202C0108FE
:103B7000340F002090B587B000AF044608461146C8
:103B80001A462346FB710346BB710B467B711346F5
:103B90007B80FB79012B1BD11F4B01221A72BB7951
:103BA000B7F9022002FB03F318460DF0CFFD0346E0
:103BB0000C46C7E90434194AD7E90434C2E9003491
:103BC0007B79002B14BF01230023DAB2124B9A72C7
:103BD000FB79022B1BD1124B01221A72BB79B7F968
:103BE000022002FB03F318460DF0B0FD03460C461D
:103BF000C7E902340B4AD7E90234C2E900347B79C1
:103C0000002B14BF01230023DAB2054B9A7200BFC8
:103C10001C37BD4690BD00BF74100020201100204D
:103C200084100020B011002090B583B000AF03468F
:103C3000FB71534B1B7A012B4CD1524B1B889BB20F
:103C400018460DF073FD03460C464F4AC2E9003496
:103C50004E4800F017FB0346002B3BD04B4B1B6F2D
:103C600018CB1A4623464A4804F022FD474B1B6FE7
:103C700018CB184621460EF0ABF80346DBB21946C6
:103C80000020FFF779FC0020FFF7FCFC3F4B1B6F87
:103C9000D3E900014FF000024FF000030EF028F8C6
:103CA0000346002B10D0364B00221A72354B1B886E
:103CB0009BB21A46324BDA604FF40041354802F0AD
:103CC000F5FA354801F002FF2D4BDB681946334801
:103CD00004F0EEFC324B1B7A012B4CD1314B1B888C
:103CE0009BB218460DF022FD03460C462E4AC2E94F
:103CF00000342E4800F0C6FA0346002B3BD02B4B75
:103D00001B6F18CB1A462346214804F0D1FC274BE1
:103D10001B6F18CB184621460EF05AF80346DBB24B
:103D200019460120FFF728FC0120FFF7ABFC1F4BD1
:103D30001B6FD3E900014FF000024FF000030DF0BC
:103D4000D7FF0346002B10D0154B00221A72154BDB
:103D50001B889BB21A46124BDA604FF400410D48A3
:103D600002F0A4FA0C4801F0B1FE0D4BDB681946D5
:103D70000F4804F09DFC00BF0C37BD4690BD00BF4E
:103D800074100020320F0020101100209810002025
:103D90002C2C010800140140BC110020402C01080B
:103DA00084100020340F0020A011002028110020D2
:103DB000502C010880B584B000AF03460A46FB7161
:103DC0001346BB7197F90730062B0BDC97F90730C8
:103DD000002B07DB97F90630042B03DC97F906303C
:103DE000002B01DA002368E097F90730354A527A50
:103DF00093422DD097F90730012B06D10120FFF710
:103E000003FEFA792F4B5A7222E097F90730002B04
:103E100006D10120FFF7F8FD2A4B00225A7217E065
:103E2000FA79284B5B7AD31ADBB2FB7397F90F3020
:103E3000002B0DDD244804F09DFCFB79013BD9B239
:103E40007B2301220120FFF795FEFA791D4B5A7260
:103E500097F906301D4A527A93422DD097F90630D1
:103E6000012B06D10220FFF7CFFDBA79174B5A720A
:103E700022E097F90630002B06D10220FFF7C4FD9F
:103E8000124B00225A7217E0BA79104B5B7AD31AA0
:103E9000DBB2BB7397F90E30002B0DDD0C4804F03C
:103EA00069FCBB79013BD9B27B2301220220FFF7D9
:103EB00061FEBA79054B5A72012318461037BD4688
:103EC00080BD00BF74100020602C01088410002009
:103ED000702C0108B0B586B002AFF860B9607A60A6
:103EE0003B60FB687A681A67FB68BA68DA66FB6849
:103EF0003A685A67FB68002283F868204FF0000395
:103F0000194CCDE900344FF000024FF00003F8687F
:103F100000F02CF8FB6864221A65B96BF86800F0B1
:103F2000AAF8D7E908010DF073FF0446D7E90A01A2
:103F30000DF06EFF0546D7E90C010DF069FF024652
:103F40000123009313462A462146F86800F0DCF866
:103F500001F072FC0246FB681B6DD21AFB689A6383
:103F600000BF1037BD46B0BD0000494090B585B0D8
:103F700000AFF860C7E90023D7E90823D7E90001BB
:103F80000DF0D4FE0346002B71D1FA68D7E9003456
:103F9000C2E91634FA68D7E90834C2E91834FB6874
:103FA00093F86830002B63D0FB681B6FD3E90001E6
:103FB000FB6803F16004D4E900341A4623460DF08F
:103FC000BFFE0346002B09D0FB681A6FFB6803F1A4
:103FD0006004D4E90034C2E9003418E0FB681B6FC8
:103FE000D3E90001FB6803F15804D4E900341A4610
:103FF00023460DF087FE0346002B08D0FB681A6F9E
:10400000FB6803F15804D4E90034C2E90034FB68CA
:10401000D3E91001FB6803F16004D4E900341A46C7
:1040200023460DF08DFE0346002B08D0FB6803F1FC
:104030006004D4E90034FA68C2E9103418E0FB687F
:10404000D3E91001FB6803F15804D4E900341A469F
:1040500023460DF057FE0346002B09D0FB6803F101
:104060005804D4E90034FA68C2E9103400E000BF13
:104070001437BD4690BD90B583B000AF786039600D
:104080007B6893F86830002B37D07B681B6B3A68ED
:104090009A4232D07B6818CB1A4623464FF0000074
:1040A0004FF000010DF004FA03460C467A68C2E9AD
:1040B00000347B6803F10804D4E900341A4623462F
:1040C0004FF000004FF000010DF0F2F903460C46EE
:1040D0007A68C2E902347B6803F11004D4E9003441
:1040E0001A4623464FF000004FF000010DF0E0F9B2
:1040F00003460C467A68C2E904347B683A681A635E
:1041000000BF0C37BD4690BD90B587B000AFF860DA
:10411000B9607A603B60FB68D3E900014FF00002B0
:104120004FF000030DF0EEFD0346002B40F0A4809D
:10413000FB68D3E902014FF000024FF000030DF0DD
:10414000E1FD0346002B40F09780FB68D3E90401B2
:104150004FF000024FF000030DF0D4FD0346002B9A
:1041600040F08A80FB68BA6A5A63BB6A012B0CBFB5
:1041700001230023DAB2FB6883F86920B8680DF0E8
:10418000F7FA03460C46FA68C2E9063478680DF07F
:10419000EFFA03460C46FA68C2E9083438680DF0B5
:1041A000E7FA03460C46FA68C2E90A34FB681B6D5D
:1041B00018460DF033FF0346314918460EF03AF821
:1041C00003467B61B8680DF0D3FA03460C46FA68E3
:1041D000C2E90034796978680DF078FF0346184623
:1041E0000DF0C6FA03460C46FA68C2E90234796952
:1041F00038680EF01FF8034618460DF0B9FA03466A
:104200000C46FA68C2E90434FB681B6B012B34D1FD
:10421000FB6818CB1A4623464FF000004FF0000110
:104220000DF046F903460C46FA68C2E90034FB6813
:1042300003F10804D4E900341A4623464FF0000085
:104240004FF000010DF034F903460C46FA68C2E95C
:104250000234FB6803F11004D4E900341A46234603
:104260004FF000004FF000010DF022F903460C461C
:10427000FA68C2E9043400E000BF1C37BD4690BDB7
:1042800000007A44B0B58CB000AF78607B6893F8DA
:10429000683083F00103DBB2002B01D000230EE174
:1042A00001F0CAFA78627B689B6B7A6AD31A3B6228
:1042B0007B681B6D3A6A9A42C0F000817B68DB6EB6
:1042C00018CBC7E906347B685B6FD3E90001D7E9F7
:1042D00006230DF0EDF803460C46C7E904347B686D
:1042E00003F14804D4E900341A462346D7E906010D
:1042F0000DF0DEF803460C46C7E902347B68D3E9CB
:1043000010457B68D3E90201D7E904230DF088FA50
:1043100002460B46204629460DF0CCF803460C46D3
:104320007A68C2E910347B6893F8693083F001033E
:10433000DBB2002B14D07B68D3E910457B68D3E94E
:104340000001D7E902230DF06BFA02460B46204626
:1043500029460DF0ADF803460C467A68C2E91034E0
:104360007B6803F14004D4E900341A4623465648DA
:1043700004F09EF97B68DB6E1946544804F098F906
:104380007B68D3E910017B6803F16004D4E9003451
:104390001A4623460DF0D4FC0346002B08D07B6858
:1043A00003F16004D4E900347A68C2E9103416E0FD
:1043B0007B68D3E910017B6803F15804D4E9003429
:1043C0001A4623460DF09EFC0346002B07D07B685F
:1043D00003F15804D4E900347A68C2E910347B68E8
:1043E00093F86930002B0CD07B6818CB1A46234613
:1043F000D7E904010DF014FA03460C46C7E90A3464
:1044000005E04FF000034FF00004C7E90A347B6871
:10441000D3E910457B68D3E90401D7E902230DF005
:10442000FFF902460B46204629460DF041F80346A7
:104430000C461A462346D7E90A010DF03BF803461D
:104440000C46C7E90A347B6803F16004D4E9003400
:104450001A462346D7E90A010DF072FC0346002BE9
:1044600007D07B6803F16004D4E90034C7E90A345B
:1044700014E07B6803F15804D4E900341A4623465B
:10448000D7E90A010DF03EFC0346002B06D07B68FD
:1044900003F15804D4E90034C7E90A347B681A6F81
:1044A000D7E90A34C2E900347A68D7E90634C2E9A8
:1044B00012347B687A6A9A63012300E0002318466D
:1044C0003037BD46B0BD00BF842C0108982C0108D0
:1044D00090B583B000AF78607B681B6F18CB7A68AB
:1044E000C2E910347B68DB6E18CB7A68C2E91234FB
:1044F0007B68D3E910017B6803F16004D4E90034E0
:104500001A4623460DF01CFC0346002B08D07B689E
:1045100003F16004D4E900347A68C2E9103417E08A
:104520007B68D3E910017B6803F15804D4E90034B7
:104530001A4623460DF0E6FB0346002B00D107E0A8
:104540007B6803F15804D4E900347A68C2E9103476
:1045500000BF0C37BD4690BD80B584B000AF786019
:1045600039603B68012B0CBF01230023FB73FB7BED
:10457000002B0AD07B6893F8683083F00103DBB22C
:10458000002B02D07868FFF7A3FF7B68FA7B83F8E3
:10459000682000BF1037BD4680BDB0B584B000AF05
:1045A000786039603B68002B2ADD3A687B681B6DB8
:1045B000B2FBF3F3FB607B68D3E90245F8680DF0CA
:1045C000B5F802460B46204629460DF029F9034668
:1045D0000C467A68C2E902347B68D3E90445F8687E
:1045E0000DF0A4F802460B46204629460DF042FA8B
:1045F00003460C467A68C2E904343A687B681A6557
:1046000000BF1037BD46B0BD80B500AFFF2300220C
:104610000321184801F00EFE4FF40043002203214D
:10462000154801F007FE4FF40041134801F040FE29
:104630000121104801F03CFE02210E4801F038FE35
:1046400004210C4801F034FE08210A4801F030FE34
:104650001021084801F02CFE2021064801F028FE18
:104660004021044801F024FE8021024801F020FE90
:1046700000BF80BD001001400014014080B500AFB4
:104680004FF4FA71064801F039FA0346002B04D1C1
:104690004FF40041034801F00BFE00BF80BD00BF96
:1046A000BC1100200014014080B485B000AFF86058
:1046B000B9607A60FB68BA681A60FB687A685A6009
:1046C000FB6800229A60FB689A68FB68DA6000BFAA
:1046D0001437BD4680BC704780B483B000AF7860AB
:1046E00039607B68DA687B689B689A4201D1002355
:1046F00014E07B681A687B68DB6813441A783B68AF
:104700001A707B68DB6801337A685268B3FBF2F198
:1047100002FB01F29A1A7B68DA60012318460C3713
:10472000BD4680BC704780B485B000AF78600B4652
:10473000FB707B689B6801337A685268B3FBF2F1C7
:1047400002FB01F29B1AFB607B68DB68FA689A4205
:1047500001D100230AE07B681A687B689B681344D8
:10476000FA781A707B68FA689A6001231846143741
:10477000BD4680BC7047000080B500AF40F20230FB
:1047800001F054FF40F2033001F050FF3C230022BF
:104790000021234801F04EFD03230022002121487F
:1047A00001F048FD40F2093001F040FF1E4801F0E1
:1047B000ACFB1D4801F0AEFB1B4801F06FFB1A4833
:1047C00001F0B2FB0321184801F08AFB01F05EFB07
:1047D000154801F0A4FB122002F07CFF01211220F9
:1047E00002F086FF104801F0E3FB0F4801F03EFBAA
:1047F000322001F079F80C4801F055FB0A4801F02D
:1048000065FB00BF084801F05DFB0346002BF9D1B2
:10481000064A0821044801F08CFB00BF80BD00BFA0
:1048200000080140000C014000240140AC010020C0
:1048300080B500AF4FF4207001F0F8FE012125484B
:1048400001F030FC02210B2002F052FF0B2002F09D
:1048500041FF4FF4005201211E4801F0CEFB01211F
:104860001C4801F0AAFB1C4A01211A4801F023FC54
:104870004FF480720121174801F0D7FBA0220121DB
:10488000144801F02AFC154B1A460121114801F089
:104890001BFC4FF4806201210E4801F0BAFB01219C
:1048A0000C4801F0CEFB01210A4801F0D3FB0121A5
:1048B000084801F0DCFB0121064801F0E1FB03227E
:1048C0000121044801F089FB0121024801F0E1FBCC
:1048D00000BF80BD000002404C240140F0110020C8
:1048E00080B500AF4FF4607001F0A0FE4FF400708F
:1048F00001F0A9FE0023002200214FF0804001F0CA
:10490000BCFF1F214FF0804001F0EBFF4FF08040D3
:1049100001F0CBFF4FF0804001F0CCFF41F2883135
:104920004FF0804001F0DFFF00214FF0804002F0A7
:104930003BF91C2002F0CEFE04211C2002F0D8FE20
:104940004FF0804001F0BBFF01214FF0804001F0AB
:1049500087FF01214FF0804001F08CFF4FF0804035
:1049600001F0B2FF00BF80BD80B500AF01214FF064
:10497000804001F079FF0346002B0BD001214FF05E
:10498000804001F077FF00214FF0804002F00CF9E9
:1049900000F05CF800BF80BD80B500AF02220121AD
:1049A0000A4801F020FB0346002B0DD0084B0022E3
:1049B0001A7003220121054801F00FFB054B01226B
:1049C0005A70054B01221A7000BF80BD00000240E2
:1049D00071140020C41100207014002080B400AFB6
:1049E000044B1B780133DAB2024B1A7000BFBD468C
:1049F00080BC70477114002080B500AFFFF718FF2E
:104A0000FFF7BAFE044B00221A70FFF769FF034854
:104A100001F05CF800BF80BDC4110020E811002047
:104A200080B500AF1C2002F055FE4FF0804001F031
:104A30004BFF044B00221A70034B00221A7000BF78
:104A400080BD00BFC41100207014002080B500AFED
:104A5000024801F013FA00BF80BD00BF00240140EE
:104A600080B487B000AF03463960FB711346BB7159
:104A700040F6FF73BB8200237B820023FB60FB793F
:104A8000FB821EE0FB8A5B003A6813441B88BA8AEB
:104A90009A4205D9FB8A5B003A6813441B88BB82A3
:104AA000FB8A5B001D4A13441B887A8A9A4205D20E
:104AB000FB8A5B003A6813441B887B82FB8A0833BD
:104AC000FB82FA8ABB79DB009A42DBDBFB79FB8253
:104AD0000BE0FB8A5B003A6813441B881A46FB68AC
:104AE0001344FB60FB8A0833FB82FA8ABB79DB0044
:104AF0009A42EEDB7A8ABB8A1344FA68D31AFB60C7
:104B0000BB79023BFA6892FBF3F3FB60FB689BB254
:104B100018461C37BD4680BC704700BFF01100200E
:104B200080B584B000AF78607B68C3F5DA63063384
:104B30000A4AA2FB03239B08193318460DF06EFAAC
:104B4000034618460DF088FC0346FB60F8680DF03C
:104B500069FA034618461037BD4680BDCDCCCCCC93
:104B600090B583B000AF404B5B78012B77D13E4BC3
:104B700000225A703C4B1B780133DAB23A4B1A7060
:104B8000394B1B78132B05D9374B00221A70374B42
:104B900001221A700023FB7116E0334B1B78DA00F8
:104BA000FB79D418FB79142231491846FFF758FFD6
:104BB000034619462C4A04F1B4035B0013440A4629
:104BC0009A80FB790133FB71FB79072BE5D904222D
:104BD00028490020FFF744FF03461A46224B5A801B
:104BE000042224490120FFF73BFF03461A461E4BCF
:104BF0009A8004221F490220FFF732FF03461A461B
:104C0000194BDA8004221B490320FFF729FF0346D2
:104C10001A46154B1A81042216490420FFF720FF7B
:104C200003461A46104B5A81042212490520FFF709
:104C300017FF03461A460C4B9A8104220D490620A1
:104C4000FFF70EFF03461A46074BDA830422094991
:104C50000720FFF705FF03461A46034B1A8400BFDF
:104C60000C37BD4690BD00BFC41100207014002059
:104C7000F01100203013002090B585B000AF03463E
:104C8000FB71FB79072B00F2318101A252F823F06E
:104C9000B14C0008054D0008594D0008AD4D000805
:104CA000014E0008554E0008A94E0008B94E0008F4
:104CB000934B1B8C18460CF049FD03460C461A46D4
:104CC00023468DA1D1E900010CF0D4FE03460C4629
:104CD000184621460DF09CF80346FB60884B5B8824
:104CE00018460DF09BF90346F96818460DF0EEF9E9
:104CF00003464FF08B4118460DF09CFA0346BB600B
:104D0000BB68F3E07E4B1B8C18460CF01FFD03467E
:104D10000C461A46234678A1D1E900010CF0AAFE00
:104D200003460C46184621460DF072F80346FB6018
:104D3000734B9B8818460DF071F90346F9681846C5
:104D40000DF0C4F903464FF08B4118460DF072FA8E
:104D50000346BB60BB68C9E0694B1B8C18460CF06E
:104D6000F5FC03460C461A46234663A1D1E900012F
:104D70000CF080FE03460C46184621460DF048F81C
:104D80000346FB605E4BDB8818460DF047F903468F
:104D9000F96818460DF09AF903464FF08B41184612
:104DA0000DF048FA0346BB60BB689FE0544B1B8C78
:104DB00018460CF0CBFC03460C461A4623464EA17F
:104DC000D1E900010CF056FE03460C461846214678
:104DD0000DF01EF80346FB60494B1B8918460DF089
:104DE0001DF90346F96818460DF070F903464FF0B7
:104DF0008B4118460DF01EFA0346BB60BB6875E098
:104E00003F4B1B8C18460CF0A1FC03460C461A467F
:104E1000234639A1D1E900010CF02CFE03460C46D3
:104E2000184621460CF0F4FF0346FB60344B5B89C7
:104E300018460DF0F3F80346F96818460DF046F9E8
:104E400003464FF08B4118460DF0F4F90346BB6062
:104E5000BB684BE02A4B1B8C18460CF077FC0346D2
:104E60000C461A46234624A1D1E900010CF002FEAB
:104E700003460C46184621460CF0CAFF0346FB6069
:104E80001F4B9B8918460DF0C9F80346F968184670
:104E90000DF01CF903464FF08B4118460DF0CAF98E
:104EA0000346BB60BB6821E0154BDB8B1846FFF760
:104EB00037FEB860BB6819E0114B1B8C18460CF02C
:104EC00045FC03460C461A4623460BA1D1E90001D6
:104ED0000CF0D0FD03460C46184621460CF098FF16
:104EE0000346FB60FB68BB60FB68FFE718461437AE
:104EF000BD4690BDAFF30080333333333333B3401B
:104F0000C411002080B582B000AF114B1B6803F0C4
:104F10002003002B17D00F4B1B6803F02003002B3E
:104F200011D00C4801F0A5FE0346FB71FB79194630
:104F30000948FFF7F8FB00F07FFC0246074B1A60B8
:104F4000074B01221A7000BF0837BD4680BD00BF65
:104F50000C480040004800407414002084140020D5
:104F60008814002080B588B002AF194B93F9033044
:104F70001A46174B93F902301946154BB3F9003016
:104F80001BB2381D00930B46124903F0FBFB3B1D7F
:104F90001A4601210420FCF74FFD0D4B93F9053013
:104FA0001A460B4B93F906301946094B93F9073013
:104FB000381D00930B46084903F0E4FB3B1D1A46DD
:104FC00002210620FCF738FD00BF1837BD4680BD22
:104FD000C80E0020A82C0108BC2C010890B587B091
:104FE00000AF104A01210420FCF726FD0E4B5B6A3E
:104FF0000E4918460DF01EF9034618460CF0B8FB92
:1050000003460C46381D1A462346094903F0BAFBED
:105010003B1D1A4602210020FCF70EFD00BF1C3785
:10502000BD4690BDCC2C01088C140020000020410E
:10503000DC2C010880B582B000AFFCF749FC1422DB
:105040002D211F4802F0A8FF0323FB711023BB7121
:10505000FB79013BDBB21B4A00211846FCF7ECFC54
:10506000194A03210020FCF7E7FCBB79174A03210A
:105070001846FCF7E1FC42F21071154800F03EFDC5
:105080000346002B0ED1134B5B7A002B14BF012378
:105090000023DBB283F00103DBB203F00103DAB2D9
:1050A0000C4B5A720B4B5B7A002B02D0FFF75AFF66
:1050B00001E0FFF793FF00BF0837BD4680BD00BF8A
:1050C000600F0020F42C0108042D01080C2D0108AC
:1050D000981400208C14002080B500AFFCF7F8FB7A
:1050E000034A00210020FCF7A7FC00BF80BD00BFE1
:1050F000142D010880B500AFFCF7EAFB034A00213C
:105100000020FCF799FC00BF80BD00BF282D0108DE
:1051100080B483B000AF0346FB71FB79002B0AD14A
:10512000174B002283F82C20154B93F82C20144B9E
:1051300083F82B201EE0FB795A1E124B83FB0231B1
:10514000D317C91A0B465B000B445B00D11ACBB2D4
:105150000133DAB20A4B83F82B20FB79013B094A71
:1051600082FB0312DB17D31ADBB20133DAB2044B32
:1051700083F82C2000BF0C37BD4680BC704700BFB1
:105180008C140020ABAAAA2A80B500AFFBF7CCFA9A
:10519000FFF73AFAFCF7E6F904211420FBF778F858
:1051A0000120FBF73DF91D4B00221A721B4B002218
:1051B0005A721B4B1A79194B83F82820184B5A79CD
:1051C000164B83F82920154B002283F82A20144B14
:1051D000D3F80630134A1360114BD3F80A30124A41
:1051E0001360FEF759FB00F0C9FC08210F4801F0DD
:1051F0005FF810210D4801F05BF8FFF71BFF07482F
:1052000000F064FC0A4800F061FC0120FEF7FCFBA2
:105210000220FEF7F9FB00BF80BD00BF8C14002008
:10522000D00E0020DC140020E0140020001001400B
:105230009814002080B582B000AF8E4B1B7A032BF0
:1052400000F2EF8101A252F823F000BF5D52000886
:105250007D530008C954000857550008FCF778FA38
:105260000346FB71FCF704F90346BB71FB79012B84
:1052700008D1FCF77BFD7F4B01221A727E4800F0BB
:1052800025FC3DE0BB79012B38D17B4800F01EFCAA
:10529000784B93F828300133DAB2764B83F8282024
:1052A000744B93F82830182B03D9724B012283F8E2
:1052B0002820704B93F828301846FFF729FF6D4BD4
:1052C00093F82B3019466B4B93F82C301A466B48E9
:1052D00003F0EEF9674B02221A72664B012283F843
:1052E0002A20674B5A79634B83F82920614B93F846
:1052F00029301946634803F0DBF901E0FFF79AFE15
:1053000064215C4800F0FAFB0346002B29D1594B7D
:105310005B6A5D4918460CF08DFF03461A465B4BED
:105320001B68194610460DF06FF80346002B03D09A
:105330000821574800F0BAFF4E4B5B6A52491846A5
:105340000CF078FF03461A46524B1B68194610466C
:105350000DF078F80346002B03D008214C4800F0EC
:10536000A7FF0120FEF78AFB0220FEF787FBFFF76D
:10537000F7FBFFF783F900F06FF959E1FCF7E8F963
:105380000346FB71FB79012B09D1434B1B68002BB2
:1053900002D0414B1B689847374800F097FBFB79D8
:1053A000022B09D13D4B1B68002B02D03B4B1B68E5
:1053B0009847314800F08AFBFB79032B09D1384B21
:1053C0001B68002B02D0364B1B6898472A4800F018
:1053D0007DFBFB79042B2AD1324B1B681846FCF766
:1053E00077FD0346002B18D12F4B00221A702F4B4C
:1053F00000221A702B4B2E4A1A601E4B00221A7282
:10540000264B2C4A1A60264B2B4A1A60224B2B4AF9
:105410001A602B4B2B4A1A6009E0294B1B68002BA2
:1054200002D0274B1B689847134800F04FFB42F20D
:105430001071114800F062FB0346002B40F0F3802E
:10544000194B00221A70194B00221A70154B184A7A
:105450001A60084B00221A72104B164A1A60104B41
:10546000154A1A600C4B154A1A60154B154A1A60FA
:10547000D9E000BF8C140020A01400203C2D0108AE
:10548000D00E00204C2D010800002041E014002027
:1054900000100140DC140020BC010020B4010020F9
:1054A000B8010020A40100201D1000201C100020C5
:1054B0000C0000200D1F0008911F000809200008A3
:1054C000C001002085200008FFF714FE4EF6602181
:1054D000594800F013FB0346002B0BD1574B93F8B0
:1054E0002A30002B06D0554B00221A72534B002253
:1054F00083F82A20514B93F82B305AB24F4B93F834
:105500002C305BB219461046FEF754FC0120FEF722
:105510008BFB0120FEF7B2FA0220FEF785FB02208A
:10552000FEF7ACFAFFF7AAF8454B1B7A002B7CD1AB
:10553000444B1B7A002B78D1404B03221A7200F0A7
:105540004FFB414B1B780133DAB23F4B1A703F4897
:1055500000F0BCFA69E0FFF7BFFDFBF789FF0346E7
:10556000BB71BB79184600F0B3FBFFF787F843F631
:105570009821364800F0C2FA0346002B57D1344B2D
:10558000DB78002B53D00220FEF70AF92E4B1B7854
:10559000022B3FD9294B93F82930013BDAB2274B34
:1055A00083F82920254B93F82930002B0DD1234B6C
:1055B00093F82820274B1A71204B00221A72244B93
:1055C0000022DA70FBF792F920E01C4B93F82830A8
:1055D0000133DAB2194B83F82820184B93F828309E
:1055E000182B03D9154B012283F82820134B93F86D
:1055F00028301846FFF78CFD104B02221A720F4B11
:10560000002283F82A20124B0022DA700E4B00226F
:105610001A700CE0094B02221A720D4B0022DA704C
:1056200005E000BF04E000BF02E000BF00E000BFF3
:1056300000BF0837BD4680BDA01400208C14002098
:105640007410002084100020E4140020A81400200E
:1056500000150020D00E002080B582B000AF514B65
:105660001B7D032B00F2998001A252F823F000BFAA
:10567000815600089B56000871570008195700080A
:10568000494800F023FA4FF4805248494548FBF757
:10569000F4FA444B01221A757FE04248FBF79AFC6A
:1056A0000346FB71FB791946414803F001F8FB7989
:1056B000002B22D03F4A01213A48FBF75BFC394BD3
:1056C0001B7BFF2B0ED1374B5B7BFF2B0AD1354B5E
:1056D0009B7BFF2B06D14FF4805234493148FBF7B6
:1056E000CCFA55E02F4B02221A7501212D48FBF709
:1056F0007BFB2D4800F0EAF94AE041F288312A4864
:1057000000F0FCF90346002B42D14FF480522749A8
:105710002448FBF7B2FA3BE040F2EE21224800F0C9
:10572000EDF90346002B35D172B600211D48FBF779
:10573000CFFA62B61B4B02221A751A4B5B7D002B07
:1057400012D1184B9B681C4918460CF0BFFC03464D
:1057500018460CF0A7FE03469BB218460CF05EFC00
:105760000246164B5A6215E00E4B02221A7511E0E2
:105770004FF4FA610C4800F0C1F90346002B0BD13D
:10578000084B03221A7500210648FBF72DFB03E0A6
:1057900000BF02E000BF00E000BF00BF0837BD4609
:1057A00080BD00BFBC140020E814002000100140A0
:1057B000642D0108C8140020000020418C14002032
:1057C00080B400AF074B1B68064A43F08073136038
:1057D000054B1B68044A43F00103136000BFBD463C
:1057E00080BC7047FCED00E0001000E080B500AF29
:1057F0000E4B00221A6072B6042001F04FFF0C4BD2
:105800001B680C4AA2FB03239B09184601F02EFFDC
:1058100001F050FF01F056FFFF21FF2001F068FF6B
:1058200062B6FFF7CDFF00BF80BD00BFF0140020BF
:10583000C4010020D34D621080B400AF024B1B683E
:105840001846BD4680BC7047F014002080B485B077
:1058500000AF786039603A687B689A4204D93A6848
:105860007B68D31AFB6004E03A687B68D31A223362
:10587000FB60FB6818461437BD4680BC704780B596
:1058800084B000AF7860396001F0F8FE0346013B58
:10589000BB603A687B689A4204D93A687B68D31A3D
:1058A000FB6006E03A687B68D21ABB681344013398
:1058B000FB60FB6818461037BD4680BD80B584B0DC
:1058C00000AF786001F0E2FE0346FB6000BF07F125
:1058D0000C037968184600F03CF80346002BF6D01C
:1058E00000BF1037BD4680BD80B584B000AF786082
:1058F000FFF7A2FF0346FB6000BF07F10C037968C6
:10590000184600F007F80346002BF6D000BF10370A
:10591000BD4680BD80B584B000AF78603960FFF7C8
:105920008BFFF8607B681B68F9681846FFF78EFFED
:10593000B860BA683B689A4201D2002305E0FFF7DD
:105940007BFF02467B681A60012318461037BD466C
:1059500080BD80B584B000AF786039603A68134686
:10596000DB001344DB003B6001F090FEF8607B68D5
:105970001B681946F868FFF782FFB860BA683B6891
:105980009A4201D2002305E001F080FE02467B68C6
:105990001A60012318461037BD4680BD80B400AFA1
:1059A0000C4B1B68002B03D10B4B00221A6008E044
:1059B000084B1B68B3F57A7F03D1074B1B68074A76
:1059C0001360044B1B680133024A136000BFBD46DD
:1059D00080BC7047F0140020041000E0F414002094
:1059E00080B500AF4FF4617000F020FE002300226C
:1059F0000021124800F041FF4FF47A710F4800F087
:105A000072FF47210D4800F06CFF00210B4800F0A9
:105A10003DFF2021094800F05CFF084800F054FFDA
:105A20000121064800F01CFFFF21362001F060FE36
:105A3000362001F04FFE00BF80BD00BF00100040C7
:105A400080B500AF0121084800F00EFF0346002B8F
:105A500008D00121044800F00DFF044B1B680133FE
:105A6000024A136000BF80BD00100040FC140020FB
:105A700080B487B000AF0346B9607A60FB73FB7BEC
:105A8000002B03D14FF47A733B6102E04FF0FF33F8
:105A90003B617A68BB689A4206D97B689AB2BB6858
:105AA0009BB2D31AFB820BE07B689AB2BB689BB2B5
:105AB000D31A9AB23B699BB213449BB20133FB8267
:105AC000FB8A18461C37BD4680BC704780B582B043
:105AD00000AF7860074B1A687B685A60064801F08F
