:020000040800F2
:1000000000000120290F0008010500080305000871
:1000100005050008070500080905000800000000A4
:100020000000000000000000000000000B050008B8
:100030000D050008000000000F050008110500086C
:10004000710F0008710F0008710F0008710F000890
:10005000710F0008710F0008710F0008710F000880
:10006000710F0008710F0008710F0008710F000870
:10007000710F0008710F0008710F0008710F000860
:10008000710F0008710F0008710F0008710F000850
:10009000710F0008710F0008710F0008710F000840
:1000A000710F0008710F0008710F0008710F000830
:1000B000710F0008710F0008710F0008710F000820
:1000C000710F0008710F0008710F0008710F000810
:1000D000710F0008710F0008710F0008710F000800
:1000E000710F0008710F0008710F0008710F0008F0
:1000F000710F0008710F0008710F0008710F0008E0
:10010000710F0008710F0008710F0008710F0008CF
:10011000710F0008710F0008710F0008710F0008BF
:10012000710F0008710F0008710F0008710F0008AF
:1001300000000000000000000000000000000000BF
:1001400000000000000000000000000000000000AF
:10015000000000000000000000000000000000009F
:10016000000000000000000000000000000000008F
:10017000000000000000000000000000000000007F
:10018000000000000000000000000000000000006F
:10019000000000000000000000000000000000005F
:1001A000000000000000000000000000000000004F
:1001B000000000000000000000000000000000003F
:1001C000000000000000000000000000000000002F
:1001D000000000000000000000000000000000001F
:0401E0005FF8E0F1F3
:1001E40010B5054C237833B9044B13B10448AFF36D
:1001F40000800123237010BD0C00002000000000CB
:10020400CC0F000808B5034B1BB103490348AFF3F7
:10021400008008BD0000000010000020CC0F000882
:1002240030B587B000240294039404940594134BCE
:100234009A6942F004029A619A6902F004020092F7
:10024400009A9A6942F020029A619B6903F02003A4
:100254000193019B0A4D2246FF21284600F0DAFD56
:10026400FF2302930123039304940323059302A918
:10027400284600F0DBFC07B030BD00BF0010024090
:100284000014014010B590B02422002107A800F00A
:1002940093FE00240194029403940494059402238D
:1002A400069301230A9310230B9306A800F0C8F9C0
:1002B4000F2301930294039404940594214601A806
:1002C40000F0E6FB10B010BD08B500F06BF9FFF7C5
:1002D400D9FFFFF7A5FF00F0D9F80021084600F088
:1002E400BBF80C4800F0ACF80121084600F0B4F863
:1002F400094800F0A5F80221084600F0ADF80748C7
:1003040000F09EF80321084600F0A6F8044800F027
:1003140097F8FEE7FC0F0008081000081410000806
:100324002410000810B50A4C00224021204600F099
:1003340071FD01224021204600F06CFD0022402185
:10034400204600F067FD012000F050F910BD00BF09
:100354000014014010B5044610F0010F1FD0012213
:1003640011461B4800F056FD14F0020F1DD0012267
:100374000221174800F04EFD14F0040F1BD0012297
:100384000421134800F046FD14F0080F19D001228F
:1003940008210F4800F03EFDFFF7C4FF10BD002206
:1003A40001210B4800F036FDDEE700220221084857
:1003B40000F030FDE0E700220421054800F02AFDAA
:1003C400E2E700220821024800F024FDE4E700BF30
:1003D4000014014038B50446084D00221021284677
:1003E40000F018FD00222021284600F013FD20090A
:1003F400FFF7B0FF2046FFF7ADFF38BD0014014002
:1004040038B505460B4C01228021204600F002FD40
:1004140001221021204600F0FDFC0022202120466C
:1004240000F0F8FC2809FFF795FF2846FFF792FF34
:1004340038BD00BF0014014008B5FFF7E1FF08BD57
:1004440038B505460024285D20B1FFF7F5FF0134D7
:10045400E4B2F8E738BD000000B583B0064B1B6872
:10046400019302AB194411F8043C1844C0B2FFF7DD
:10047400B1FF03B05DF804FBE40F000808B50120E8
:10048400FFF7A8FF022000F0B1F808BD10B5322034
:1004940000F0ACF8184C00221021204600F0BAFC01
:1004A40000224021204600F0B5FC002220212046F5
:1004B40000F0B0FC0320FFF74DFF052000F096F894
:1004C4000320FFF747FF052000F090F80320FFF713
:1004D40041FF012000F08AF80220FFF73BFF2820AB
:1004E400FFF778FF0C20FFF775FFFFF7C7FF062023
:1004F400FFF770FF10BD00BF001401407047FEE716
:10050400FEE7FEE7FEE770477047704708B500F066
:100514005BF808BD82B00E4B9A6942F001029A6101
:100524009A6902F001020092009ADA6942F080525C
:10053400DA61DB6903F080530193019B054A536838
:1005440023F0E06343F00073536002B0704700BFD0
:10055400001002400000014010B504460E4B18780C
:100564004FF47A73B3FBF0F30C4A1068B0FBF3F06A
:1005740000F09CFC68B90F2C01D901200AE000228C
:1005840021464FF0FF3000F05DFC054B1C6000205D
:1005940000E0012010BD00BF000000200800002082
:1005A4000400002008B5074A136843F010031360E1
:1005B400032000F035FC0020FFF7CEFFFFF7AAFF71
:1005C400002008BD00200240034A1168034B1B7839
:1005D4000B441360704700BF280000200000002077
:1005E400014B1868704700BF2800002038B5044646
:1005F400FFF7F6FF0546B4F1FF3F02D0044B1B782A
:100604001C44FFF7EDFF401BA042FAD338BD00BFE6
:100614000000002082B0084B1B68084AA2FB032399
:100624005B0A00FB03F0019000BF019B5A1E01927C
:10063400002BF9D102B0704708000020D34D62109E
:1006440070B582B00446036813F0010F2CD0AB4B95
:100654005B6803F00C03042B1DD0A84B5B6803F00C
:100664000C03082B12D06368B3F5803F41D0002BF4
:1006740055D103F1804303F504331A6822F4803220
:100684001A601A6822F480221A6037E09B4B5B6878
:1006940013F4803FE7D0994B1B6813F4003F03D059
:1006A4006368002B00F0AE81236813F0020F75D04D
:1006B400924B5B6813F00C0F5FD0904B5B6803F0B8
:1006C4000C03082B54D02369002B00F089808C4B39
:1006D40001221A60FFF784FF0546884B1B6813F05C
:1006E400020F74D1FFF77CFF401B0228F5D90320C9
:1006F4008DE1824A136843F480331360636843B323
:10070400FFF76EFF05467D4B1B6813F4003FCBD10A
:10071400FFF766FF401B6428F5D9032077E1B3F5A2
:10072400A02F09D0754B1A6822F480321A601A6817
:1007340022F480221A60E1E703F18043A3F53C33FD
:100744001A6842F480221A601A6842F480321A60ED
:10075400D4E7FFF745FF0546684B1B6813F4003FD9
:10076400A2D0FFF73DFF401B6428F5D903204EE1DA
:10077400624B5B6813F4803FA5D1604B1B6813F098
:10078400020F03D02369012B40F03E815B4A1368BA
:1007940023F0F803616943EAC1031360236813F08B
:1007A400080F32D0A369002B5BD0564B01221A608C
:1007B400FFF716FF0546514B5B6A13F0020F21D178
:1007C400FFF70EFF401B0228F5D903201FE14B4A17
:1007D400136823F0F803616943EAC1031360DDE79A
:1007E400474B00221A60FFF7FBFE0546434B1B688C
:1007F40013F0020FD2D0FFF7F3FE401B0228F5D905
:10080400032004E10120FFF705FF236813F0040F20
:1008140000F09880394BDB6913F0805F33D1374B9C
:10082400DA6942F08052DA61DB6903F080530193A4
:10083400019B0125344B1B6813F4807F25D0E368AA
:10084400012B36D0002B4CD103F1804303F5043344
:100854001A6A22F001021A621A6A22F004021A6267
:100864002CE0284B00221A60FFF7BAFE0546234B02
:100874005B6A13F0020FC8D0FFF7B2FE401B0228D8
:10088400F5D90320C3E00025D4E71F4A136843F4D5
:1008940080731360FFF7A4FE06461B4B1B6813F41A
:1008A400807FCCD1FFF79CFE801B6428F5D9032000
:1008B400ADE0124A136A43F001031362E3687BB3A9
:1008C400FFF78EFE06460D4B1B6A13F0020F38D15C
:1008D400FFF786FE801B41F288339842F3D9032048
:1008E40095E0052B12D0054B1A6A22F001021A6218
:1008F4001A6A22F004021A62E0E700BF0010024004
:10090400000042428004424200700040424B1A6A96
:1009140042F004021A621A6A42F001021A62CDE736
:10092400FFF75EFE06463C4B1B6A13F0020F08D02D
:10093400FFF756FE801B41F288339842F3D9032017
:1009440065E0E5B9E369002B60D0334A526802F0F0
:100954000C02082A5DD0022B17D0304B00221A60FB
:10096400FFF73EFE04462C4B1B6813F0007F47D074
:10097400FFF736FE001B0228F5D9032047E0264A7C
:10098400D36923F08053D361DCE7244B00221A603F
:10099400FFF726FE0546204B1B6813F0007F06D0A8
:1009A400FFF71EFE401B0228F5D903202FE0236A1F
:1009B400B3F5803F1AD018494B6823F47413226AA4
:1009C400606A024313434B60144B01221A60FFF721
:1009D40007FE0446104B1B6813F0007F0ED1FFF78F
:1009E400FFFD001B0228F5D9032010E00A4A5368D2
:1009F40023F40033A1680B435360DCE7002006E0D6
:100A0400002004E0012002E0012000E0002002B008
:100A140070BD0120FBE700BF0010024060004242AD
:100A240010B487B0164C94E80F000DF1180C0CE9C3
:100A34000F00238AADF80430124B5B6803F00C02FC
:100A4400082A03D0104807B010BC7047C3F3834290
:100A5400624412F8102C13F4803F0CD0094B5B68ED
:100A6400C3F34043634413F8143C074800FB02F00B
:100A7400B0FBF3F0E7E7054800FB02F0E3E700BF53
:100A8400E80F00080010024000127A0000093D003F
:100A9400624B1B6803F007038B420BD25F4A136857
:100AA40023F007030B431360136803F007038B421F
:100AB40040F0AE8070B5036813F0020F17D013F046
:100AC400040F04D0564A536843F4E0635360036848
:100AD40013F0080F04D0524A536843F46053536030
:100AE4004F4A536823F0F0038468234353600D4650
:100AF4000446036813F0010F52D04368012B23D03E
:100B0400022B28D0464A126812F0020F00F08280AD
:100B140043494A6822F0030213434B60FFF760FD28
:100B240006466368012B1DD0022B2AD03C4B5B6820
:100B340013F00C0F34D0FFF753FD801B41F28833C0
:100B44009842F3D9032062E0354A126812F4003F58
:100B5400DED101205BE0324A126812F0007FD7D167
:100B6400012054E02E4B5B6803F00C03042B17D0D8
:100B7400FFF736FD801B41F288339842F2D90320F7
:100B840045E0274B5B6803F00C03082B08D0FFF704
:100B940027FD801B41F288339842F2D9032036E0C6
:100BA4001E4B1B6803F00703AB420AD91B4A1368A8
:100BB40023F007032B431360136803F00703AB42CE
:100BC4002AD1236813F0040F06D0154A536823F47E
:100BD400E063E1680B435360236813F0080F07D008
:100BE4000F4A536823F46053216943EAC1035360F5
:100BF400FFF716FF0A4B5B68C3F30313094AD35C80
:100C0400D840094B18600020FFF7A6FC002070BDF7
:100C1400012070470120FAE70120F8E70020024094
:100C2400001002403010000808000020F0B482B028
:100C340000263546A6E0002B5ED0012B10D1CE68ED
:100C44000EE06E4FBB4257D04ED96D4FBB4253D0CE
:100C540007F58037BB424FD0A7F58017BB424BD076
:100C6400FF2A5DD88446FF2A5DD8AC00DCF800304A
:100C74000F27A74023EA070306FA04F42343CCF81A
:100C840000304B6813F0805F7BD05E4B9C6944F06E
:100C940001049C619B6903F001030193019BAC086F
:100CA400A71C594B53F827C005F003039F000F23DB
:100CB400BB402CEA030C554B98423AD003F58063B1
:100CC400984278D003F58063984276D003F5806328
:100CD400984274D003F58063984272D003F5806320
:100CE400984224D0062325E0A7F58017BB4203D001
:100CF40007F58037BB42B3D18B687BB1012B08D099
:100D040044610826ACE7CE680836A9E7CE680C36FD
:100D1400A6E704610826A3E70026A1E704269FE7C7
:100D240000F1040C9FE7A5F10804A4009EE7052345
:100D340000E00023BB4043EA0C030234324F47F87F
:100D440024304B6813F4803F3DD0314C2368134367
:100D540023604B6813F4003F3BD02D4C636813436E
:100D640063604B6813F4801F39D0294CA368134384
:100D7400A3604B6813F4001F37D0254CE3681A4373
:100D8400E26001350F2D36D80124AC400A682240B8
:100D94009442F6D14B68122BB8D03FF652AF022BD7
:100DA400B1D07FF648AF032BB6D0112B7FF458AFE8
:100DB400CE68043654E70123BCE70223BAE70323D1
:100DC400B8E70423B6E7124C236823EA020323603E
:100DD400BFE70F4C636823EA02036360C1E70C4C6E
:100DE400A36823EA0203A360C3E7094CE36823EA88
:100DF4000202E260C5E702B0F0BC704700002110B7
:100E040000003110001002400000014000080140C1
:100E1400000401400AB1016170470904016170478F
:100E2400074AD36823F4E0631B041B0C000200F49C
:100E3400E060184340F0BF6040F40030D060704779
:100E440000ED00E030B4174BDB68C3F30223C3F1B9
:100E54000704042C28BF04241D1D062D01D9033BBF
:100E640000E000234FF0FF3505FA04F421EA040101
:100E7400994005FA03F322EA03031943002809DB26
:100E84000901C9B200F1604000F5614080F8001327
:100E940030BC704700F00F000901C9B2024B19546D
:100EA400F6E700BF00ED00E014ED00E00138B0F11A
:100EB400807F0AD2064B5860064AF02182F823103C
:100EC4000020986007221A6070470120704700BF15
:100ED40010E000E000ED00E00F4B1A6842F0010260
:100EE4001A6059680D4A0A405A601A6822F08472DE
:100EF40022F480321A601A6822F480221A605A6836
:100F040022F4FE025A604FF41F029A60044B4FF021
:100F140000629A60704700BF001002400000FFF8B2
:100F240000ED00E0002103E00B4B5B58435004311B
:100F34000A480B4B42189A42F6D30A4A02E00023AD
:100F440042F8043B084B9A42F9D3FFF7C5FF00F07F
:100F54000FF8FFF7B9F970474810000800000020A7
:100F64000C0000200C0000202C000020FEE70000F4
:100F740070B500260C4D0D4C641BA410A64209D17B
:100F840000F022F800260A4D0A4C641BA410A64265
:100F940005D170BD55F8043B98470136EEE755F886
:100FA400043B98470136F2E740100008401000085F
:100FB400401000084410000803460244934200D144
:100FC400704703F8011BF9E7F8B500BFF8BC08BC8B
:100FD4009E467047F8B500BFF8BC08BC9E467047F3
:100FE40080C094D402030405060708090A0B0C0DFB
:100FF4000E0F1010010200004C43445F544553543B
:101004000000000053544D333246313033000000A9
:101014004D6F746F725F436F6E74726F6C0000007B
:10102400436F6E74696E7565000000000000000077
:0C10340000000000010203040607080988
:041040000902000899
:04104400E5010008BA
:0C104800010000001000000000A24A049B
:0400000508000F29B7
:00000001FF
